{
  "_format": "hh-sol-artifact-1",
  "contractName": "TFXToken",
  "sourceName": "contracts/tfxtoken.sol",
  "abi": [
    {
      "inputs": [],
      "stateMutability": "nonpayable",
      "type": "constructor"
    },
    {
      "inputs": [
        {
          "internalType": "address",
          "name": "spender",
          "type": "address"
        },
        {
          "internalType": "uint256",
          "name": "allowance",
          "type": "uint256"
        },
        {
          "internalType": "uint256",
          "name": "needed",
          "type": "uint256"
        }
      ],
      "name": "ERC20InsufficientAllowance",
      "type": "error"
    },
    {
      "inputs": [
        {
          "internalType": "address",
          "name": "sender",
          "type": "address"
        },
        {
          "internalType": "uint256",
          "name": "balance",
          "type": "uint256"
        },
        {
          "internalType": "uint256",
          "name": "needed",
          "type": "uint256"
        }
      ],
      "name": "ERC20InsufficientBalance",
      "type": "error"
    },
    {
      "inputs": [
        {
          "internalType": "address",
          "name": "approver",
          "type": "address"
        }
      ],
      "name": "ERC20InvalidApprover",
      "type": "error"
    },
    {
      "inputs": [
        {
          "internalType": "address",
          "name": "receiver",
          "type": "address"
        }
      ],
      "name": "ERC20InvalidReceiver",
      "type": "error"
    },
    {
      "inputs": [
        {
          "internalType": "address",
          "name": "sender",
          "type": "address"
        }
      ],
      "name": "ERC20InvalidSender",
      "type": "error"
    },
    {
      "inputs": [
        {
          "internalType": "address",
          "name": "spender",
          "type": "address"
        }
      ],
      "name": "ERC20InvalidSpender",
      "type": "error"
    },
    {
      "inputs": [
        {
          "internalType": "address",
          "name": "owner",
          "type": "address"
        }
      ],
      "name": "OwnableInvalidOwner",
      "type": "error"
    },
    {
      "inputs": [
        {
          "internalType": "address",
          "name": "account",
          "type": "address"
        }
      ],
      "name": "OwnableUnauthorizedAccount",
      "type": "error"
    },
    {
      "anonymous": false,
      "inputs": [
        {
          "indexed": true,
          "internalType": "address",
          "name": "owner",
          "type": "address"
        },
        {
          "indexed": true,
          "internalType": "address",
          "name": "spender",
          "type": "address"
        },
        {
          "indexed": false,
          "internalType": "uint256",
          "name": "value",
          "type": "uint256"
        }
      ],
      "name": "Approval",
      "type": "event"
    },
    {
      "anonymous": false,
      "inputs": [
        {
          "indexed": true,
          "internalType": "address",
          "name": "previousOwner",
          "type": "address"
        },
        {
          "indexed": true,
          "internalType": "address",
          "name": "newOwner",
          "type": "address"
        }
      ],
      "name": "OwnershipTransferred",
      "type": "event"
    },
    {
      "anonymous": false,
      "inputs": [
        {
          "indexed": true,
          "internalType": "address",
          "name": "from",
          "type": "address"
        },
        {
          "indexed": true,
          "internalType": "address",
          "name": "to",
          "type": "address"
        },
        {
          "indexed": false,
          "internalType": "uint256",
          "name": "value",
          "type": "uint256"
        }
      ],
      "name": "Transfer",
      "type": "event"
    },
    {
      "inputs": [
        {
          "internalType": "address",
          "name": "owner",
          "type": "address"
        },
        {
          "internalType": "address",
          "name": "spender",
          "type": "address"
        }
      ],
      "name": "allowance",
      "outputs": [
        {
          "internalType": "uint256",
          "name": "",
          "type": "uint256"
        }
      ],
      "stateMutability": "view",
      "type": "function"
    },
    {
      "inputs": [
        {
          "internalType": "address",
          "name": "spender",
          "type": "address"
        },
        {
          "internalType": "uint256",
          "name": "value",
          "type": "uint256"
        }
      ],
      "name": "approve",
      "outputs": [
        {
          "internalType": "bool",
          "name": "",
          "type": "bool"
        }
      ],
      "stateMutability": "nonpayable",
      "type": "function"
    },
    {
      "inputs": [
        {
          "internalType": "address",
          "name": "account",
          "type": "address"
        }
      ],
      "name": "balanceOf",
      "outputs": [
        {
          "internalType": "uint256",
          "name": "",
          "type": "uint256"
        }
      ],
      "stateMutability": "view",
      "type": "function"
    },
    {
      "inputs": [
        {
          "internalType": "uint256",
          "name": "amount",
          "type": "uint256"
        }
      ],
      "name": "burn",
      "outputs": [],
      "stateMutability": "nonpayable",
      "type": "function"
    },
    {
      "inputs": [],
      "name": "decimals",
      "outputs": [
        {
          "internalType": "uint8",
          "name": "",
          "type": "uint8"
        }
      ],
      "stateMutability": "view",
      "type": "function"
    },
    {
      "inputs": [
        {
          "internalType": "address",
          "name": "to",
          "type": "address"
        },
        {
          "internalType": "uint256",
          "name": "amount",
          "type": "uint256"
        }
      ],
      "name": "mint",
      "outputs": [],
      "stateMutability": "nonpayable",
      "type": "function"
    },
    {
      "inputs": [],
      "name": "name",
      "outputs": [
        {
          "internalType": "string",
          "name": "",
          "type": "string"
        }
      ],
      "stateMutability": "view",
      "type": "function"
    },
    {
      "inputs": [],
      "name": "owner",
      "outputs": [
        {
          "internalType": "address",
          "name": "",
          "type": "address"
        }
      ],
      "stateMutability": "view",
      "type": "function"
    },
    {
      "inputs": [],
      "name": "renounceOwnership",
      "outputs": [],
      "stateMutability": "nonpayable",
      "type": "function"
    },
    {
      "inputs": [],
      "name": "symbol",
      "outputs": [
        {
          "internalType": "string",
          "name": "",
          "type": "string"
        }
      ],
      "stateMutability": "view",
      "type": "function"
    },
    {
      "inputs": [],
      "name": "totalSupply",
      "outputs": [
        {
          "internalType": "uint256",
          "name": "",
          "type": "uint256"
        }
      ],
      "stateMutability": "view",
      "type": "function"
    },
    {
      "inputs": [
        {
          "internalType": "address",
          "name": "to",
          "type": "address"
        },
        {
          "internalType": "uint256",
          "name": "value",
          "type": "uint256"
        }
      ],
      "name": "transfer",
      "outputs": [
        {
          "internalType": "bool",
          "name": "",
          "type": "bool"
        }
      ],
      "stateMutability": "nonpayable",
      "type": "function"
    },
    {
      "inputs": [
        {
          "internalType": "address",
          "name": "from",
          "type": "address"
        },
        {
          "internalType": "address",
          "name": "to",
          "type": "address"
        },
        {
          "internalType": "uint256",
          "name": "value",
          "type": "uint256"
        }
      ],
      "name": "transferFrom",
      "outputs": [
        {
          "internalType": "bool",
          "name": "",
          "type": "bool"
        }
      ],
      "stateMutability": "nonpayable",
      "type": "function"
    },
    {
      "inputs": [
        {
          "internalType": "address",
          "name": "newOwner",
          "type": "address"
        }
      ],
      "name": "transferOwnership",
      "outputs": [],
      "stateMutability": "nonpayable",
      "type": "function"
    }
  ],
  "bytecode": "0x60806040523461041357604080519081016001600160401b0381118282101761031e576040908152601082526f2a393ab9ba2337b933b2902a37b5b2b760811b602083015280519081016001600160401b0381118282101761031e5760405260038152620a88cb60eb1b602082015281516001600160401b03811161031e57600354600181811c91168015610409575b60208210146102fe57601f81116103a4575b50602092601f821160011461033f5792819293600092610334575b50508160011b916000199060031b1c1916176003555b80516001600160401b03811161031e57600454600181811c91168015610314575b60208210146102fe57601f8111610299575b50602091601f82116001146102355791819260009261022a575b50508160011b916000199060031b1c1916176004555b33156102145760058054336001600160a01b0319821681179092556001600160a01b03167f8be0079c531659141344cd1fd0a4f28419497f9722a3daafe3b4186f6b6457e0600080a3600060025469d3c21bcecceda100000081018091116102005760025550336000526000602052604060002069d3c21bcecceda1000000815401905560405169d3c21bcecceda1000000815260007fddf252ad1be2c89b69c2b068fc378daa952ba7f163c4a11628f55a4df523b3ef60203393a36040516108f290816104198239f35b634e487b7160e01b82526011600452602482fd5b631e4fbdf760e01b600052600060045260246000fd5b01519050388061011f565b601f198216926004600052806000209160005b85811061028157508360019510610268575b505050811b01600455610135565b015160001960f88460031b161c1916905538808061025a565b91926020600181928685015181550194019201610248565b60046000527f8a35acfbc15ff81a39ae7d344fd709f28e8600b4aa8c65c6b64bfe7fe36bd19b601f830160051c810191602084106102f4575b601f0160051c01905b8181106102e85750610105565b600081556001016102db565b90915081906102d2565b634e487b7160e01b600052602260045260246000fd5b90607f16906100f3565b634e487b7160e01b600052604160045260246000fd5b0151905038806100bc565b601f198216936003600052806000209160005b86811061038c5750836001959610610373575b505050811b016003556100d2565b015160001960f88460031b161c19169055388080610365565b91926020600181928685015181550194019201610352565b60036000527fc2575a0e9e593c00f959f8c92f12db2869c3395a3b0502d05e2516446f71f85b601f830160051c810191602084106103ff575b601f0160051c01905b8181106103f357506100a1565b600081556001016103e6565b90915081906103dd565b90607f169061008f565b600080fdfe608080604052600436101561001357600080fd5b60003560e01c90816306fdde03146106b257508063095ea7b31461062c57806318160ddd1461060e57806323b872dd14610521578063313ce5671461050557806340c10f191461045157806342966c68146103ab57806370a0823114610371578063715018a6146103145780638da5cb5b146102eb57806395d89b41146101ca578063a9059cbb14610199578063dd62ed3e146101485763f2fde38b146100b957600080fd5b34610143576020366003190112610143576100d26107ce565b6100da610893565b6001600160a01b0316801561012d57600580546001600160a01b0319811683179091556001600160a01b03167f8be0079c531659141344cd1fd0a4f28419497f9722a3daafe3b4186f6b6457e0600080a3005b631e4fbdf760e01b600052600060045260246000fd5b600080fd5b34610143576040366003190112610143576101616107ce565b6101696107e4565b6001600160a01b039182166000908152600160209081526040808320949093168252928352819020549051908152f35b34610143576040366003190112610143576101bf6101b56107ce565b60243590336107fa565b602060405160018152f35b346101435760003660031901126101435760405160006004548060011c906001811680156102e1575b6020831081146102cd578285529081156102b1575060011461025a575b50819003601f01601f191681019067ffffffffffffffff8211818310176102445761024082918260405282610785565b0390f35b634e487b7160e01b600052604160045260246000fd5b905060046000527f8a35acfbc15ff81a39ae7d344fd709f28e8600b4aa8c65c6b64bfe7fe36bd19b6000905b82821061029b57506020915082010182610210565b6001816020925483858801015201910190610286565b90506020925060ff191682840152151560051b82010182610210565b634e487b7160e01b84526022600452602484fd5b91607f16916101f3565b34610143576000366003190112610143576005546040516001600160a01b039091168152602090f35b346101435760003660031901126101435761032d610893565b600580546001600160a01b031981169091556000906001600160a01b03167f8be0079c531659141344cd1fd0a4f28419497f9722a3daafe3b4186f6b6457e08280a3005b34610143576020366003190112610143576001600160a01b036103926107ce565b1660005260006020526020604060002054604051908152f35b3461014357602036600319011261014357600435331561043b57600033815280602052604081205491808310610422578082933384528360205203604083205580600254036002556040519081527fddf252ad1be2c89b69c2b068fc378daa952ba7f163c4a11628f55a4df523b3ef60203392a380f35b60649263391434e360e21b835233600452602452604452fd5b634b637e8f60e11b600052600060045260246000fd5b346101435760403660031901126101435761046a6107ce565b60243590610476610893565b6001600160a01b031680156104ef57600254918083018093116104d9576020926002557fddf252ad1be2c89b69c2b068fc378daa952ba7f163c4a11628f55a4df523b3ef600093849284845283825260408420818154019055604051908152a380f35b634e487b7160e01b600052601160045260246000fd5b63ec442f0560e01b600052600060045260246000fd5b3461014357600036600319011261014357602060405160128152f35b346101435760603660031901126101435761053a6107ce565b6105426107e4565b6001600160a01b0382166000818152600160209081526040808320338452909152902054909260443592916000198110610582575b506101bf93506107fa565b8381106105f15784156105db5733156105c5576101bf946000526001602052604060002060018060a01b0333166000526020528360406000209103905584610577565b634a1406b160e11b600052600060045260246000fd5b63e602df0560e01b600052600060045260246000fd5b8390637dc7a0d960e11b6000523360045260245260445260646000fd5b34610143576000366003190112610143576020600254604051908152f35b34610143576040366003190112610143576106456107ce565b6024359033156105db576001600160a01b03169081156105c557336000526001602052604060002082600052602052806040600020556040519081527f8c5be1e5ebec7d5bd14f71427d1e84f3dd0314c0f7b2291e5b200ac8c7c3b92560203392a3602060405160018152f35b346101435760003660031901126101435760006003548060011c9060018116801561077b575b6020831081146102cd578285529081156102b157506001146107245750819003601f01601f191681019067ffffffffffffffff8211818310176102445761024082918260405282610785565b905060036000527fc2575a0e9e593c00f959f8c92f12db2869c3395a3b0502d05e2516446f71f85b6000905b82821061076557506020915082010182610210565b6001816020925483858801015201910190610750565b91607f16916106d8565b91909160208152825180602083015260005b8181106107b8575060409293506000838284010152601f8019910116010190565b8060208092870101516040828601015201610797565b600435906001600160a01b038216820361014357565b602435906001600160a01b038216820361014357565b6001600160a01b031690811561043b576001600160a01b03169182156104ef5760008281528060205260408120548281106108795791604082827fddf252ad1be2c89b69c2b068fc378daa952ba7f163c4a11628f55a4df523b3ef958760209652828652038282205586815280845220818154019055604051908152a3565b916064928463391434e360e21b8452600452602452604452fd5b6005546001600160a01b031633036108a757565b63118cdaa760e01b6000523360045260246000fdfea2646970667358221220fe6dae22191b41e1da77b31a142f2d57be1e02d54594638914699d3c4863047f64736f6c634300081c0033",
  "linkReferences": {},
  "deployedLinkReferences": {}
}