{"contracts/trustforge.sol":{"TrustForge":{"abi":[{"inputs":[{"internalType":"address","name":"_lendingToken","type":"address"}],"stateMutability":"nonpayable","type":"constructor"},{"inputs":[],"name":"EnforcedPause","type":"error"},{"inputs":[],"name":"ExpectedPause","type":"error"},{"inputs":[{"internalType":"address","name":"owner","type":"address"}],"name":"OwnableInvalidOwner","type":"error"},{"inputs":[{"internalType":"address","name":"account","type":"address"}],"name":"OwnableUnauthorizedAccount","type":"error"},{"inputs":[],"name":"ReentrancyGuardReentrantCall","type":"error"},{"anonymous":false,"inputs":[{"indexed":true,"internalType":"address","name":"daoAddress","type":"address"}],"name":"DAOEnabled","type":"event"},{"anonymous":false,"inputs":[{"indexed":true,"internalType":"address","name":"lender","type":"address"},{"indexed":false,"internalType":"uint256","name":"amount","type":"uint256"}],"name":"InterestClaimed","type":"event"},{"anonymous":false,"inputs":[{"indexed":false,"internalType":"uint256","name":"totalAmount","type":"uint256"}],"name":"InterestDistributed","type":"event"},{"anonymous":false,"inputs":[{"indexed":true,"internalType":"address","name":"lender","type":"address"},{"indexed":false,"internalType":"uint256","name":"amount","type":"uint256"}],"name":"LenderDeposited","type":"event"},{"anonymous":false,"inputs":[{"indexed":true,"internalType":"address","name":"lender","type":"address"},{"indexed":false,"internalType":"uint256","name":"amount","type":"uint256"}],"name":"LenderWithdrew","type":"event"},{"anonymous":false,"inputs":[{"indexed":true,"internalType":"address","name":"borrower","type":"address"},{"indexed":false,"internalType":"uint256","name":"lostAmount","type":"uint256"}],"name":"LoanDefaulted","type":"event"},{"anonymous":false,"inputs":[{"indexed":true,"internalType":"address","name":"borrower","type":"address"},{"indexed":false,"internalType":"uint256","name":"principal","type":"uint256"},{"indexed":false,"internalType":"uint256","name":"interest","type":"uint256"},{"indexed":false,"internalType":"uint256","name":"dueDate","type":"uint256"},{"indexed":false,"internalType":"uint256","name":"duration","type":"uint256"}],"name":"LoanIssued","type":"event"},{"anonymous":false,"inputs":[{"indexed":true,"internalType":"address","name":"borrower","type":"address"},{"indexed":false,"internalType":"uint256","name":"principal","type":"uint256"},{"indexed":false,"internalType":"uint256","name":"interest","type":"uint256"}],"name":"LoanRepaid","type":"event"},{"anonymous":false,"inputs":[{"indexed":true,"internalType":"address","name":"borrower","type":"address"},{"indexed":false,"internalType":"uint256","name":"amount","type":"uint256"},{"indexed":false,"internalType":"uint256","name":"duration","type":"uint256"}],"name":"LoanRequested","type":"event"},{"anonymous":false,"inputs":[{"indexed":true,"internalType":"address","name":"previousOwner","type":"address"},{"indexed":true,"internalType":"address","name":"newOwner","type":"address"}],"name":"OwnershipTransferred","type":"event"},{"anonymous":false,"inputs":[{"indexed":false,"internalType":"string","name":"parameter","type":"string"},{"indexed":false,"internalType":"uint256","name":"oldValue","type":"uint256"},{"indexed":false,"internalType":"uint256","name":"newValue","type":"uint256"}],"name":"ParameterUpdated","type":"event"},{"anonymous":false,"inputs":[{"indexed":false,"internalType":"address","name":"account","type":"address"}],"name":"Paused","type":"event"},{"anonymous":false,"inputs":[{"indexed":true,"internalType":"address","name":"user","type":"address"},{"indexed":false,"internalType":"uint256","name":"oldScore","type":"uint256"},{"indexed":false,"internalType":"uint256","name":"newScore","type":"uint256"},{"indexed":false,"internalType":"string","name":"reason","type":"string"}],"name":"TrustUpdated","type":"event"},{"anonymous":false,"inputs":[{"indexed":false,"internalType":"address","name":"account","type":"address"}],"name":"Unpaused","type":"event"},{"anonymous":false,"inputs":[{"indexed":true,"internalType":"address","name":"voucher","type":"address"},{"indexed":true,"internalType":"address","name":"vouchee","type":"address"}],"name":"VouchCreated","type":"event"},{"anonymous":false,"inputs":[{"indexed":true,"internalType":"address","name":"user","type":"address"},{"indexed":false,"internalType":"uint256","name":"maturityLevel","type":"uint256"},{"indexed":false,"internalType":"uint256","name":"walletAge","type":"uint256"}],"name":"WalletMaturityEvaluated","type":"event"},{"inputs":[],"name":"BASE_INTEREST_RATE","outputs":[{"internalType":"uint256","name":"","type":"uint256"}],"stateMutability":"view","type":"function"},{"inputs":[],"name":"DEFAULT_COOLDOWN_PERIOD","outputs":[{"internalType":"uint256","name":"","type":"uint256"}],"stateMutability":"view","type":"function"},{"inputs":[],"name":"HIGH_TRUST_LIMIT","outputs":[{"internalType":"uint256","name":"","type":"uint256"}],"stateMutability":"view","type":"function"},{"inputs":[],"name":"INITIAL_TRUST_SCORE","outputs":[{"internalType":"uint256","name":"","type":"uint256"}],"stateMutability":"view","type":"function"},{"inputs":[],"name":"LOW_TRUST_LIMIT","outputs":[{"internalType":"uint256","name":"","type":"uint256"}],"stateMutability":"view","type":"function"},{"inputs":[],"name":"MATURITY_LEVEL_1","outputs":[{"internalType":"uint256","name":"","type":"uint256"}],"stateMutability":"view","type":"function"},{"inputs":[],"name":"MATURITY_LEVEL_2","outputs":[{"internalType":"uint256","name":"","type":"uint256"}],"stateMutability":"view","type":"function"},{"inputs":[],"name":"MATURITY_LEVEL_3","outputs":[{"internalType":"uint256","name":"","type":"uint256"}],"stateMutability":"view","type":"function"},{"inputs":[],"name":"MAX_INTEREST_RATE","outputs":[{"internalType":"uint256","name":"","type":"uint256"}],"stateMutability":"view","type":"function"},{"inputs":[],"name":"MAX_LOAN_DURATION","outputs":[{"internalType":"uint256","name":"","type":"uint256"}],"stateMutability":"view","type":"function"},{"inputs":[],"name":"MAX_TRUST_SCORE","outputs":[{"internalType":"uint256","name":"","type":"uint256"}],"stateMutability":"view","type":"function"},{"inputs":[],"name":"MED_TRUST_LIMIT","outputs":[{"internalType":"uint256","name":"","type":"uint256"}],"stateMutability":"view","type":"function"},{"inputs":[],"name":"MIN_LOAN_AMOUNT","outputs":[{"internalType":"uint256","name":"","type":"uint256"}],"stateMutability":"view","type":"function"},{"inputs":[],"name":"MIN_LOAN_DURATION","outputs":[{"internalType":"uint256","name":"","type":"uint256"}],"stateMutability":"view","type":"function"},{"inputs":[],"name":"TRUST_DECREASE_ON_DEFAULT","outputs":[{"internalType":"uint256","name":"","type":"uint256"}],"stateMutability":"view","type":"function"},{"inputs":[],"name":"TRUST_INCREASE_PER_REPAYMENT","outputs":[{"internalType":"uint256","name":"","type":"uint256"}],"stateMutability":"view","type":"function"},{"inputs":[{"internalType":"address","name":"","type":"address"}],"name":"activeLoans","outputs":[{"internalType":"address","name":"borrower","type":"address"},{"internalType":"uint256","name":"principal","type":"uint256"},{"internalType":"uint256","name":"interestAmount","type":"uint256"},{"internalType":"uint256","name":"totalRepayment","type":"uint256"},{"internalType":"uint256","name":"startTime","type":"uint256"},{"internalType":"uint256","name":"dueDate","type":"uint256"},{"internalType":"uint256","name":"duration","type":"uint256"},{"internalType":"enum TrustForge.LoanStatus","name":"status","type":"uint8"}],"stateMutability":"view","type":"function"},{"inputs":[],"name":"claimInterest","outputs":[],"stateMutability":"nonpayable","type":"function"},{"inputs":[],"name":"daoAddress","outputs":[{"internalType":"address","name":"","type":"address"}],"stateMutability":"view","type":"function"},{"inputs":[],"name":"daoEnabled","outputs":[{"internalType":"bool","name":"","type":"bool"}],"stateMutability":"view","type":"function"},{"inputs":[{"internalType":"uint256","name":"amount","type":"uint256"}],"name":"depositToPool","outputs":[],"stateMutability":"nonpayable","type":"function"},{"inputs":[{"internalType":"address","name":"_daoAddress","type":"address"}],"name":"enableDAO","outputs":[],"stateMutability":"nonpayable","type":"function"},{"inputs":[{"internalType":"address","name":"borrower","type":"address"}],"name":"getActiveLoan","outputs":[{"internalType":"uint256","name":"principal","type":"uint256"},{"internalType":"uint256","name":"interestAmount","type":"uint256"},{"internalType":"uint256","name":"totalRepayment","type":"uint256"},{"internalType":"uint256","name":"dueDate","type":"uint256"},{"internalType":"uint256","name":"duration","type":"uint256"},{"internalType":"enum TrustForge.LoanStatus","name":"status","type":"uint8"},{"internalType":"bool","name":"isOverdue","type":"bool"}],"stateMutability":"view","type":"function"},{"inputs":[],"name":"getDAOInfo","outputs":[{"internalType":"bool","name":"enabled","type":"bool"},{"internalType":"address","name":"dao","type":"address"},{"internalType":"uint256","name":"trustIncrease","type":"uint256"},{"internalType":"uint256","name":"trustDecrease","type":"uint256"},{"internalType":"uint256","name":"baseRate","type":"uint256"},{"internalType":"uint256","name":"maxRate","type":"uint256"},{"internalType":"uint256","name":"minDuration","type":"uint256"},{"internalType":"uint256","name":"maxDuration","type":"uint256"}],"stateMutability":"view","type":"function"},{"inputs":[{"internalType":"address","name":"lender","type":"address"}],"name":"getLenderInfo","outputs":[{"internalType":"uint256","name":"depositedAmount","type":"uint256"},{"internalType":"uint256","name":"totalInterestEarned","type":"uint256"},{"internalType":"uint256","name":"pendingInterest","type":"uint256"}],"stateMutability":"view","type":"function"},{"inputs":[],"name":"getLoanDurationLimits","outputs":[{"internalType":"uint256","name":"minDuration","type":"uint256"},{"internalType":"uint256","name":"maxDuration","type":"uint256"}],"stateMutability":"view","type":"function"},{"inputs":[],"name":"getPoolStats","outputs":[{"internalType":"uint256","name":"totalLiquidity","type":"uint256"},{"internalType":"uint256","name":"totalActiveLoanAmount","type":"uint256"},{"internalType":"uint256","name":"availableLiquidity","type":"uint256"},{"internalType":"uint256","name":"utilizationRate","type":"uint256"},{"internalType":"uint256","name":"interestPool","type":"uint256"},{"internalType":"uint256","name":"totalDefaulted","type":"uint256"}],"stateMutability":"view","type":"function"},{"inputs":[{"internalType":"address","name":"user","type":"address"}],"name":"getUserProfile","outputs":[{"internalType":"uint256","name":"trustScore","type":"uint256"},{"internalType":"uint256","name":"totalLoansTaken","type":"uint256"},{"internalType":"uint256","name":"successfulRepayments","type":"uint256"},{"internalType":"uint256","name":"defaults","type":"uint256"},{"internalType":"bool","name":"hasActiveLoan","type":"bool"},{"internalType":"uint256","name":"walletAge","type":"uint256"},{"internalType":"uint256","name":"maturityLevel","type":"uint256"},{"internalType":"uint256","name":"maxBorrowingLimit","type":"uint256"}],"stateMutability":"view","type":"function"},{"inputs":[{"internalType":"address","name":"wallet","type":"address"}],"name":"getWalletMaturity","outputs":[{"components":[{"internalType":"uint256","name":"age","type":"uint256"},{"internalType":"uint256","name":"maturityLevel","type":"uint256"},{"internalType":"uint256","name":"maturityMultiplier","type":"uint256"}],"internalType":"struct TrustForge.WalletMaturity","name":"","type":"tuple"}],"stateMutability":"view","type":"function"},{"inputs":[{"internalType":"address","name":"","type":"address"}],"name":"lenders","outputs":[{"internalType":"uint256","name":"depositedAmount","type":"uint256"},{"internalType":"uint256","name":"depositTime","type":"uint256"},{"internalType":"uint256","name":"totalInterestEarned","type":"uint256"},{"internalType":"uint256","name":"lastClaimTime","type":"uint256"}],"stateMutability":"view","type":"function"},{"inputs":[],"name":"lendingToken","outputs":[{"internalType":"contract IERC20","name":"","type":"address"}],"stateMutability":"view","type":"function"},{"inputs":[{"internalType":"address","name":"borrower","type":"address"}],"name":"markDefault","outputs":[],"stateMutability":"nonpayable","type":"function"},{"inputs":[],"name":"owner","outputs":[{"internalType":"address","name":"","type":"address"}],"stateMutability":"view","type":"function"},{"inputs":[],"name":"pause","outputs":[],"stateMutability":"nonpayable","type":"function"},{"inputs":[],"name":"paused","outputs":[{"internalType":"bool","name":"","type":"bool"}],"stateMutability":"view","type":"function"},{"inputs":[],"name":"renounceOwnership","outputs":[],"stateMutability":"nonpayable","type":"function"},{"inputs":[],"name":"repayLoan","outputs":[],"stateMutability":"nonpayable","type":"function"},{"inputs":[{"internalType":"uint256","name":"amount","type":"uint256"},{"internalType":"uint256","name":"duration","type":"uint256"}],"name":"requestLoan","outputs":[],"stateMutability":"nonpayable","type":"function"},{"inputs":[],"name":"totalActiveLoans","outputs":[{"internalType":"uint256","name":"","type":"uint256"}],"stateMutability":"view","type":"function"},{"inputs":[],"name":"totalDefaultedAmount","outputs":[{"internalType":"uint256","name":"","type":"uint256"}],"stateMutability":"view","type":"function"},{"inputs":[],"name":"totalInterestPool","outputs":[{"internalType":"uint256","name":"","type":"uint256"}],"stateMutability":"view","type":"function"},{"inputs":[],"name":"totalLenderDeposits","outputs":[{"internalType":"uint256","name":"","type":"uint256"}],"stateMutability":"view","type":"function"},{"inputs":[],"name":"totalPoolLiquidity","outputs":[{"internalType":"uint256","name":"","type":"uint256"}],"stateMutability":"view","type":"function"},{"inputs":[{"internalType":"address","name":"newOwner","type":"address"}],"name":"transferOwnership","outputs":[],"stateMutability":"nonpayable","type":"function"},{"inputs":[],"name":"unpause","outputs":[],"stateMutability":"nonpayable","type":"function"},{"inputs":[{"internalType":"uint256","name":"_lowTrust","type":"uint256"},{"internalType":"uint256","name":"_medTrust","type":"uint256"},{"internalType":"uint256","name":"_highTrust","type":"uint256"}],"name":"updateBorrowingLimits","outputs":[],"stateMutability":"nonpayable","type":"function"},{"inputs":[{"internalType":"uint256","name":"_newPeriod","type":"uint256"}],"name":"updateDefaultCooldown","outputs":[],"stateMutability":"nonpayable","type":"function"},{"inputs":[{"internalType":"uint256","name":"_baseRate","type":"uint256"},{"internalType":"uint256","name":"_maxRate","type":"uint256"}],"name":"updateInterestRates","outputs":[],"stateMutability":"nonpayable","type":"function"},{"inputs":[{"internalType":"uint256","name":"_minDuration","type":"uint256"},{"internalType":"uint256","name":"_maxDuration","type":"uint256"}],"name":"updateLoanDurationLimits","outputs":[],"stateMutability":"nonpayable","type":"function"},{"inputs":[{"internalType":"uint256","name":"_increasePerRepayment","type":"uint256"},{"internalType":"uint256","name":"_decreaseOnDefault","type":"uint256"}],"name":"updateTrustParameters","outputs":[],"stateMutability":"nonpayable","type":"function"},{"inputs":[{"internalType":"address","name":"","type":"address"}],"name":"userProfiles","outputs":[{"internalType":"uint256","name":"trustScore","type":"uint256"},{"internalType":"uint256","name":"totalLoansTaken","type":"uint256"},{"internalType":"uint256","name":"successfulRepayments","type":"uint256"},{"internalType":"uint256","name":"defaults","type":"uint256"},{"internalType":"bool","name":"hasActiveLoan","type":"bool"},{"internalType":"uint256","name":"lastDefaultTime","type":"uint256"},{"internalType":"uint256","name":"walletFirstSeen","type":"uint256"},{"internalType":"uint256","name":"totalTransactions","type":"uint256"}],"stateMutability":"view","type":"function"},{"inputs":[{"internalType":"address","name":"vouchee","type":"address"}],"name":"vouchForUser","outputs":[],"stateMutability":"nonpayable","type":"function"},{"inputs":[{"internalType":"address","name":"","type":"address"},{"internalType":"address","name":"","type":"address"}],"name":"vouches","outputs":[{"internalType":"bool","name":"","type":"bool"}],"stateMutability":"view","type":"function"},{"inputs":[{"internalType":"uint256","name":"amount","type":"uint256"}],"name":"withdrawFromPool","outputs":[],"stateMutability":"nonpayable","type":"function"}],"evm":{"bytecode":{"linkReferences":{},"object":"60803461015657601f612d7138819003918201601f19168301916001600160401b0383118484101761015b5780849260209460405283398101031261015657516001600160a01b0381169081900361015657600160005533156101405760018054610100600160a81b0319811633600881811b610100600160a81b031692909217909355604051939291901c6001600160a01b03167f8be0079c531659141344cd1fd0a4f28419497f9722a3daafe3b4186f6b6457e0600080a3603260035560c86004556101f46005556107d0600655662386f26fc100006007556201518060085562ed4e0060095562278d00600a5567016345785d8a0000600b556706f05b59d3b20000600c55671bc16d674ec80000600d55600280546001600160a01b0319169190911790556011805460ff60a01b19169055612bff90816101728239f35b631e4fbdf760e01b600052600060045260246000fd5b600080fd5b634e487b7160e01b600052604160045260246000fdfe6080604052600436101561001257600080fd5b60003560e01c80630b337be6146126435780630d0b2ca6146126255780630d8cb2ff1461260757806316d5ed65146124ff5780632131c68c146124d6578063241109b11461234d57806328fd10d7146122f05780632a998690146121fe57806330fc43ed1461208c578063332d56d714611fee57806334855d1414611fd0578063350fa3ec14611dfa57806335981fd814611c6c5780633716963d14611ad657806339f64c6c14611ab05780633a28d68014611a925780633a701a3614611a745780633f4ba83a14611a0b57806342e3e4f7146119a3578063474f23e814611985578063508903bf1461176c5780635c975abb146117495780636010ba641461163557806368b0e070146114e95780636f474ab0146114cb578063715018a61461146a57806374c8d3771461144d5780638456cb59146113f457806389d99a05146113d65780638da5cb5b146113a95780639549e6821461120157806396fa212f146111e3578063987ee156146110cb5780639a70327d146110ad5780639af819691461106e5780639c847f7414611050578063a91a36e914611034578063a9a5857814611016578063aa452fa614610aba578063aaaca55814610a91578063ab19f09514610a14578063ac03411d146109f6578063b3402bed146109d8578063ba6498391461093e578063bbb85188146108b0578063be81c4d4146106b2578063dc63af4114610694578063e1493c2314610676578063e673a15c14610658578063e8f003311461063a578063efc887e614610615578063f20b2be0146105f7578063f2fde38b1461055a5763f966ade71461026e57600080fd5b3461055557600036600319011261055557610287612ab9565b61028f612adb565b336000526012602052600760406000206006810180541561054c575b50016102b7815461271f565b9055336000526013602052604060002033600052601260205260406000209060048201916102e860ff845416612a12565b600782019260ff8454166003811015610536576103059015612a4f565b600183015460028085015460039095015490546040516323b872dd60e01b81523360048201523060248201526044810192909252919591602090829060649082906000906001600160a01b03165af1801561052a5761036c916000916104fb575b50612851565b600160ff1982541617905560ff1981541690556002810161038d815461271f565b905561039b83600f5461276f565b600f556103aa8260165461288f565b6016557f16e86f0348c2880f6112ec2396e38fef8719fec83b2969fb4718793642c39b2a6020604051848152a18054903360005260126020526040600020600354600282015460058110156104e9575b600a11156104c6575b81546103e8610412838361288f565b11156104b55750506103e890555b54604051918252602082015260606040820152601460608201527314dd58d8d95cdcd99d5b081c995c185e5b595b9d60621b60808201527f61e207e3bae74a62e24453d64a564d920b61f71211e255d085d78b5eb2daf13660a03392a260405191825260208201527fc7ce0a35f17b490de2a317e7fecb2cae86b1abffb03800b2f49282352138269860403392a26001600055005b906104bf9161288f565b9055610420565b600a810180911115610403575b634e487b7160e01b600052601160045260246000fd5b90601481018091116104d357906103fa565b61051d915060203d602011610523575b6105158183612817565b810190612839565b38610366565b503d61050b565b6040513d6000823e3d90fd5b634e487b7160e01b600052602160045260246000fd5b429055386102ab565b600080fd5b34610555576020366003190112610555576105736126a9565b61057b612a8d565b6001600160a01b0381169081156105e15760018054610100600160a81b03198116600893841b610100600160a81b031617909155901c6001600160a01b03167f8be0079c531659141344cd1fd0a4f28419497f9722a3daafe3b4186f6b6457e0600080a3005b631e4fbdf760e01b600052600060045260246000fd5b34610555576000366003190112610555576020600a54604051908152f35b3461055557600036600319011261055557604060085460095482519182526020820152f35b34610555576000366003190112610555576020600e54604051908152f35b34610555576000366003190112610555576020601754604051908152f35b3461055557600036600319011261055557602060405162093a808152f35b34610555576000366003190112610555576020600f54604051908152f35b34610555576020366003190112610555576106cb6126a9565b6106d3612ab9565b60018060a01b03168060005260136020526040600020816000526012602052604060002090600482019161070a60ff845416612a12565b600782019260ff8454166003811015610536576107279015612a4f565b60058301544211156108795760018593015493600260ff1982541617905560ff1981541690556003810161075b815461271f565b905542600582015561076f83600f5461276f565b600f5561077e83600e5461276f565b600e5561078d8360105461288f565b6010558054908260005260126020526040600020600454600160038301541161085f575b7f0be253503c49f8fb02046da3ef57bc2f5f881eb14ba5c2c26b54bf2fb4e7db07959360209593838360a0947f61e207e3bae74a62e24453d64a564d920b61f71211e255d085d78b5eb2daf1369654116000146108555761081390825461276f565b90555b546040519182528682015260606040820152600e60608201526d131bd85b88191959985d5b1d195960921b6080820152a2604051908152a26001600055005b5060329055610816565b94929350606485018095116104d3579193859392906107b1565b60405162461bcd60e51b815260206004820152600f60248201526e139bdd081bdd995c991d59481e595d608a1b6044820152606490fd5b3461055557600036600319011261055557600e54600f549081811115610936576108da828261276f565b915b811561092c5761271081029281840461271014821517156104d3576109038360c0956129f2565b6016549160105493604051958652602086015260408501526060840152608083015260a0820152f35b60c0926000610903565b6000916108dc565b34610555576020366003190112610555576001600160a01b0361095f6126a9565b16600052601360205261010060406000206109d660018060a01b03825416916001810154906002810154600382015460048301549060058401549260ff600760068701549601541695604051988952602089015260408801526060870152608086015260a085015260c084015260e08301906126d5565bf35b34610555576000366003190112610555576020600c54604051908152f35b34610555576000366003190112610555576020600354604051908152f35b34610555576020366003190112610555576060610a2f6126a9565b60018060a01b03811660005260146020526040600020610a7e60405192610a55846127fb565b825493848152600184015460208201528560036002860154958660408501520154910152612af8565b9060405192835260208301526040820152f35b34610555576000366003190112610555576002546040516001600160a01b039091168152602090f35b3461055557610ac8366126bf565b610ad0612ab9565b610ad8612adb565b336000526012602052600760406000206006810180541561100d575b5001610b00815461271f565b9055336000526012602052604060002090815415611004575b60ff600483015416610fbf576007548310610f83576008548110610f49576009548111610f10576003820154610eb4575b610b9a610b56336128cc565b6040602082019485518351835191825260208201527f8ea4f9aee84985ea9687e32c710743b7fdb33bccd7c22f11e49355baea378d3d833392a25491015190612b72565b8311610e6357600e54600f5492610bbc85610bb5868561276f565b101561277c565b6040518581528360208201527f7468760830aff5679376e50470c0493d21c88c599388e89b08c9512b3f3fbc7d60403392a2513360005260126020526040600020938454846005549161012c8110600014610e3e5750506102bc81018091116104d3578490925b80610e1c5750506101f482018092116104d3578391925b80610dc9575b5050610c6790610c6264496cebb80093600654808211610dc1575b50876129df565b6129df565b046001610c74828661288f565b93336000526013602052604060002094336bffffffffffffffffffffffff60a01b875416178655868387015583600287015560038601554260048601556007610cbd854261288f565b95600581019687558560068201550160ff198154169055600481018260ff1982541617905501610ced815461271f565b9055610cfb84600f5461288f565b600f5560025460405163a9059cbb60e01b8152336004820152602481018690529390602090859060449082906000906001600160a01b03165af190811561052a57610d71610d98927e95ff07c1a18f96017ae51e259ce136f0e9a29935f5f76a9a14d027196d0f1c96600091610da25750612851565b54926040519384933397859094939260609260808301968352602083015260408201520152565b0390a26001600055005b610dbb915060203d602011610523576105158183612817565b88610366565b905088610c5b565b9091506064820291808304606414901517156104d357610de8916129f2565b8060011b90808204600214901517156104d35782610c62610e12610c679364496cebb8009561288f565b9350819250610c40565b9293909260001901610c3a5792915060c882018092116104d357839192610c3a565b61025890949192941015610c235792905061012c81018091116104d357849092610c23565b60405162461bcd60e51b815260206004820152602360248201527f416d6f756e7420657863656564732074727573742f6d61747572697479206c696044820152621b5a5d60ea1b6064820152608490fd5b610ec56005830154600a549061288f565b4211610b4a5760405162461bcd60e51b815260206004820152601d60248201527f426c6f636b65642064756520746f20726563656e742064656661756c740000006044820152606490fd5b60405162461bcd60e51b81526020600482015260116024820152704475726174696f6e20746f6f206c6f6e6760781b6044820152606490fd5b60405162461bcd60e51b8152602060048201526012602482015271111d5c985d1a5bdb881d1bdbc81cda1bdc9d60721b6044820152606490fd5b60405162461bcd60e51b8152602060048201526014602482015273416d6f756e742062656c6f77206d696e696d756d60601b6044820152606490fd5b60405162461bcd60e51b815260206004820152601760248201527f416c72656164792068617320616374697665206c6f616e0000000000000000006044820152606490fd5b60648255610b19565b42905584610af4565b34610555576000366003190112610555576020600d54604051908152f35b3461055557600036600319011261055557602060405160648152f35b34610555576000366003190112610555576020600454604051908152f35b3461055557602036600319011261055557606061109161108c6126a9565b6128cc565b6040805191805183526020810151602084015201516040820152f35b34610555576000366003190112610555576020600b54604051908152f35b34610555576020366003190112610555576110e46126a9565b60018060a01b03811660005260126020526040600020906111d96040519161110b836127c8565b83548352600184015492602081019384526002850154946040820195865261116d60038201549360608401948552600760ff60048501541693608086019415158552600581015460a0870152600681015460c0870152015460e08501526128cc565b9151806111dd57506064945b5195519251905115158251916111986040602086015195015188612b72565b946040519889988994919260e0969399989794919961010087019a87526020870152604086015260608501521515608084015260a083015260c08201520152565b0390f35b94611179565b34610555576000366003190112610555576020600754604051908152f35b34610555576060366003190112610555576004356024356044359160018060a01b0360015460081c1633148015611379575b61123c906126e2565b81811080611370575b1561132b57600080516020612baa83398151915260a0600b546040519060608252600f60608301526e1313d5d7d5149554d517d312535255608a1b60808301526020820152836040820152a1600080516020612baa83398151915260a0600c546040519060608252600f60608301526e13515117d5149554d517d312535255608a1b60808301526020820152846040820152a1600080516020612baa83398151915260a0600d546040519060608252601060608301526f121251d217d5149554d517d31253525560821b60808301526020820152856040820152a1600b55600c55600d55005b60405162461bcd60e51b815260206004820152601960248201527f496e76616c6964206c696d69742070726f6772657373696f6e000000000000006044820152606490fd5b50828210611245565b5061123c60115460ff8160a01c169081611396575b509050611233565b6001600160a01b0316331490508561138e565b346105555760003660031901126105555760015460405160089190911c6001600160a01b03168152602090f35b34610555576000366003190112610555576020600854604051908152f35b346105555760003660031901126105555761140d612a8d565b611415612adb565b600160ff19815416176001557f62e78cea01bee320cd4e420270b5ea74000d11b0c9f74754ebdbfc544b05a2586020604051338152a1005b346105555760003660031901126105555760206040516103e88152f35b3461055557600036600319011261055557611483612a8d565b60018054610100600160a81b0319811690915560009060081c6001600160a01b03167f8be0079c531659141344cd1fd0a4f28419497f9722a3daafe3b4186f6b6457e08280a3005b346105555760003660031901126105555760206040516276a7008152f35b3461055557602036600319011261055557600435611505612ab9565b61150d612adb565b336000526012602052600760406000206006810180541561162c575b5001611535815461271f565b905561154281151561272e565b6002546040516323b872dd60e01b81523360048201523060248201526044810183905290602090829060649082906000906001600160a01b03165af1801561052a576115959160009161160d5750612851565b33600052601460205260406000206115ae82825461288f565b81554260018201556003429101556115c881600e5461288f565b600e556115d78160175461288f565b6017556040519081527f83dca925183a756559c22bf3be2283fd2a73318f79c569b4c695660cbfdbe25060203392a26001600055005b611626915060203d602011610523576105158183612817565b83610366565b42905583611529565b34610555576020366003190112610555576001600160a01b036116566126a9565b1660005260136020526040600020604051611670816127c8565b60018060a01b03825416815260018201546020820190815260028301549160408101928352600384015493606082019485526004810154608083015260058101549060a0830191825260e060ff600760068401549360c087019485520154169301936003841015610536578385525194519551958251915192514211948561172b575b509060e096611722949392604051978852602088015260408701526060860152608085015260a08401906126d5565b151560c0820152f35b519094509291906003841015610536579215939192909160e06116f3565b3461055557600036600319011261055557602060ff600154166040519015158152f35b34610555576020366003190112610555576117856126a9565b336000526012602052600760406000206006810180541561197c575b50016117ad815461271f565b9055336000908152601260205260408082206001600160a01b0390931680835291208254919290916101f41161194257600280910154106119085733600052601560205260406000208260005260205260ff604060002054166118d157338214611894573360005260156020526040600020826000526020526040600020600160ff1982541617905580549081156000146118705760969150555b337f4b2c9a3db1e8916a20d447c88fedca2325dffd42f7e881a889cb8d00cd032d78600080a3005b61012c8210611881575b5050611848565b601e82018092116104d35755818061187a565b60405162461bcd60e51b815260206004820152601560248201527421b0b73737ba103b37bab1b4103cb7bab939b2b63360591b6044820152606490fd5b60405162461bcd60e51b815260206004820152600f60248201526e105b1c9958591e481d9bdd58da1959608a1b6044820152606490fd5b60405162461bcd60e51b81526020600482015260126024820152714e65656420322b2072657061796d656e747360701b6044820152606490fd5b60405162461bcd60e51b8152602060048201526012602482015271125b9cdd59999a58da595b9d081d1c9d5cdd60721b6044820152606490fd5b429055836117a1565b34610555576000366003190112610555576020601054604051908152f35b34610555576000366003190112610555576101006011546003546004546005546006549060085492600954946040519660ff8160a01c161515885260018060a01b0316602088015260408701526060860152608085015260a084015260c083015260e0820152f35b3461055557600036600319011261055557611a24612a8d565b60015460ff811615611a635760ff19166001557f5db9ee0a495bf2e6ff9c91a7834c1ba4fdd244a5e8aa4e537bd38aeae4b073aa6020604051338152a1005b638dfc202b60e01b60005260046000fd5b34610555576000366003190112610555576020601654604051908152f35b3461055557600036600319011261055557602060405162278d008152f35b3461055557600036600319011261055557602060ff60115460a01c166040519015158152f35b3461055557611ae4366126bf565b9060018060a01b0360015460081c1633148015611c3c575b611b05906126e2565b80151580611c31575b15611bf95781151580611bed575b15611bb557600080516020612baa83398151915260a06003546040519060608252600e60608301526d54525553545f494e43524541534560901b60808301526020820152836040820152a1600080516020612baa83398151915260a06004546040519060608252600e60608301526d54525553545f444543524541534560901b60808301526020820152846040820152a1600355600455005b60405162461bcd60e51b815260206004820152601060248201526f496e76616c696420646563726561736560801b6044820152606490fd5b506101f4821115611b1c565b60405162461bcd60e51b815260206004820152601060248201526f496e76616c696420696e63726561736560801b6044820152606490fd5b506064811115611b0e565b50611b0560115460ff8160a01c169081611c59575b509050611afc565b6001600160a01b03163314905084611c51565b3461055557600036600319011261055557611c85612ab9565b611c8d612adb565b3360005260126020526007604060002060068101805415611df1575b5001611cb5815461271f565b90553360005260146020526040600020805415611dbe57611cd533612af8565b908115611d825760028101611ceb83825461288f565b9055600342910155611cff8160165461276f565b60165560025460405163a9059cbb60e01b81523360048201526024810183905290602090829060449082906000906001600160a01b03165af1801561052a57611d4f9160009161160d5750612851565b6040519081527ff9984c8173c4b4ff9cc454f76ed19c053f4490ccb224fd9ddffeb4ef4bea353060203392a26001600055005b60405162461bcd60e51b81526020600482015260146024820152734e6f20696e74657265737420746f20636c61696d60601b6044820152606490fd5b60405162461bcd60e51b815260206004820152600b60248201526a4e6f206465706f7369747360a81b6044820152606490fd5b42905582611ca9565b3461055557611e08366126bf565b9060018060a01b0360015460081c1633148015611fa0575b611e29906126e2565b620151808110611f62576301e133808211611f255781811015611ee057600080516020612baa83398151915260a06008546040519060608252601160608301527026a4a72fa627a0a72fa22aa920aa24a7a760791b60808301526020820152836040820152a1600080516020612baa83398151915260a06009546040519060608252601160608301527026a0ac2fa627a0a72fa22aa920aa24a7a760791b60808301526020820152846040820152a1600855600955005b60405162461bcd60e51b815260206004820152601960248201527f4d696e206d757374206265206c657373207468616e206d6178000000000000006044820152606490fd5b60405162461bcd60e51b81526020600482015260156024820152744d6178206475726174696f6e20746f6f206c6f6e6760581b6044820152606490fd5b60405162461bcd60e51b8152602060048201526016602482015275135a5b88191d5c985d1a5bdb881d1bdbc81cda1bdc9d60521b6044820152606490fd5b50611e2960115460ff8160a01c169081611fbd575b509050611e20565b6001600160a01b03163314905084611fb5565b34610555576000366003190112610555576020600654604051908152f35b34610555576020366003190112610555576001600160a01b0361200f6126a9565b166000526012602052604060002080546111d9600183015492600281015490600381015460ff60048301541660058301549160076006850154940154946040519889988994919260e0969399989794919961010087019a87526020870152604086015260608501521515608084015260a083015260c08201520152565b34610555576020366003190112610555576004356120a8612ab9565b6120b0612adb565b33600052601260205260076040600020600681018054156121f5575b50016120d8815461271f565b905533600052601460205260406000206120f382151561272e565b80548281106121b957826121199161211482610bb5600e54600f549061276f565b61276f565b905561212781600e5461276f565b600e556121368160175461276f565b60175560025460405163a9059cbb60e01b81523360048201526024810183905290602090829060449082906000906001600160a01b03165af1801561052a576121869160009161160d5750612851565b6040519081527f5eb46cc574ef1abdbd52310ce761acbb5cbd48af34b53e4f32083f205c8a977e60203392a26001600055005b60405162461bcd60e51b8152602060048201526014602482015273496e73756666696369656e742062616c616e636560601b6044820152606490fd5b429055836120cc565b34610555576020366003190112610555576122176126a9565b61221f612a8d565b6011549060ff8260a01c166122b5576001600160a01b031690811561227a576001600160a81b0319168117600160a01b176011557febfdec959bb9c54042f15aac46777de16490bb402bc0a654d878c4965f1165c2600080a2005b60405162461bcd60e51b8152602060048201526013602482015272496e76616c69642044414f206164647265737360681b6044820152606490fd5b60405162461bcd60e51b8152602060048201526013602482015272111053c8185b1c9958591e48195b98589b1959606a1b6044820152606490fd5b34610555576020366003190112610555576001600160a01b036123116126a9565b16600090815260146020908152604091829020805460018201546002830154600390930154855192835293820152928301526060820152608090f35b346105555761235b366126bf565b9060018060a01b0360015460081c16331480156124a6575b61237c906126e2565b8181101561246157611388821161242857600080516020612baa83398151915260a060055460405190606082526012606083015271424153455f494e5445524553545f5241544560701b60808301526020820152836040820152a1600080516020612baa83398151915260a0600654604051906060825260116060830152704d41585f494e5445524553545f5241544560781b60808301526020820152846040820152a1600555600655005b60405162461bcd60e51b815260206004820152601160248201527009ac2f040e4c2e8ca40e8dede40d0d2ced607b1b6044820152606490fd5b60405162461bcd60e51b815260206004820152601a60248201527f42617365206d757374206265206c657373207468616e206d61780000000000006044820152606490fd5b5061237c60115460ff8160a01c1690816124c3575b509050612373565b6001600160a01b031633149050846124bb565b34610555576000366003190112610555576011546040516001600160a01b039091168152602090f35b346105555760203660031901126105555760043560018060a01b0360015460081c16331480156125d7575b612533906126e2565b62093a80811015806125ca575b1561259257600080516020612baa83398151915260a0600a546040519060608252601060608301526f2222a320aaa62a2fa1a7a7a62227aba760811b60808301526020820152836040820152a1600a55005b60405162461bcd60e51b815260206004820152601060248201526f24b73b30b634b21031b7b7b63237bbb760811b6044820152606490fd5b5062ed4e00811115612540565b5061253360115460ff8160a01c1690816125f4575b50905061252a565b6001600160a01b031633149050836125ec565b34610555576000366003190112610555576020600554604051908152f35b34610555576000366003190112610555576020600954604051908152f35b346105555760403660031901126105555761265c6126a9565b602435906001600160a01b03821682036105555760018060a01b0316600052601560205260406000209060018060a01b0316600052602052602060ff604060002054166040519015158152f35b600435906001600160a01b038216820361055557565b6040906003190112610555576004359060243590565b9060038210156105365752565b156126e957565b60405162461bcd60e51b815260206004820152600e60248201526d139bdd08185d5d1a1bdc9a5e995960921b6044820152606490fd5b60001981146104d35760010190565b1561273557565b60405162461bcd60e51b81526020600482015260126024820152710416d6f756e74206d757374206265203e20360741b6044820152606490fd5b919082039182116104d357565b1561278357565b60405162461bcd60e51b815260206004820152601b60248201527f496e73756666696369656e7420706f6f6c206c697175696469747900000000006044820152606490fd5b610100810190811067ffffffffffffffff8211176127e557604052565b634e487b7160e01b600052604160045260246000fd5b6080810190811067ffffffffffffffff8211176127e557604052565b90601f8019910116810190811067ffffffffffffffff8211176127e557604052565b90816020910312610555575180151581036105555790565b1561285857565b60405162461bcd60e51b815260206004820152600f60248201526e151c985b9cd9995c8819985a5b1959608a1b6044820152606490fd5b919082018092116104d357565b604051906060820182811067ffffffffffffffff8211176127e55760405260006040838281528260208201520152565b6128d461289c565b5060018060a01b0316600052601260205260406000206040516128f6816127c8565b8154815260018201546020820152600282015460408201526003820154606082015260ff60048301541615156080820152600582015460a082015260e0600760068401549360c08401948552015491015261294f61289c565b908051156129c95761296290514261276f565b8082526276a7008110612982575060036020820152609660408201525b90565b62278d00811061299e5750600260208201526064604082015290565b62093a80116129b857600160208201526032604082015290565b600060208201526014604082015290565b5060008152600060208201526014604082015290565b818102929181159184041417156104d357565b81156129fc570490565b634e487b7160e01b600052601260045260246000fd5b15612a1957565b60405162461bcd60e51b815260206004820152600e60248201526d27379030b1ba34bb32903637b0b760911b6044820152606490fd5b15612a5657565b60405162461bcd60e51b815260206004820152600f60248201526e4c6f616e206e6f742061637469766560881b6044820152606490fd5b60015460081c6001600160a01b03163303612aa457565b63118cdaa760e01b6000523360045260246000fd5b600260005414612aca576002600055565b633ee5aeb560e01b60005260046000fd5b60ff60015416612ae757565b63d93c066560e01b60005260046000fd5b60018060a01b031660005260146020526040600020604051612b19816127fb565b606060038354938484526001810154602085015260028101546040850152015491015260175480158015612b68575b612b6157612b5c61297f92601654906129df565b6129f2565b5050600090565b5060165415612b48565b606491612b8c9161012c811015612b905750600b546129df565b0490565b6102581115612ba157600c546129df565b600d546129df56fe185daf617c465de5e0042f7aae1503b1a216ea8927cacf296e58b516e82afea8a264697066735822122090e286dc7bcd457ca90b3acb5a94cb5202ccabff0a2e68c14905dab04848da3e64736f6c634300081c0033","opcodes":"PUSH1 0x80 CALLVALUE PUSH2 0x156 JUMPI PUSH1 0x1F PUSH2 0x2D71 CODESIZE DUP2 SWAP1 SUB SWAP2 DUP3 ADD PUSH1 0x1F NOT AND DUP4 ADD SWAP2 PUSH1 0x1 PUSH1 0x1 PUSH1 0x40 SHL SUB DUP4 GT DUP5 DUP5 LT OR PUSH2 0x15B JUMPI DUP1 DUP5 SWAP3 PUSH1 0x20 SWAP5 PUSH1 0x40 MSTORE DUP4 CODECOPY DUP2 ADD SUB SLT PUSH2 0x156 JUMPI MLOAD PUSH1 0x1 PUSH1 0x1 PUSH1 0xA0 SHL SUB DUP2 AND SWAP1 DUP2 SWAP1 SUB PUSH2 0x156 JUMPI PUSH1 0x1 PUSH1 0x0 SSTORE CALLER ISZERO PUSH2 0x140 JUMPI PUSH1 0x1 DUP1 SLOAD PUSH2 0x100 PUSH1 0x1 PUSH1 0xA8 SHL SUB NOT DUP2 AND CALLER PUSH1 0x8 DUP2 DUP2 SHL PUSH2 0x100 PUSH1 0x1 PUSH1 0xA8 SHL SUB AND SWAP3 SWAP1 SWAP3 OR SWAP1 SWAP4 SSTORE PUSH1 0x40 MLOAD SWAP4 SWAP3 SWAP2 SWAP1 SHR PUSH1 0x1 PUSH1 0x1 PUSH1 0xA0 SHL SUB AND PUSH32 0x8BE0079C531659141344CD1FD0A4F28419497F9722A3DAAFE3B4186F6B6457E0 PUSH1 0x0 DUP1 LOG3 PUSH1 0x32 PUSH1 0x3 SSTORE PUSH1 0xC8 PUSH1 0x4 SSTORE PUSH2 0x1F4 PUSH1 0x5 SSTORE PUSH2 0x7D0 PUSH1 0x6 SSTORE PUSH7 0x2386F26FC10000 PUSH1 0x7 SSTORE PUSH3 0x15180 PUSH1 0x8 SSTORE PUSH3 0xED4E00 PUSH1 0x9 SSTORE PUSH3 0x278D00 PUSH1 0xA SSTORE PUSH8 0x16345785D8A0000 PUSH1 0xB SSTORE PUSH8 0x6F05B59D3B20000 PUSH1 0xC SSTORE PUSH8 0x1BC16D674EC80000 PUSH1 0xD SSTORE PUSH1 0x2 DUP1 SLOAD PUSH1 0x1 PUSH1 0x1 PUSH1 0xA0 SHL SUB NOT AND SWAP2 SWAP1 SWAP2 OR SWAP1 SSTORE PUSH1 0x11 DUP1 SLOAD PUSH1 0xFF PUSH1 0xA0 SHL NOT AND SWAP1 SSTORE PUSH2 0x2BFF SWAP1 DUP2 PUSH2 0x172 DUP3 CODECOPY RETURN JUMPDEST PUSH4 0x1E4FBDF7 PUSH1 0xE0 SHL PUSH1 0x0 MSTORE PUSH1 0x0 PUSH1 0x4 MSTORE PUSH1 0x24 PUSH1 0x0 REVERT JUMPDEST PUSH1 0x0 DUP1 REVERT JUMPDEST PUSH4 0x4E487B71 PUSH1 0xE0 SHL PUSH1 0x0 MSTORE PUSH1 0x41 PUSH1 0x4 MSTORE PUSH1 0x24 PUSH1 0x0 REVERT INVALID PUSH1 0x80 PUSH1 0x40 MSTORE PUSH1 0x4 CALLDATASIZE LT ISZERO PUSH2 0x12 JUMPI PUSH1 0x0 DUP1 REVERT JUMPDEST PUSH1 0x0 CALLDATALOAD PUSH1 0xE0 SHR DUP1 PUSH4 0xB337BE6 EQ PUSH2 0x2643 JUMPI DUP1 PUSH4 0xD0B2CA6 EQ PUSH2 0x2625 JUMPI DUP1 PUSH4 0xD8CB2FF EQ PUSH2 0x2607 JUMPI DUP1 PUSH4 0x16D5ED65 EQ PUSH2 0x24FF JUMPI DUP1 PUSH4 0x2131C68C EQ PUSH2 0x24D6 JUMPI DUP1 PUSH4 0x241109B1 EQ PUSH2 0x234D JUMPI DUP1 PUSH4 0x28FD10D7 EQ PUSH2 0x22F0 JUMPI DUP1 PUSH4 0x2A998690 EQ PUSH2 0x21FE JUMPI DUP1 PUSH4 0x30FC43ED EQ PUSH2 0x208C JUMPI DUP1 PUSH4 0x332D56D7 EQ PUSH2 0x1FEE JUMPI DUP1 PUSH4 0x34855D14 EQ PUSH2 0x1FD0 JUMPI DUP1 PUSH4 0x350FA3EC EQ PUSH2 0x1DFA JUMPI DUP1 PUSH4 0x35981FD8 EQ PUSH2 0x1C6C JUMPI DUP1 PUSH4 0x3716963D EQ PUSH2 0x1AD6 JUMPI DUP1 PUSH4 0x39F64C6C EQ PUSH2 0x1AB0 JUMPI DUP1 PUSH4 0x3A28D680 EQ PUSH2 0x1A92 JUMPI DUP1 PUSH4 0x3A701A36 EQ PUSH2 0x1A74 JUMPI DUP1 PUSH4 0x3F4BA83A EQ PUSH2 0x1A0B JUMPI DUP1 PUSH4 0x42E3E4F7 EQ PUSH2 0x19A3 JUMPI DUP1 PUSH4 0x474F23E8 EQ PUSH2 0x1985 JUMPI DUP1 PUSH4 0x508903BF EQ PUSH2 0x176C JUMPI DUP1 PUSH4 0x5C975ABB EQ PUSH2 0x1749 JUMPI DUP1 PUSH4 0x6010BA64 EQ PUSH2 0x1635 JUMPI DUP1 PUSH4 0x68B0E070 EQ PUSH2 0x14E9 JUMPI DUP1 PUSH4 0x6F474AB0 EQ PUSH2 0x14CB JUMPI DUP1 PUSH4 0x715018A6 EQ PUSH2 0x146A JUMPI DUP1 PUSH4 0x74C8D377 EQ PUSH2 0x144D JUMPI DUP1 PUSH4 0x8456CB59 EQ PUSH2 0x13F4 JUMPI DUP1 PUSH4 0x89D99A05 EQ PUSH2 0x13D6 JUMPI DUP1 PUSH4 0x8DA5CB5B EQ PUSH2 0x13A9 JUMPI DUP1 PUSH4 0x9549E682 EQ PUSH2 0x1201 JUMPI DUP1 PUSH4 0x96FA212F EQ PUSH2 0x11E3 JUMPI DUP1 PUSH4 0x987EE156 EQ PUSH2 0x10CB JUMPI DUP1 PUSH4 0x9A70327D EQ PUSH2 0x10AD JUMPI DUP1 PUSH4 0x9AF81969 EQ PUSH2 0x106E JUMPI DUP1 PUSH4 0x9C847F74 EQ PUSH2 0x1050 JUMPI DUP1 PUSH4 0xA91A36E9 EQ PUSH2 0x1034 JUMPI DUP1 PUSH4 0xA9A58578 EQ PUSH2 0x1016 JUMPI DUP1 PUSH4 0xAA452FA6 EQ PUSH2 0xABA JUMPI DUP1 PUSH4 0xAAACA558 EQ PUSH2 0xA91 JUMPI DUP1 PUSH4 0xAB19F095 EQ PUSH2 0xA14 JUMPI DUP1 PUSH4 0xAC03411D EQ PUSH2 0x9F6 JUMPI DUP1 PUSH4 0xB3402BED EQ PUSH2 0x9D8 JUMPI DUP1 PUSH4 0xBA649839 EQ PUSH2 0x93E JUMPI DUP1 PUSH4 0xBBB85188 EQ PUSH2 0x8B0 JUMPI DUP1 PUSH4 0xBE81C4D4 EQ PUSH2 0x6B2 JUMPI DUP1 PUSH4 0xDC63AF41 EQ PUSH2 0x694 JUMPI DUP1 PUSH4 0xE1493C23 EQ PUSH2 0x676 JUMPI DUP1 PUSH4 0xE673A15C EQ PUSH2 0x658 JUMPI DUP1 PUSH4 0xE8F00331 EQ PUSH2 0x63A JUMPI DUP1 PUSH4 0xEFC887E6 EQ PUSH2 0x615 JUMPI DUP1 PUSH4 0xF20B2BE0 EQ PUSH2 0x5F7 JUMPI DUP1 PUSH4 0xF2FDE38B EQ PUSH2 0x55A JUMPI PUSH4 0xF966ADE7 EQ PUSH2 0x26E JUMPI PUSH1 0x0 DUP1 REVERT JUMPDEST CALLVALUE PUSH2 0x555 JUMPI PUSH1 0x0 CALLDATASIZE PUSH1 0x3 NOT ADD SLT PUSH2 0x555 JUMPI PUSH2 0x287 PUSH2 0x2AB9 JUMP JUMPDEST PUSH2 0x28F PUSH2 0x2ADB JUMP JUMPDEST CALLER PUSH1 0x0 MSTORE PUSH1 0x12 PUSH1 0x20 MSTORE PUSH1 0x7 PUSH1 0x40 PUSH1 0x0 KECCAK256 PUSH1 0x6 DUP2 ADD DUP1 SLOAD ISZERO PUSH2 0x54C JUMPI JUMPDEST POP ADD PUSH2 0x2B7 DUP2 SLOAD PUSH2 0x271F JUMP JUMPDEST SWAP1 SSTORE CALLER PUSH1 0x0 MSTORE PUSH1 0x13 PUSH1 0x20 MSTORE PUSH1 0x40 PUSH1 0x0 KECCAK256 CALLER PUSH1 0x0 MSTORE PUSH1 0x12 PUSH1 0x20 MSTORE PUSH1 0x40 PUSH1 0x0 KECCAK256 SWAP1 PUSH1 0x4 DUP3 ADD SWAP2 PUSH2 0x2E8 PUSH1 0xFF DUP5 SLOAD AND PUSH2 0x2A12 JUMP JUMPDEST PUSH1 0x7 DUP3 ADD SWAP3 PUSH1 0xFF DUP5 SLOAD AND PUSH1 0x3 DUP2 LT ISZERO PUSH2 0x536 JUMPI PUSH2 0x305 SWAP1 ISZERO PUSH2 0x2A4F JUMP JUMPDEST PUSH1 0x1 DUP4 ADD SLOAD PUSH1 0x2 DUP1 DUP6 ADD SLOAD PUSH1 0x3 SWAP1 SWAP6 ADD SLOAD SWAP1 SLOAD PUSH1 0x40 MLOAD PUSH4 0x23B872DD PUSH1 0xE0 SHL DUP2 MSTORE CALLER PUSH1 0x4 DUP3 ADD MSTORE ADDRESS PUSH1 0x24 DUP3 ADD MSTORE PUSH1 0x44 DUP2 ADD SWAP3 SWAP1 SWAP3 MSTORE SWAP2 SWAP6 SWAP2 PUSH1 0x20 SWAP1 DUP3 SWAP1 PUSH1 0x64 SWAP1 DUP3 SWAP1 PUSH1 0x0 SWAP1 PUSH1 0x1 PUSH1 0x1 PUSH1 0xA0 SHL SUB AND GAS CALL DUP1 ISZERO PUSH2 0x52A JUMPI PUSH2 0x36C SWAP2 PUSH1 0x0 SWAP2 PUSH2 0x4FB JUMPI JUMPDEST POP PUSH2 0x2851 JUMP JUMPDEST PUSH1 0x1 PUSH1 0xFF NOT DUP3 SLOAD AND OR SWAP1 SSTORE PUSH1 0xFF NOT DUP2 SLOAD AND SWAP1 SSTORE PUSH1 0x2 DUP2 ADD PUSH2 0x38D DUP2 SLOAD PUSH2 0x271F JUMP JUMPDEST SWAP1 SSTORE PUSH2 0x39B DUP4 PUSH1 0xF SLOAD PUSH2 0x276F JUMP JUMPDEST PUSH1 0xF SSTORE PUSH2 0x3AA DUP3 PUSH1 0x16 SLOAD PUSH2 0x288F JUMP JUMPDEST PUSH1 0x16 SSTORE PUSH32 0x16E86F0348C2880F6112EC2396E38FEF8719FEC83B2969FB4718793642C39B2A PUSH1 0x20 PUSH1 0x40 MLOAD DUP5 DUP2 MSTORE LOG1 DUP1 SLOAD SWAP1 CALLER PUSH1 0x0 MSTORE PUSH1 0x12 PUSH1 0x20 MSTORE PUSH1 0x40 PUSH1 0x0 KECCAK256 PUSH1 0x3 SLOAD PUSH1 0x2 DUP3 ADD SLOAD PUSH1 0x5 DUP2 LT ISZERO PUSH2 0x4E9 JUMPI JUMPDEST PUSH1 0xA GT ISZERO PUSH2 0x4C6 JUMPI JUMPDEST DUP2 SLOAD PUSH2 0x3E8 PUSH2 0x412 DUP4 DUP4 PUSH2 0x288F JUMP JUMPDEST GT ISZERO PUSH2 0x4B5 JUMPI POP POP PUSH2 0x3E8 SWAP1 SSTORE JUMPDEST SLOAD PUSH1 0x40 MLOAD SWAP2 DUP3 MSTORE PUSH1 0x20 DUP3 ADD MSTORE PUSH1 0x60 PUSH1 0x40 DUP3 ADD MSTORE PUSH1 0x14 PUSH1 0x60 DUP3 ADD MSTORE PUSH20 0x14DD58D8D95CDCD99D5B081C995C185E5B595B9D PUSH1 0x62 SHL PUSH1 0x80 DUP3 ADD MSTORE PUSH32 0x61E207E3BAE74A62E24453D64A564D920B61F71211E255D085D78B5EB2DAF136 PUSH1 0xA0 CALLER SWAP3 LOG2 PUSH1 0x40 MLOAD SWAP2 DUP3 MSTORE PUSH1 0x20 DUP3 ADD MSTORE PUSH32 0xC7CE0A35F17B490DE2A317E7FECB2CAE86B1ABFFB03800B2F492823521382698 PUSH1 0x40 CALLER SWAP3 LOG2 PUSH1 0x1 PUSH1 0x0 SSTORE STOP JUMPDEST SWAP1 PUSH2 0x4BF SWAP2 PUSH2 0x288F JUMP JUMPDEST SWAP1 SSTORE PUSH2 0x420 JUMP JUMPDEST PUSH1 0xA DUP2 ADD DUP1 SWAP2 GT ISZERO PUSH2 0x403 JUMPI JUMPDEST PUSH4 0x4E487B71 PUSH1 0xE0 SHL PUSH1 0x0 MSTORE PUSH1 0x11 PUSH1 0x4 MSTORE PUSH1 0x24 PUSH1 0x0 REVERT JUMPDEST SWAP1 PUSH1 0x14 DUP2 ADD DUP1 SWAP2 GT PUSH2 0x4D3 JUMPI SWAP1 PUSH2 0x3FA JUMP JUMPDEST PUSH2 0x51D SWAP2 POP PUSH1 0x20 RETURNDATASIZE PUSH1 0x20 GT PUSH2 0x523 JUMPI JUMPDEST PUSH2 0x515 DUP2 DUP4 PUSH2 0x2817 JUMP JUMPDEST DUP2 ADD SWAP1 PUSH2 0x2839 JUMP JUMPDEST CODESIZE PUSH2 0x366 JUMP JUMPDEST POP RETURNDATASIZE PUSH2 0x50B JUMP JUMPDEST PUSH1 0x40 MLOAD RETURNDATASIZE PUSH1 0x0 DUP3 RETURNDATACOPY RETURNDATASIZE SWAP1 REVERT JUMPDEST PUSH4 0x4E487B71 PUSH1 0xE0 SHL PUSH1 0x0 MSTORE PUSH1 0x21 PUSH1 0x4 MSTORE PUSH1 0x24 PUSH1 0x0 REVERT JUMPDEST TIMESTAMP SWAP1 SSTORE CODESIZE PUSH2 0x2AB JUMP JUMPDEST PUSH1 0x0 DUP1 REVERT JUMPDEST CALLVALUE PUSH2 0x555 JUMPI PUSH1 0x20 CALLDATASIZE PUSH1 0x3 NOT ADD SLT PUSH2 0x555 JUMPI PUSH2 0x573 PUSH2 0x26A9 JUMP JUMPDEST PUSH2 0x57B PUSH2 0x2A8D JUMP JUMPDEST PUSH1 0x1 PUSH1 0x1 PUSH1 0xA0 SHL SUB DUP2 AND SWAP1 DUP2 ISZERO PUSH2 0x5E1 JUMPI PUSH1 0x1 DUP1 SLOAD PUSH2 0x100 PUSH1 0x1 PUSH1 0xA8 SHL SUB NOT DUP2 AND PUSH1 0x8 SWAP4 DUP5 SHL PUSH2 0x100 PUSH1 0x1 PUSH1 0xA8 SHL SUB AND OR SWAP1 SWAP2 SSTORE SWAP1 SHR PUSH1 0x1 PUSH1 0x1 PUSH1 0xA0 SHL SUB AND PUSH32 0x8BE0079C531659141344CD1FD0A4F28419497F9722A3DAAFE3B4186F6B6457E0 PUSH1 0x0 DUP1 LOG3 STOP JUMPDEST PUSH4 0x1E4FBDF7 PUSH1 0xE0 SHL PUSH1 0x0 MSTORE PUSH1 0x0 PUSH1 0x4 MSTORE PUSH1 0x24 PUSH1 0x0 REVERT JUMPDEST CALLVALUE PUSH2 0x555 JUMPI PUSH1 0x0 CALLDATASIZE PUSH1 0x3 NOT ADD SLT PUSH2 0x555 JUMPI PUSH1 0x20 PUSH1 0xA SLOAD PUSH1 0x40 MLOAD SWAP1 DUP2 MSTORE RETURN JUMPDEST CALLVALUE PUSH2 0x555 JUMPI PUSH1 0x0 CALLDATASIZE PUSH1 0x3 NOT ADD SLT PUSH2 0x555 JUMPI PUSH1 0x40 PUSH1 0x8 SLOAD PUSH1 0x9 SLOAD DUP3 MLOAD SWAP2 DUP3 MSTORE PUSH1 0x20 DUP3 ADD MSTORE RETURN JUMPDEST CALLVALUE PUSH2 0x555 JUMPI PUSH1 0x0 CALLDATASIZE PUSH1 0x3 NOT ADD SLT PUSH2 0x555 JUMPI PUSH1 0x20 PUSH1 0xE SLOAD PUSH1 0x40 MLOAD SWAP1 DUP2 MSTORE RETURN JUMPDEST CALLVALUE PUSH2 0x555 JUMPI PUSH1 0x0 CALLDATASIZE PUSH1 0x3 NOT ADD SLT PUSH2 0x555 JUMPI PUSH1 0x20 PUSH1 0x17 SLOAD PUSH1 0x40 MLOAD SWAP1 DUP2 MSTORE RETURN JUMPDEST CALLVALUE PUSH2 0x555 JUMPI PUSH1 0x0 CALLDATASIZE PUSH1 0x3 NOT ADD SLT PUSH2 0x555 JUMPI PUSH1 0x20 PUSH1 0x40 MLOAD PUSH3 0x93A80 DUP2 MSTORE RETURN JUMPDEST CALLVALUE PUSH2 0x555 JUMPI PUSH1 0x0 CALLDATASIZE PUSH1 0x3 NOT ADD SLT PUSH2 0x555 JUMPI PUSH1 0x20 PUSH1 0xF SLOAD PUSH1 0x40 MLOAD SWAP1 DUP2 MSTORE RETURN JUMPDEST CALLVALUE PUSH2 0x555 JUMPI PUSH1 0x20 CALLDATASIZE PUSH1 0x3 NOT ADD SLT PUSH2 0x555 JUMPI PUSH2 0x6CB PUSH2 0x26A9 JUMP JUMPDEST PUSH2 0x6D3 PUSH2 0x2AB9 JUMP JUMPDEST PUSH1 0x1 DUP1 PUSH1 0xA0 SHL SUB AND DUP1 PUSH1 0x0 MSTORE PUSH1 0x13 PUSH1 0x20 MSTORE PUSH1 0x40 PUSH1 0x0 KECCAK256 DUP2 PUSH1 0x0 MSTORE PUSH1 0x12 PUSH1 0x20 MSTORE PUSH1 0x40 PUSH1 0x0 KECCAK256 SWAP1 PUSH1 0x4 DUP3 ADD SWAP2 PUSH2 0x70A PUSH1 0xFF DUP5 SLOAD AND PUSH2 0x2A12 JUMP JUMPDEST PUSH1 0x7 DUP3 ADD SWAP3 PUSH1 0xFF DUP5 SLOAD AND PUSH1 0x3 DUP2 LT ISZERO PUSH2 0x536 JUMPI PUSH2 0x727 SWAP1 ISZERO PUSH2 0x2A4F JUMP JUMPDEST PUSH1 0x5 DUP4 ADD SLOAD TIMESTAMP GT ISZERO PUSH2 0x879 JUMPI PUSH1 0x1 DUP6 SWAP4 ADD SLOAD SWAP4 PUSH1 0x2 PUSH1 0xFF NOT DUP3 SLOAD AND OR SWAP1 SSTORE PUSH1 0xFF NOT DUP2 SLOAD AND SWAP1 SSTORE PUSH1 0x3 DUP2 ADD PUSH2 0x75B DUP2 SLOAD PUSH2 0x271F JUMP JUMPDEST SWAP1 SSTORE TIMESTAMP PUSH1 0x5 DUP3 ADD SSTORE PUSH2 0x76F DUP4 PUSH1 0xF SLOAD PUSH2 0x276F JUMP JUMPDEST PUSH1 0xF SSTORE PUSH2 0x77E DUP4 PUSH1 0xE SLOAD PUSH2 0x276F JUMP JUMPDEST PUSH1 0xE SSTORE PUSH2 0x78D DUP4 PUSH1 0x10 SLOAD PUSH2 0x288F JUMP JUMPDEST PUSH1 0x10 SSTORE DUP1 SLOAD SWAP1 DUP3 PUSH1 0x0 MSTORE PUSH1 0x12 PUSH1 0x20 MSTORE PUSH1 0x40 PUSH1 0x0 KECCAK256 PUSH1 0x4 SLOAD PUSH1 0x1 PUSH1 0x3 DUP4 ADD SLOAD GT PUSH2 0x85F JUMPI JUMPDEST PUSH32 0xBE253503C49F8FB02046DA3EF57BC2F5F881EB14BA5C2C26B54BF2FB4E7DB07 SWAP6 SWAP4 PUSH1 0x20 SWAP6 SWAP4 DUP4 DUP4 PUSH1 0xA0 SWAP5 PUSH32 0x61E207E3BAE74A62E24453D64A564D920B61F71211E255D085D78B5EB2DAF136 SWAP7 SLOAD GT PUSH1 0x0 EQ PUSH2 0x855 JUMPI PUSH2 0x813 SWAP1 DUP3 SLOAD PUSH2 0x276F JUMP JUMPDEST SWAP1 SSTORE JUMPDEST SLOAD PUSH1 0x40 MLOAD SWAP2 DUP3 MSTORE DUP7 DUP3 ADD MSTORE PUSH1 0x60 PUSH1 0x40 DUP3 ADD MSTORE PUSH1 0xE PUSH1 0x60 DUP3 ADD MSTORE PUSH14 0x131BD85B88191959985D5B1D1959 PUSH1 0x92 SHL PUSH1 0x80 DUP3 ADD MSTORE LOG2 PUSH1 0x40 MLOAD SWAP1 DUP2 MSTORE LOG2 PUSH1 0x1 PUSH1 0x0 SSTORE STOP JUMPDEST POP PUSH1 0x32 SWAP1 SSTORE PUSH2 0x816 JUMP JUMPDEST SWAP5 SWAP3 SWAP4 POP PUSH1 0x64 DUP6 ADD DUP1 SWAP6 GT PUSH2 0x4D3 JUMPI SWAP2 SWAP4 DUP6 SWAP4 SWAP3 SWAP1 PUSH2 0x7B1 JUMP JUMPDEST PUSH1 0x40 MLOAD PUSH3 0x461BCD PUSH1 0xE5 SHL DUP2 MSTORE PUSH1 0x20 PUSH1 0x4 DUP3 ADD MSTORE PUSH1 0xF PUSH1 0x24 DUP3 ADD MSTORE PUSH15 0x139BDD081BDD995C991D59481E595D PUSH1 0x8A SHL PUSH1 0x44 DUP3 ADD MSTORE PUSH1 0x64 SWAP1 REVERT JUMPDEST CALLVALUE PUSH2 0x555 JUMPI PUSH1 0x0 CALLDATASIZE PUSH1 0x3 NOT ADD SLT PUSH2 0x555 JUMPI PUSH1 0xE SLOAD PUSH1 0xF SLOAD SWAP1 DUP2 DUP2 GT ISZERO PUSH2 0x936 JUMPI PUSH2 0x8DA DUP3 DUP3 PUSH2 0x276F JUMP JUMPDEST SWAP2 JUMPDEST DUP2 ISZERO PUSH2 0x92C JUMPI PUSH2 0x2710 DUP2 MUL SWAP3 DUP2 DUP5 DIV PUSH2 0x2710 EQ DUP3 ISZERO OR ISZERO PUSH2 0x4D3 JUMPI PUSH2 0x903 DUP4 PUSH1 0xC0 SWAP6 PUSH2 0x29F2 JUMP JUMPDEST PUSH1 0x16 SLOAD SWAP2 PUSH1 0x10 SLOAD SWAP4 PUSH1 0x40 MLOAD SWAP6 DUP7 MSTORE PUSH1 0x20 DUP7 ADD MSTORE PUSH1 0x40 DUP6 ADD MSTORE PUSH1 0x60 DUP5 ADD MSTORE PUSH1 0x80 DUP4 ADD MSTORE PUSH1 0xA0 DUP3 ADD MSTORE RETURN JUMPDEST PUSH1 0xC0 SWAP3 PUSH1 0x0 PUSH2 0x903 JUMP JUMPDEST PUSH1 0x0 SWAP2 PUSH2 0x8DC JUMP JUMPDEST CALLVALUE PUSH2 0x555 JUMPI PUSH1 0x20 CALLDATASIZE PUSH1 0x3 NOT ADD SLT PUSH2 0x555 JUMPI PUSH1 0x1 PUSH1 0x1 PUSH1 0xA0 SHL SUB PUSH2 0x95F PUSH2 0x26A9 JUMP JUMPDEST AND PUSH1 0x0 MSTORE PUSH1 0x13 PUSH1 0x20 MSTORE PUSH2 0x100 PUSH1 0x40 PUSH1 0x0 KECCAK256 PUSH2 0x9D6 PUSH1 0x1 DUP1 PUSH1 0xA0 SHL SUB DUP3 SLOAD AND SWAP2 PUSH1 0x1 DUP2 ADD SLOAD SWAP1 PUSH1 0x2 DUP2 ADD SLOAD PUSH1 0x3 DUP3 ADD SLOAD PUSH1 0x4 DUP4 ADD SLOAD SWAP1 PUSH1 0x5 DUP5 ADD SLOAD SWAP3 PUSH1 0xFF PUSH1 0x7 PUSH1 0x6 DUP8 ADD SLOAD SWAP7 ADD SLOAD AND SWAP6 PUSH1 0x40 MLOAD SWAP9 DUP10 MSTORE PUSH1 0x20 DUP10 ADD MSTORE PUSH1 0x40 DUP9 ADD MSTORE PUSH1 0x60 DUP8 ADD MSTORE PUSH1 0x80 DUP7 ADD MSTORE PUSH1 0xA0 DUP6 ADD MSTORE PUSH1 0xC0 DUP5 ADD MSTORE PUSH1 0xE0 DUP4 ADD SWAP1 PUSH2 0x26D5 JUMP JUMPDEST RETURN JUMPDEST CALLVALUE PUSH2 0x555 JUMPI PUSH1 0x0 CALLDATASIZE PUSH1 0x3 NOT ADD SLT PUSH2 0x555 JUMPI PUSH1 0x20 PUSH1 0xC SLOAD PUSH1 0x40 MLOAD SWAP1 DUP2 MSTORE RETURN JUMPDEST CALLVALUE PUSH2 0x555 JUMPI PUSH1 0x0 CALLDATASIZE PUSH1 0x3 NOT ADD SLT PUSH2 0x555 JUMPI PUSH1 0x20 PUSH1 0x3 SLOAD PUSH1 0x40 MLOAD SWAP1 DUP2 MSTORE RETURN JUMPDEST CALLVALUE PUSH2 0x555 JUMPI PUSH1 0x20 CALLDATASIZE PUSH1 0x3 NOT ADD SLT PUSH2 0x555 JUMPI PUSH1 0x60 PUSH2 0xA2F PUSH2 0x26A9 JUMP JUMPDEST PUSH1 0x1 DUP1 PUSH1 0xA0 SHL SUB DUP2 AND PUSH1 0x0 MSTORE PUSH1 0x14 PUSH1 0x20 MSTORE PUSH1 0x40 PUSH1 0x0 KECCAK256 PUSH2 0xA7E PUSH1 0x40 MLOAD SWAP3 PUSH2 0xA55 DUP5 PUSH2 0x27FB JUMP JUMPDEST DUP3 SLOAD SWAP4 DUP5 DUP2 MSTORE PUSH1 0x1 DUP5 ADD SLOAD PUSH1 0x20 DUP3 ADD MSTORE DUP6 PUSH1 0x3 PUSH1 0x2 DUP7 ADD SLOAD SWAP6 DUP7 PUSH1 0x40 DUP6 ADD MSTORE ADD SLOAD SWAP2 ADD MSTORE PUSH2 0x2AF8 JUMP JUMPDEST SWAP1 PUSH1 0x40 MLOAD SWAP3 DUP4 MSTORE PUSH1 0x20 DUP4 ADD MSTORE PUSH1 0x40 DUP3 ADD MSTORE RETURN JUMPDEST CALLVALUE PUSH2 0x555 JUMPI PUSH1 0x0 CALLDATASIZE PUSH1 0x3 NOT ADD SLT PUSH2 0x555 JUMPI PUSH1 0x2 SLOAD PUSH1 0x40 MLOAD PUSH1 0x1 PUSH1 0x1 PUSH1 0xA0 SHL SUB SWAP1 SWAP2 AND DUP2 MSTORE PUSH1 0x20 SWAP1 RETURN JUMPDEST CALLVALUE PUSH2 0x555 JUMPI PUSH2 0xAC8 CALLDATASIZE PUSH2 0x26BF JUMP JUMPDEST PUSH2 0xAD0 PUSH2 0x2AB9 JUMP JUMPDEST PUSH2 0xAD8 PUSH2 0x2ADB JUMP JUMPDEST CALLER PUSH1 0x0 MSTORE PUSH1 0x12 PUSH1 0x20 MSTORE PUSH1 0x7 PUSH1 0x40 PUSH1 0x0 KECCAK256 PUSH1 0x6 DUP2 ADD DUP1 SLOAD ISZERO PUSH2 0x100D JUMPI JUMPDEST POP ADD PUSH2 0xB00 DUP2 SLOAD PUSH2 0x271F JUMP JUMPDEST SWAP1 SSTORE CALLER PUSH1 0x0 MSTORE PUSH1 0x12 PUSH1 0x20 MSTORE PUSH1 0x40 PUSH1 0x0 KECCAK256 SWAP1 DUP2 SLOAD ISZERO PUSH2 0x1004 JUMPI JUMPDEST PUSH1 0xFF PUSH1 0x4 DUP4 ADD SLOAD AND PUSH2 0xFBF JUMPI PUSH1 0x7 SLOAD DUP4 LT PUSH2 0xF83 JUMPI PUSH1 0x8 SLOAD DUP2 LT PUSH2 0xF49 JUMPI PUSH1 0x9 SLOAD DUP2 GT PUSH2 0xF10 JUMPI PUSH1 0x3 DUP3 ADD SLOAD PUSH2 0xEB4 JUMPI JUMPDEST PUSH2 0xB9A PUSH2 0xB56 CALLER PUSH2 0x28CC JUMP JUMPDEST PUSH1 0x40 PUSH1 0x20 DUP3 ADD SWAP5 DUP6 MLOAD DUP4 MLOAD DUP4 MLOAD SWAP2 DUP3 MSTORE PUSH1 0x20 DUP3 ADD MSTORE PUSH32 0x8EA4F9AEE84985EA9687E32C710743B7FDB33BCCD7C22F11E49355BAEA378D3D DUP4 CALLER SWAP3 LOG2 SLOAD SWAP2 ADD MLOAD SWAP1 PUSH2 0x2B72 JUMP JUMPDEST DUP4 GT PUSH2 0xE63 JUMPI PUSH1 0xE SLOAD PUSH1 0xF SLOAD SWAP3 PUSH2 0xBBC DUP6 PUSH2 0xBB5 DUP7 DUP6 PUSH2 0x276F JUMP JUMPDEST LT ISZERO PUSH2 0x277C JUMP JUMPDEST PUSH1 0x40 MLOAD DUP6 DUP2 MSTORE DUP4 PUSH1 0x20 DUP3 ADD MSTORE PUSH32 0x7468760830AFF5679376E50470C0493D21C88C599388E89B08C9512B3F3FBC7D PUSH1 0x40 CALLER SWAP3 LOG2 MLOAD CALLER PUSH1 0x0 MSTORE PUSH1 0x12 PUSH1 0x20 MSTORE PUSH1 0x40 PUSH1 0x0 KECCAK256 SWAP4 DUP5 SLOAD DUP5 PUSH1 0x5 SLOAD SWAP2 PUSH2 0x12C DUP2 LT PUSH1 0x0 EQ PUSH2 0xE3E JUMPI POP POP PUSH2 0x2BC DUP2 ADD DUP1 SWAP2 GT PUSH2 0x4D3 JUMPI DUP5 SWAP1 SWAP3 JUMPDEST DUP1 PUSH2 0xE1C JUMPI POP POP PUSH2 0x1F4 DUP3 ADD DUP1 SWAP3 GT PUSH2 0x4D3 JUMPI DUP4 SWAP2 SWAP3 JUMPDEST DUP1 PUSH2 0xDC9 JUMPI JUMPDEST POP POP PUSH2 0xC67 SWAP1 PUSH2 0xC62 PUSH5 0x496CEBB800 SWAP4 PUSH1 0x6 SLOAD DUP1 DUP3 GT PUSH2 0xDC1 JUMPI JUMPDEST POP DUP8 PUSH2 0x29DF JUMP JUMPDEST PUSH2 0x29DF JUMP JUMPDEST DIV PUSH1 0x1 PUSH2 0xC74 DUP3 DUP7 PUSH2 0x288F JUMP JUMPDEST SWAP4 CALLER PUSH1 0x0 MSTORE PUSH1 0x13 PUSH1 0x20 MSTORE PUSH1 0x40 PUSH1 0x0 KECCAK256 SWAP5 CALLER PUSH12 0xFFFFFFFFFFFFFFFFFFFFFFFF PUSH1 0xA0 SHL DUP8 SLOAD AND OR DUP7 SSTORE DUP7 DUP4 DUP8 ADD SSTORE DUP4 PUSH1 0x2 DUP8 ADD SSTORE PUSH1 0x3 DUP7 ADD SSTORE TIMESTAMP PUSH1 0x4 DUP7 ADD SSTORE PUSH1 0x7 PUSH2 0xCBD DUP6 TIMESTAMP PUSH2 0x288F JUMP JUMPDEST SWAP6 PUSH1 0x5 DUP2 ADD SWAP7 DUP8 SSTORE DUP6 PUSH1 0x6 DUP3 ADD SSTORE ADD PUSH1 0xFF NOT DUP2 SLOAD AND SWAP1 SSTORE PUSH1 0x4 DUP2 ADD DUP3 PUSH1 0xFF NOT DUP3 SLOAD AND OR SWAP1 SSTORE ADD PUSH2 0xCED DUP2 SLOAD PUSH2 0x271F JUMP JUMPDEST SWAP1 SSTORE PUSH2 0xCFB DUP5 PUSH1 0xF SLOAD PUSH2 0x288F JUMP JUMPDEST PUSH1 0xF SSTORE PUSH1 0x2 SLOAD PUSH1 0x40 MLOAD PUSH4 0xA9059CBB PUSH1 0xE0 SHL DUP2 MSTORE CALLER PUSH1 0x4 DUP3 ADD MSTORE PUSH1 0x24 DUP2 ADD DUP7 SWAP1 MSTORE SWAP4 SWAP1 PUSH1 0x20 SWAP1 DUP6 SWAP1 PUSH1 0x44 SWAP1 DUP3 SWAP1 PUSH1 0x0 SWAP1 PUSH1 0x1 PUSH1 0x1 PUSH1 0xA0 SHL SUB AND GAS CALL SWAP1 DUP2 ISZERO PUSH2 0x52A JUMPI PUSH2 0xD71 PUSH2 0xD98 SWAP3 PUSH31 0x95FF07C1A18F96017AE51E259CE136F0E9A29935F5F76A9A14D027196D0F1C SWAP7 PUSH1 0x0 SWAP2 PUSH2 0xDA2 JUMPI POP PUSH2 0x2851 JUMP JUMPDEST SLOAD SWAP3 PUSH1 0x40 MLOAD SWAP4 DUP5 SWAP4 CALLER SWAP8 DUP6 SWAP1 SWAP5 SWAP4 SWAP3 PUSH1 0x60 SWAP3 PUSH1 0x80 DUP4 ADD SWAP7 DUP4 MSTORE PUSH1 0x20 DUP4 ADD MSTORE PUSH1 0x40 DUP3 ADD MSTORE ADD MSTORE JUMP JUMPDEST SUB SWAP1 LOG2 PUSH1 0x1 PUSH1 0x0 SSTORE STOP JUMPDEST PUSH2 0xDBB SWAP2 POP PUSH1 0x20 RETURNDATASIZE PUSH1 0x20 GT PUSH2 0x523 JUMPI PUSH2 0x515 DUP2 DUP4 PUSH2 0x2817 JUMP JUMPDEST DUP9 PUSH2 0x366 JUMP JUMPDEST SWAP1 POP DUP9 PUSH2 0xC5B JUMP JUMPDEST SWAP1 SWAP2 POP PUSH1 0x64 DUP3 MUL SWAP2 DUP1 DUP4 DIV PUSH1 0x64 EQ SWAP1 ISZERO OR ISZERO PUSH2 0x4D3 JUMPI PUSH2 0xDE8 SWAP2 PUSH2 0x29F2 JUMP JUMPDEST DUP1 PUSH1 0x1 SHL SWAP1 DUP1 DUP3 DIV PUSH1 0x2 EQ SWAP1 ISZERO OR ISZERO PUSH2 0x4D3 JUMPI DUP3 PUSH2 0xC62 PUSH2 0xE12 PUSH2 0xC67 SWAP4 PUSH5 0x496CEBB800 SWAP6 PUSH2 0x288F JUMP JUMPDEST SWAP4 POP DUP2 SWAP3 POP PUSH2 0xC40 JUMP JUMPDEST SWAP3 SWAP4 SWAP1 SWAP3 PUSH1 0x0 NOT ADD PUSH2 0xC3A JUMPI SWAP3 SWAP2 POP PUSH1 0xC8 DUP3 ADD DUP1 SWAP3 GT PUSH2 0x4D3 JUMPI DUP4 SWAP2 SWAP3 PUSH2 0xC3A JUMP JUMPDEST PUSH2 0x258 SWAP1 SWAP5 SWAP2 SWAP3 SWAP5 LT ISZERO PUSH2 0xC23 JUMPI SWAP3 SWAP1 POP PUSH2 0x12C DUP2 ADD DUP1 SWAP2 GT PUSH2 0x4D3 JUMPI DUP5 SWAP1 SWAP3 PUSH2 0xC23 JUMP JUMPDEST PUSH1 0x40 MLOAD PUSH3 0x461BCD PUSH1 0xE5 SHL DUP2 MSTORE PUSH1 0x20 PUSH1 0x4 DUP3 ADD MSTORE PUSH1 0x23 PUSH1 0x24 DUP3 ADD MSTORE PUSH32 0x416D6F756E7420657863656564732074727573742F6D61747572697479206C69 PUSH1 0x44 DUP3 ADD MSTORE PUSH3 0x1B5A5D PUSH1 0xEA SHL PUSH1 0x64 DUP3 ADD MSTORE PUSH1 0x84 SWAP1 REVERT JUMPDEST PUSH2 0xEC5 PUSH1 0x5 DUP4 ADD SLOAD PUSH1 0xA SLOAD SWAP1 PUSH2 0x288F JUMP JUMPDEST TIMESTAMP GT PUSH2 0xB4A JUMPI PUSH1 0x40 MLOAD PUSH3 0x461BCD PUSH1 0xE5 SHL DUP2 MSTORE PUSH1 0x20 PUSH1 0x4 DUP3 ADD MSTORE PUSH1 0x1D PUSH1 0x24 DUP3 ADD MSTORE PUSH32 0x426C6F636B65642064756520746F20726563656E742064656661756C74000000 PUSH1 0x44 DUP3 ADD MSTORE PUSH1 0x64 SWAP1 REVERT JUMPDEST PUSH1 0x40 MLOAD PUSH3 0x461BCD PUSH1 0xE5 SHL DUP2 MSTORE PUSH1 0x20 PUSH1 0x4 DUP3 ADD MSTORE PUSH1 0x11 PUSH1 0x24 DUP3 ADD MSTORE PUSH17 0x4475726174696F6E20746F6F206C6F6E67 PUSH1 0x78 SHL PUSH1 0x44 DUP3 ADD MSTORE PUSH1 0x64 SWAP1 REVERT JUMPDEST PUSH1 0x40 MLOAD PUSH3 0x461BCD PUSH1 0xE5 SHL DUP2 MSTORE PUSH1 0x20 PUSH1 0x4 DUP3 ADD MSTORE PUSH1 0x12 PUSH1 0x24 DUP3 ADD MSTORE PUSH18 0x111D5C985D1A5BDB881D1BDBC81CDA1BDC9D PUSH1 0x72 SHL PUSH1 0x44 DUP3 ADD MSTORE PUSH1 0x64 SWAP1 REVERT JUMPDEST PUSH1 0x40 MLOAD PUSH3 0x461BCD PUSH1 0xE5 SHL DUP2 MSTORE PUSH1 0x20 PUSH1 0x4 DUP3 ADD MSTORE PUSH1 0x14 PUSH1 0x24 DUP3 ADD MSTORE PUSH20 0x416D6F756E742062656C6F77206D696E696D756D PUSH1 0x60 SHL PUSH1 0x44 DUP3 ADD MSTORE PUSH1 0x64 SWAP1 REVERT JUMPDEST PUSH1 0x40 MLOAD PUSH3 0x461BCD PUSH1 0xE5 SHL DUP2 MSTORE PUSH1 0x20 PUSH1 0x4 DUP3 ADD MSTORE PUSH1 0x17 PUSH1 0x24 DUP3 ADD MSTORE PUSH32 0x416C72656164792068617320616374697665206C6F616E000000000000000000 PUSH1 0x44 DUP3 ADD MSTORE PUSH1 0x64 SWAP1 REVERT JUMPDEST PUSH1 0x64 DUP3 SSTORE PUSH2 0xB19 JUMP JUMPDEST TIMESTAMP SWAP1 SSTORE DUP5 PUSH2 0xAF4 JUMP JUMPDEST CALLVALUE PUSH2 0x555 JUMPI PUSH1 0x0 CALLDATASIZE PUSH1 0x3 NOT ADD SLT PUSH2 0x555 JUMPI PUSH1 0x20 PUSH1 0xD SLOAD PUSH1 0x40 MLOAD SWAP1 DUP2 MSTORE RETURN JUMPDEST CALLVALUE PUSH2 0x555 JUMPI PUSH1 0x0 CALLDATASIZE PUSH1 0x3 NOT ADD SLT PUSH2 0x555 JUMPI PUSH1 0x20 PUSH1 0x40 MLOAD PUSH1 0x64 DUP2 MSTORE RETURN JUMPDEST CALLVALUE PUSH2 0x555 JUMPI PUSH1 0x0 CALLDATASIZE PUSH1 0x3 NOT ADD SLT PUSH2 0x555 JUMPI PUSH1 0x20 PUSH1 0x4 SLOAD PUSH1 0x40 MLOAD SWAP1 DUP2 MSTORE RETURN JUMPDEST CALLVALUE PUSH2 0x555 JUMPI PUSH1 0x20 CALLDATASIZE PUSH1 0x3 NOT ADD SLT PUSH2 0x555 JUMPI PUSH1 0x60 PUSH2 0x1091 PUSH2 0x108C PUSH2 0x26A9 JUMP JUMPDEST PUSH2 0x28CC JUMP JUMPDEST PUSH1 0x40 DUP1 MLOAD SWAP2 DUP1 MLOAD DUP4 MSTORE PUSH1 0x20 DUP2 ADD MLOAD PUSH1 0x20 DUP5 ADD MSTORE ADD MLOAD PUSH1 0x40 DUP3 ADD MSTORE RETURN JUMPDEST CALLVALUE PUSH2 0x555 JUMPI PUSH1 0x0 CALLDATASIZE PUSH1 0x3 NOT ADD SLT PUSH2 0x555 JUMPI PUSH1 0x20 PUSH1 0xB SLOAD PUSH1 0x40 MLOAD SWAP1 DUP2 MSTORE RETURN JUMPDEST CALLVALUE PUSH2 0x555 JUMPI PUSH1 0x20 CALLDATASIZE PUSH1 0x3 NOT ADD SLT PUSH2 0x555 JUMPI PUSH2 0x10E4 PUSH2 0x26A9 JUMP JUMPDEST PUSH1 0x1 DUP1 PUSH1 0xA0 SHL SUB DUP2 AND PUSH1 0x0 MSTORE PUSH1 0x12 PUSH1 0x20 MSTORE PUSH1 0x40 PUSH1 0x0 KECCAK256 SWAP1 PUSH2 0x11D9 PUSH1 0x40 MLOAD SWAP2 PUSH2 0x110B DUP4 PUSH2 0x27C8 JUMP JUMPDEST DUP4 SLOAD DUP4 MSTORE PUSH1 0x1 DUP5 ADD SLOAD SWAP3 PUSH1 0x20 DUP2 ADD SWAP4 DUP5 MSTORE PUSH1 0x2 DUP6 ADD SLOAD SWAP5 PUSH1 0x40 DUP3 ADD SWAP6 DUP7 MSTORE PUSH2 0x116D PUSH1 0x3 DUP3 ADD SLOAD SWAP4 PUSH1 0x60 DUP5 ADD SWAP5 DUP6 MSTORE PUSH1 0x7 PUSH1 0xFF PUSH1 0x4 DUP6 ADD SLOAD AND SWAP4 PUSH1 0x80 DUP7 ADD SWAP5 ISZERO ISZERO DUP6 MSTORE PUSH1 0x5 DUP2 ADD SLOAD PUSH1 0xA0 DUP8 ADD MSTORE PUSH1 0x6 DUP2 ADD SLOAD PUSH1 0xC0 DUP8 ADD MSTORE ADD SLOAD PUSH1 0xE0 DUP6 ADD MSTORE PUSH2 0x28CC JUMP JUMPDEST SWAP2 MLOAD DUP1 PUSH2 0x11DD JUMPI POP PUSH1 0x64 SWAP5 JUMPDEST MLOAD SWAP6 MLOAD SWAP3 MLOAD SWAP1 MLOAD ISZERO ISZERO DUP3 MLOAD SWAP2 PUSH2 0x1198 PUSH1 0x40 PUSH1 0x20 DUP7 ADD MLOAD SWAP6 ADD MLOAD DUP9 PUSH2 0x2B72 JUMP JUMPDEST SWAP5 PUSH1 0x40 MLOAD SWAP9 DUP10 SWAP9 DUP10 SWAP5 SWAP2 SWAP3 PUSH1 0xE0 SWAP7 SWAP4 SWAP10 SWAP9 SWAP8 SWAP5 SWAP2 SWAP10 PUSH2 0x100 DUP8 ADD SWAP11 DUP8 MSTORE PUSH1 0x20 DUP8 ADD MSTORE PUSH1 0x40 DUP7 ADD MSTORE PUSH1 0x60 DUP6 ADD MSTORE ISZERO ISZERO PUSH1 0x80 DUP5 ADD MSTORE PUSH1 0xA0 DUP4 ADD MSTORE PUSH1 0xC0 DUP3 ADD MSTORE ADD MSTORE JUMP JUMPDEST SUB SWAP1 RETURN JUMPDEST SWAP5 PUSH2 0x1179 JUMP JUMPDEST CALLVALUE PUSH2 0x555 JUMPI PUSH1 0x0 CALLDATASIZE PUSH1 0x3 NOT ADD SLT PUSH2 0x555 JUMPI PUSH1 0x20 PUSH1 0x7 SLOAD PUSH1 0x40 MLOAD SWAP1 DUP2 MSTORE RETURN JUMPDEST CALLVALUE PUSH2 0x555 JUMPI PUSH1 0x60 CALLDATASIZE PUSH1 0x3 NOT ADD SLT PUSH2 0x555 JUMPI PUSH1 0x4 CALLDATALOAD PUSH1 0x24 CALLDATALOAD PUSH1 0x44 CALLDATALOAD SWAP2 PUSH1 0x1 DUP1 PUSH1 0xA0 SHL SUB PUSH1 0x1 SLOAD PUSH1 0x8 SHR AND CALLER EQ DUP1 ISZERO PUSH2 0x1379 JUMPI JUMPDEST PUSH2 0x123C SWAP1 PUSH2 0x26E2 JUMP JUMPDEST DUP2 DUP2 LT DUP1 PUSH2 0x1370 JUMPI JUMPDEST ISZERO PUSH2 0x132B JUMPI PUSH1 0x0 DUP1 MLOAD PUSH1 0x20 PUSH2 0x2BAA DUP4 CODECOPY DUP2 MLOAD SWAP2 MSTORE PUSH1 0xA0 PUSH1 0xB SLOAD PUSH1 0x40 MLOAD SWAP1 PUSH1 0x60 DUP3 MSTORE PUSH1 0xF PUSH1 0x60 DUP4 ADD MSTORE PUSH15 0x1313D5D7D5149554D517D312535255 PUSH1 0x8A SHL PUSH1 0x80 DUP4 ADD MSTORE PUSH1 0x20 DUP3 ADD MSTORE DUP4 PUSH1 0x40 DUP3 ADD MSTORE LOG1 PUSH1 0x0 DUP1 MLOAD PUSH1 0x20 PUSH2 0x2BAA DUP4 CODECOPY DUP2 MLOAD SWAP2 MSTORE PUSH1 0xA0 PUSH1 0xC SLOAD PUSH1 0x40 MLOAD SWAP1 PUSH1 0x60 DUP3 MSTORE PUSH1 0xF PUSH1 0x60 DUP4 ADD MSTORE PUSH15 0x13515117D5149554D517D312535255 PUSH1 0x8A SHL PUSH1 0x80 DUP4 ADD MSTORE PUSH1 0x20 DUP3 ADD MSTORE DUP5 PUSH1 0x40 DUP3 ADD MSTORE LOG1 PUSH1 0x0 DUP1 MLOAD PUSH1 0x20 PUSH2 0x2BAA DUP4 CODECOPY DUP2 MLOAD SWAP2 MSTORE PUSH1 0xA0 PUSH1 0xD SLOAD PUSH1 0x40 MLOAD SWAP1 PUSH1 0x60 DUP3 MSTORE PUSH1 0x10 PUSH1 0x60 DUP4 ADD MSTORE PUSH16 0x121251D217D5149554D517D312535255 PUSH1 0x82 SHL PUSH1 0x80 DUP4 ADD MSTORE PUSH1 0x20 DUP3 ADD MSTORE DUP6 PUSH1 0x40 DUP3 ADD MSTORE LOG1 PUSH1 0xB SSTORE PUSH1 0xC SSTORE PUSH1 0xD SSTORE STOP JUMPDEST PUSH1 0x40 MLOAD PUSH3 0x461BCD PUSH1 0xE5 SHL DUP2 MSTORE PUSH1 0x20 PUSH1 0x4 DUP3 ADD MSTORE PUSH1 0x19 PUSH1 0x24 DUP3 ADD MSTORE PUSH32 0x496E76616C6964206C696D69742070726F6772657373696F6E00000000000000 PUSH1 0x44 DUP3 ADD MSTORE PUSH1 0x64 SWAP1 REVERT JUMPDEST POP DUP3 DUP3 LT PUSH2 0x1245 JUMP JUMPDEST POP PUSH2 0x123C PUSH1 0x11 SLOAD PUSH1 0xFF DUP2 PUSH1 0xA0 SHR AND SWAP1 DUP2 PUSH2 0x1396 JUMPI JUMPDEST POP SWAP1 POP PUSH2 0x1233 JUMP JUMPDEST PUSH1 0x1 PUSH1 0x1 PUSH1 0xA0 SHL SUB AND CALLER EQ SWAP1 POP DUP6 PUSH2 0x138E JUMP JUMPDEST CALLVALUE PUSH2 0x555 JUMPI PUSH1 0x0 CALLDATASIZE PUSH1 0x3 NOT ADD SLT PUSH2 0x555 JUMPI PUSH1 0x1 SLOAD PUSH1 0x40 MLOAD PUSH1 0x8 SWAP2 SWAP1 SWAP2 SHR PUSH1 0x1 PUSH1 0x1 PUSH1 0xA0 SHL SUB AND DUP2 MSTORE PUSH1 0x20 SWAP1 RETURN JUMPDEST CALLVALUE PUSH2 0x555 JUMPI PUSH1 0x0 CALLDATASIZE PUSH1 0x3 NOT ADD SLT PUSH2 0x555 JUMPI PUSH1 0x20 PUSH1 0x8 SLOAD PUSH1 0x40 MLOAD SWAP1 DUP2 MSTORE RETURN JUMPDEST CALLVALUE PUSH2 0x555 JUMPI PUSH1 0x0 CALLDATASIZE PUSH1 0x3 NOT ADD SLT PUSH2 0x555 JUMPI PUSH2 0x140D PUSH2 0x2A8D JUMP JUMPDEST PUSH2 0x1415 PUSH2 0x2ADB JUMP JUMPDEST PUSH1 0x1 PUSH1 0xFF NOT DUP2 SLOAD AND OR PUSH1 0x1 SSTORE PUSH32 0x62E78CEA01BEE320CD4E420270B5EA74000D11B0C9F74754EBDBFC544B05A258 PUSH1 0x20 PUSH1 0x40 MLOAD CALLER DUP2 MSTORE LOG1 STOP JUMPDEST CALLVALUE PUSH2 0x555 JUMPI PUSH1 0x0 CALLDATASIZE PUSH1 0x3 NOT ADD SLT PUSH2 0x555 JUMPI PUSH1 0x20 PUSH1 0x40 MLOAD PUSH2 0x3E8 DUP2 MSTORE RETURN JUMPDEST CALLVALUE PUSH2 0x555 JUMPI PUSH1 0x0 CALLDATASIZE PUSH1 0x3 NOT ADD SLT PUSH2 0x555 JUMPI PUSH2 0x1483 PUSH2 0x2A8D JUMP JUMPDEST PUSH1 0x1 DUP1 SLOAD PUSH2 0x100 PUSH1 0x1 PUSH1 0xA8 SHL SUB NOT DUP2 AND SWAP1 SWAP2 SSTORE PUSH1 0x0 SWAP1 PUSH1 0x8 SHR PUSH1 0x1 PUSH1 0x1 PUSH1 0xA0 SHL SUB AND PUSH32 0x8BE0079C531659141344CD1FD0A4F28419497F9722A3DAAFE3B4186F6B6457E0 DUP3 DUP1 LOG3 STOP JUMPDEST CALLVALUE PUSH2 0x555 JUMPI PUSH1 0x0 CALLDATASIZE PUSH1 0x3 NOT ADD SLT PUSH2 0x555 JUMPI PUSH1 0x20 PUSH1 0x40 MLOAD PUSH3 0x76A700 DUP2 MSTORE RETURN JUMPDEST CALLVALUE PUSH2 0x555 JUMPI PUSH1 0x20 CALLDATASIZE PUSH1 0x3 NOT ADD SLT PUSH2 0x555 JUMPI PUSH1 0x4 CALLDATALOAD PUSH2 0x1505 PUSH2 0x2AB9 JUMP JUMPDEST PUSH2 0x150D PUSH2 0x2ADB JUMP JUMPDEST CALLER PUSH1 0x0 MSTORE PUSH1 0x12 PUSH1 0x20 MSTORE PUSH1 0x7 PUSH1 0x40 PUSH1 0x0 KECCAK256 PUSH1 0x6 DUP2 ADD DUP1 SLOAD ISZERO PUSH2 0x162C JUMPI JUMPDEST POP ADD PUSH2 0x1535 DUP2 SLOAD PUSH2 0x271F JUMP JUMPDEST SWAP1 SSTORE PUSH2 0x1542 DUP2 ISZERO ISZERO PUSH2 0x272E JUMP JUMPDEST PUSH1 0x2 SLOAD PUSH1 0x40 MLOAD PUSH4 0x23B872DD PUSH1 0xE0 SHL DUP2 MSTORE CALLER PUSH1 0x4 DUP3 ADD MSTORE ADDRESS PUSH1 0x24 DUP3 ADD MSTORE PUSH1 0x44 DUP2 ADD DUP4 SWAP1 MSTORE SWAP1 PUSH1 0x20 SWAP1 DUP3 SWAP1 PUSH1 0x64 SWAP1 DUP3 SWAP1 PUSH1 0x0 SWAP1 PUSH1 0x1 PUSH1 0x1 PUSH1 0xA0 SHL SUB AND GAS CALL DUP1 ISZERO PUSH2 0x52A JUMPI PUSH2 0x1595 SWAP2 PUSH1 0x0 SWAP2 PUSH2 0x160D JUMPI POP PUSH2 0x2851 JUMP JUMPDEST CALLER PUSH1 0x0 MSTORE PUSH1 0x14 PUSH1 0x20 MSTORE PUSH1 0x40 PUSH1 0x0 KECCAK256 PUSH2 0x15AE DUP3 DUP3 SLOAD PUSH2 0x288F JUMP JUMPDEST DUP2 SSTORE TIMESTAMP PUSH1 0x1 DUP3 ADD SSTORE PUSH1 0x3 TIMESTAMP SWAP2 ADD SSTORE PUSH2 0x15C8 DUP2 PUSH1 0xE SLOAD PUSH2 0x288F JUMP JUMPDEST PUSH1 0xE SSTORE PUSH2 0x15D7 DUP2 PUSH1 0x17 SLOAD PUSH2 0x288F JUMP JUMPDEST PUSH1 0x17 SSTORE PUSH1 0x40 MLOAD SWAP1 DUP2 MSTORE PUSH32 0x83DCA925183A756559C22BF3BE2283FD2A73318F79C569B4C695660CBFDBE250 PUSH1 0x20 CALLER SWAP3 LOG2 PUSH1 0x1 PUSH1 0x0 SSTORE STOP JUMPDEST PUSH2 0x1626 SWAP2 POP PUSH1 0x20 RETURNDATASIZE PUSH1 0x20 GT PUSH2 0x523 JUMPI PUSH2 0x515 DUP2 DUP4 PUSH2 0x2817 JUMP JUMPDEST DUP4 PUSH2 0x366 JUMP JUMPDEST TIMESTAMP SWAP1 SSTORE DUP4 PUSH2 0x1529 JUMP JUMPDEST CALLVALUE PUSH2 0x555 JUMPI PUSH1 0x20 CALLDATASIZE PUSH1 0x3 NOT ADD SLT PUSH2 0x555 JUMPI PUSH1 0x1 PUSH1 0x1 PUSH1 0xA0 SHL SUB PUSH2 0x1656 PUSH2 0x26A9 JUMP JUMPDEST AND PUSH1 0x0 MSTORE PUSH1 0x13 PUSH1 0x20 MSTORE PUSH1 0x40 PUSH1 0x0 KECCAK256 PUSH1 0x40 MLOAD PUSH2 0x1670 DUP2 PUSH2 0x27C8 JUMP JUMPDEST PUSH1 0x1 DUP1 PUSH1 0xA0 SHL SUB DUP3 SLOAD AND DUP2 MSTORE PUSH1 0x1 DUP3 ADD SLOAD PUSH1 0x20 DUP3 ADD SWAP1 DUP2 MSTORE PUSH1 0x2 DUP4 ADD SLOAD SWAP2 PUSH1 0x40 DUP2 ADD SWAP3 DUP4 MSTORE PUSH1 0x3 DUP5 ADD SLOAD SWAP4 PUSH1 0x60 DUP3 ADD SWAP5 DUP6 MSTORE PUSH1 0x4 DUP2 ADD SLOAD PUSH1 0x80 DUP4 ADD MSTORE PUSH1 0x5 DUP2 ADD SLOAD SWAP1 PUSH1 0xA0 DUP4 ADD SWAP2 DUP3 MSTORE PUSH1 0xE0 PUSH1 0xFF PUSH1 0x7 PUSH1 0x6 DUP5 ADD SLOAD SWAP4 PUSH1 0xC0 DUP8 ADD SWAP5 DUP6 MSTORE ADD SLOAD AND SWAP4 ADD SWAP4 PUSH1 0x3 DUP5 LT ISZERO PUSH2 0x536 JUMPI DUP4 DUP6 MSTORE MLOAD SWAP5 MLOAD SWAP6 MLOAD SWAP6 DUP3 MLOAD SWAP2 MLOAD SWAP3 MLOAD TIMESTAMP GT SWAP5 DUP6 PUSH2 0x172B JUMPI JUMPDEST POP SWAP1 PUSH1 0xE0 SWAP7 PUSH2 0x1722 SWAP5 SWAP4 SWAP3 PUSH1 0x40 MLOAD SWAP8 DUP9 MSTORE PUSH1 0x20 DUP9 ADD MSTORE PUSH1 0x40 DUP8 ADD MSTORE PUSH1 0x60 DUP7 ADD MSTORE PUSH1 0x80 DUP6 ADD MSTORE PUSH1 0xA0 DUP5 ADD SWAP1 PUSH2 0x26D5 JUMP JUMPDEST ISZERO ISZERO PUSH1 0xC0 DUP3 ADD MSTORE RETURN JUMPDEST MLOAD SWAP1 SWAP5 POP SWAP3 SWAP2 SWAP1 PUSH1 0x3 DUP5 LT ISZERO PUSH2 0x536 JUMPI SWAP3 ISZERO SWAP4 SWAP2 SWAP3 SWAP1 SWAP2 PUSH1 0xE0 PUSH2 0x16F3 JUMP JUMPDEST CALLVALUE PUSH2 0x555 JUMPI PUSH1 0x0 CALLDATASIZE PUSH1 0x3 NOT ADD SLT PUSH2 0x555 JUMPI PUSH1 0x20 PUSH1 0xFF PUSH1 0x1 SLOAD AND PUSH1 0x40 MLOAD SWAP1 ISZERO ISZERO DUP2 MSTORE RETURN JUMPDEST CALLVALUE PUSH2 0x555 JUMPI PUSH1 0x20 CALLDATASIZE PUSH1 0x3 NOT ADD SLT PUSH2 0x555 JUMPI PUSH2 0x1785 PUSH2 0x26A9 JUMP JUMPDEST CALLER PUSH1 0x0 MSTORE PUSH1 0x12 PUSH1 0x20 MSTORE PUSH1 0x7 PUSH1 0x40 PUSH1 0x0 KECCAK256 PUSH1 0x6 DUP2 ADD DUP1 SLOAD ISZERO PUSH2 0x197C JUMPI JUMPDEST POP ADD PUSH2 0x17AD DUP2 SLOAD PUSH2 0x271F JUMP JUMPDEST SWAP1 SSTORE CALLER PUSH1 0x0 SWAP1 DUP2 MSTORE PUSH1 0x12 PUSH1 0x20 MSTORE PUSH1 0x40 DUP1 DUP3 KECCAK256 PUSH1 0x1 PUSH1 0x1 PUSH1 0xA0 SHL SUB SWAP1 SWAP4 AND DUP1 DUP4 MSTORE SWAP2 KECCAK256 DUP3 SLOAD SWAP2 SWAP3 SWAP1 SWAP2 PUSH2 0x1F4 GT PUSH2 0x1942 JUMPI PUSH1 0x2 DUP1 SWAP2 ADD SLOAD LT PUSH2 0x1908 JUMPI CALLER PUSH1 0x0 MSTORE PUSH1 0x15 PUSH1 0x20 MSTORE PUSH1 0x40 PUSH1 0x0 KECCAK256 DUP3 PUSH1 0x0 MSTORE PUSH1 0x20 MSTORE PUSH1 0xFF PUSH1 0x40 PUSH1 0x0 KECCAK256 SLOAD AND PUSH2 0x18D1 JUMPI CALLER DUP3 EQ PUSH2 0x1894 JUMPI CALLER PUSH1 0x0 MSTORE PUSH1 0x15 PUSH1 0x20 MSTORE PUSH1 0x40 PUSH1 0x0 KECCAK256 DUP3 PUSH1 0x0 MSTORE PUSH1 0x20 MSTORE PUSH1 0x40 PUSH1 0x0 KECCAK256 PUSH1 0x1 PUSH1 0xFF NOT DUP3 SLOAD AND OR SWAP1 SSTORE DUP1 SLOAD SWAP1 DUP2 ISZERO PUSH1 0x0 EQ PUSH2 0x1870 JUMPI PUSH1 0x96 SWAP2 POP SSTORE JUMPDEST CALLER PUSH32 0x4B2C9A3DB1E8916A20D447C88FEDCA2325DFFD42F7E881A889CB8D00CD032D78 PUSH1 0x0 DUP1 LOG3 STOP JUMPDEST PUSH2 0x12C DUP3 LT PUSH2 0x1881 JUMPI JUMPDEST POP POP PUSH2 0x1848 JUMP JUMPDEST PUSH1 0x1E DUP3 ADD DUP1 SWAP3 GT PUSH2 0x4D3 JUMPI SSTORE DUP2 DUP1 PUSH2 0x187A JUMP JUMPDEST PUSH1 0x40 MLOAD PUSH3 0x461BCD PUSH1 0xE5 SHL DUP2 MSTORE PUSH1 0x20 PUSH1 0x4 DUP3 ADD MSTORE PUSH1 0x15 PUSH1 0x24 DUP3 ADD MSTORE PUSH21 0x21B0B73737BA103B37BAB1B4103CB7BAB939B2B633 PUSH1 0x59 SHL PUSH1 0x44 DUP3 ADD MSTORE PUSH1 0x64 SWAP1 REVERT JUMPDEST PUSH1 0x40 MLOAD PUSH3 0x461BCD PUSH1 0xE5 SHL DUP2 MSTORE PUSH1 0x20 PUSH1 0x4 DUP3 ADD MSTORE PUSH1 0xF PUSH1 0x24 DUP3 ADD MSTORE PUSH15 0x105B1C9958591E481D9BDD58DA1959 PUSH1 0x8A SHL PUSH1 0x44 DUP3 ADD MSTORE PUSH1 0x64 SWAP1 REVERT JUMPDEST PUSH1 0x40 MLOAD PUSH3 0x461BCD PUSH1 0xE5 SHL DUP2 MSTORE PUSH1 0x20 PUSH1 0x4 DUP3 ADD MSTORE PUSH1 0x12 PUSH1 0x24 DUP3 ADD MSTORE PUSH18 0x4E65656420322B2072657061796D656E7473 PUSH1 0x70 SHL PUSH1 0x44 DUP3 ADD MSTORE PUSH1 0x64 SWAP1 REVERT JUMPDEST PUSH1 0x40 MLOAD PUSH3 0x461BCD PUSH1 0xE5 SHL DUP2 MSTORE PUSH1 0x20 PUSH1 0x4 DUP3 ADD MSTORE PUSH1 0x12 PUSH1 0x24 DUP3 ADD MSTORE PUSH18 0x125B9CDD59999A58DA595B9D081D1C9D5CDD PUSH1 0x72 SHL PUSH1 0x44 DUP3 ADD MSTORE PUSH1 0x64 SWAP1 REVERT JUMPDEST TIMESTAMP SWAP1 SSTORE DUP4 PUSH2 0x17A1 JUMP JUMPDEST CALLVALUE PUSH2 0x555 JUMPI PUSH1 0x0 CALLDATASIZE PUSH1 0x3 NOT ADD SLT PUSH2 0x555 JUMPI PUSH1 0x20 PUSH1 0x10 SLOAD PUSH1 0x40 MLOAD SWAP1 DUP2 MSTORE RETURN JUMPDEST CALLVALUE PUSH2 0x555 JUMPI PUSH1 0x0 CALLDATASIZE PUSH1 0x3 NOT ADD SLT PUSH2 0x555 JUMPI PUSH2 0x100 PUSH1 0x11 SLOAD PUSH1 0x3 SLOAD PUSH1 0x4 SLOAD PUSH1 0x5 SLOAD PUSH1 0x6 SLOAD SWAP1 PUSH1 0x8 SLOAD SWAP3 PUSH1 0x9 SLOAD SWAP5 PUSH1 0x40 MLOAD SWAP7 PUSH1 0xFF DUP2 PUSH1 0xA0 SHR AND ISZERO ISZERO DUP9 MSTORE PUSH1 0x1 DUP1 PUSH1 0xA0 SHL SUB AND PUSH1 0x20 DUP9 ADD MSTORE PUSH1 0x40 DUP8 ADD MSTORE PUSH1 0x60 DUP7 ADD MSTORE PUSH1 0x80 DUP6 ADD MSTORE PUSH1 0xA0 DUP5 ADD MSTORE PUSH1 0xC0 DUP4 ADD MSTORE PUSH1 0xE0 DUP3 ADD MSTORE RETURN JUMPDEST CALLVALUE PUSH2 0x555 JUMPI PUSH1 0x0 CALLDATASIZE PUSH1 0x3 NOT ADD SLT PUSH2 0x555 JUMPI PUSH2 0x1A24 PUSH2 0x2A8D JUMP JUMPDEST PUSH1 0x1 SLOAD PUSH1 0xFF DUP2 AND ISZERO PUSH2 0x1A63 JUMPI PUSH1 0xFF NOT AND PUSH1 0x1 SSTORE PUSH32 0x5DB9EE0A495BF2E6FF9C91A7834C1BA4FDD244A5E8AA4E537BD38AEAE4B073AA PUSH1 0x20 PUSH1 0x40 MLOAD CALLER DUP2 MSTORE LOG1 STOP JUMPDEST PUSH4 0x8DFC202B PUSH1 0xE0 SHL PUSH1 0x0 MSTORE PUSH1 0x4 PUSH1 0x0 REVERT JUMPDEST CALLVALUE PUSH2 0x555 JUMPI PUSH1 0x0 CALLDATASIZE PUSH1 0x3 NOT ADD SLT PUSH2 0x555 JUMPI PUSH1 0x20 PUSH1 0x16 SLOAD PUSH1 0x40 MLOAD SWAP1 DUP2 MSTORE RETURN JUMPDEST CALLVALUE PUSH2 0x555 JUMPI PUSH1 0x0 CALLDATASIZE PUSH1 0x3 NOT ADD SLT PUSH2 0x555 JUMPI PUSH1 0x20 PUSH1 0x40 MLOAD PUSH3 0x278D00 DUP2 MSTORE RETURN JUMPDEST CALLVALUE PUSH2 0x555 JUMPI PUSH1 0x0 CALLDATASIZE PUSH1 0x3 NOT ADD SLT PUSH2 0x555 JUMPI PUSH1 0x20 PUSH1 0xFF PUSH1 0x11 SLOAD PUSH1 0xA0 SHR AND PUSH1 0x40 MLOAD SWAP1 ISZERO ISZERO DUP2 MSTORE RETURN JUMPDEST CALLVALUE PUSH2 0x555 JUMPI PUSH2 0x1AE4 CALLDATASIZE PUSH2 0x26BF JUMP JUMPDEST SWAP1 PUSH1 0x1 DUP1 PUSH1 0xA0 SHL SUB PUSH1 0x1 SLOAD PUSH1 0x8 SHR AND CALLER EQ DUP1 ISZERO PUSH2 0x1C3C JUMPI JUMPDEST PUSH2 0x1B05 SWAP1 PUSH2 0x26E2 JUMP JUMPDEST DUP1 ISZERO ISZERO DUP1 PUSH2 0x1C31 JUMPI JUMPDEST ISZERO PUSH2 0x1BF9 JUMPI DUP2 ISZERO ISZERO DUP1 PUSH2 0x1BED JUMPI JUMPDEST ISZERO PUSH2 0x1BB5 JUMPI PUSH1 0x0 DUP1 MLOAD PUSH1 0x20 PUSH2 0x2BAA DUP4 CODECOPY DUP2 MLOAD SWAP2 MSTORE PUSH1 0xA0 PUSH1 0x3 SLOAD PUSH1 0x40 MLOAD SWAP1 PUSH1 0x60 DUP3 MSTORE PUSH1 0xE PUSH1 0x60 DUP4 ADD MSTORE PUSH14 0x54525553545F494E435245415345 PUSH1 0x90 SHL PUSH1 0x80 DUP4 ADD MSTORE PUSH1 0x20 DUP3 ADD MSTORE DUP4 PUSH1 0x40 DUP3 ADD MSTORE LOG1 PUSH1 0x0 DUP1 MLOAD PUSH1 0x20 PUSH2 0x2BAA DUP4 CODECOPY DUP2 MLOAD SWAP2 MSTORE PUSH1 0xA0 PUSH1 0x4 SLOAD PUSH1 0x40 MLOAD SWAP1 PUSH1 0x60 DUP3 MSTORE PUSH1 0xE PUSH1 0x60 DUP4 ADD MSTORE PUSH14 0x54525553545F4445435245415345 PUSH1 0x90 SHL PUSH1 0x80 DUP4 ADD MSTORE PUSH1 0x20 DUP3 ADD MSTORE DUP5 PUSH1 0x40 DUP3 ADD MSTORE LOG1 PUSH1 0x3 SSTORE PUSH1 0x4 SSTORE STOP JUMPDEST PUSH1 0x40 MLOAD PUSH3 0x461BCD PUSH1 0xE5 SHL DUP2 MSTORE PUSH1 0x20 PUSH1 0x4 DUP3 ADD MSTORE PUSH1 0x10 PUSH1 0x24 DUP3 ADD MSTORE PUSH16 0x496E76616C6964206465637265617365 PUSH1 0x80 SHL PUSH1 0x44 DUP3 ADD MSTORE PUSH1 0x64 SWAP1 REVERT JUMPDEST POP PUSH2 0x1F4 DUP3 GT ISZERO PUSH2 0x1B1C JUMP JUMPDEST PUSH1 0x40 MLOAD PUSH3 0x461BCD PUSH1 0xE5 SHL DUP2 MSTORE PUSH1 0x20 PUSH1 0x4 DUP3 ADD MSTORE PUSH1 0x10 PUSH1 0x24 DUP3 ADD MSTORE PUSH16 0x496E76616C696420696E637265617365 PUSH1 0x80 SHL PUSH1 0x44 DUP3 ADD MSTORE PUSH1 0x64 SWAP1 REVERT JUMPDEST POP PUSH1 0x64 DUP2 GT ISZERO PUSH2 0x1B0E JUMP JUMPDEST POP PUSH2 0x1B05 PUSH1 0x11 SLOAD PUSH1 0xFF DUP2 PUSH1 0xA0 SHR AND SWAP1 DUP2 PUSH2 0x1C59 JUMPI JUMPDEST POP SWAP1 POP PUSH2 0x1AFC JUMP JUMPDEST PUSH1 0x1 PUSH1 0x1 PUSH1 0xA0 SHL SUB AND CALLER EQ SWAP1 POP DUP5 PUSH2 0x1C51 JUMP JUMPDEST CALLVALUE PUSH2 0x555 JUMPI PUSH1 0x0 CALLDATASIZE PUSH1 0x3 NOT ADD SLT PUSH2 0x555 JUMPI PUSH2 0x1C85 PUSH2 0x2AB9 JUMP JUMPDEST PUSH2 0x1C8D PUSH2 0x2ADB JUMP JUMPDEST CALLER PUSH1 0x0 MSTORE PUSH1 0x12 PUSH1 0x20 MSTORE PUSH1 0x7 PUSH1 0x40 PUSH1 0x0 KECCAK256 PUSH1 0x6 DUP2 ADD DUP1 SLOAD ISZERO PUSH2 0x1DF1 JUMPI JUMPDEST POP ADD PUSH2 0x1CB5 DUP2 SLOAD PUSH2 0x271F JUMP JUMPDEST SWAP1 SSTORE CALLER PUSH1 0x0 MSTORE PUSH1 0x14 PUSH1 0x20 MSTORE PUSH1 0x40 PUSH1 0x0 KECCAK256 DUP1 SLOAD ISZERO PUSH2 0x1DBE JUMPI PUSH2 0x1CD5 CALLER PUSH2 0x2AF8 JUMP JUMPDEST SWAP1 DUP2 ISZERO PUSH2 0x1D82 JUMPI PUSH1 0x2 DUP2 ADD PUSH2 0x1CEB DUP4 DUP3 SLOAD PUSH2 0x288F JUMP JUMPDEST SWAP1 SSTORE PUSH1 0x3 TIMESTAMP SWAP2 ADD SSTORE PUSH2 0x1CFF DUP2 PUSH1 0x16 SLOAD PUSH2 0x276F JUMP JUMPDEST PUSH1 0x16 SSTORE PUSH1 0x2 SLOAD PUSH1 0x40 MLOAD PUSH4 0xA9059CBB PUSH1 0xE0 SHL DUP2 MSTORE CALLER PUSH1 0x4 DUP3 ADD MSTORE PUSH1 0x24 DUP2 ADD DUP4 SWAP1 MSTORE SWAP1 PUSH1 0x20 SWAP1 DUP3 SWAP1 PUSH1 0x44 SWAP1 DUP3 SWAP1 PUSH1 0x0 SWAP1 PUSH1 0x1 PUSH1 0x1 PUSH1 0xA0 SHL SUB AND GAS CALL DUP1 ISZERO PUSH2 0x52A JUMPI PUSH2 0x1D4F SWAP2 PUSH1 0x0 SWAP2 PUSH2 0x160D JUMPI POP PUSH2 0x2851 JUMP JUMPDEST PUSH1 0x40 MLOAD SWAP1 DUP2 MSTORE PUSH32 0xF9984C8173C4B4FF9CC454F76ED19C053F4490CCB224FD9DDFFEB4EF4BEA3530 PUSH1 0x20 CALLER SWAP3 LOG2 PUSH1 0x1 PUSH1 0x0 SSTORE STOP JUMPDEST PUSH1 0x40 MLOAD PUSH3 0x461BCD PUSH1 0xE5 SHL DUP2 MSTORE PUSH1 0x20 PUSH1 0x4 DUP3 ADD MSTORE PUSH1 0x14 PUSH1 0x24 DUP3 ADD MSTORE PUSH20 0x4E6F20696E74657265737420746F20636C61696D PUSH1 0x60 SHL PUSH1 0x44 DUP3 ADD MSTORE PUSH1 0x64 SWAP1 REVERT JUMPDEST PUSH1 0x40 MLOAD PUSH3 0x461BCD PUSH1 0xE5 SHL DUP2 MSTORE PUSH1 0x20 PUSH1 0x4 DUP3 ADD MSTORE PUSH1 0xB PUSH1 0x24 DUP3 ADD MSTORE PUSH11 0x4E6F206465706F73697473 PUSH1 0xA8 SHL PUSH1 0x44 DUP3 ADD MSTORE PUSH1 0x64 SWAP1 REVERT JUMPDEST TIMESTAMP SWAP1 SSTORE DUP3 PUSH2 0x1CA9 JUMP JUMPDEST CALLVALUE PUSH2 0x555 JUMPI PUSH2 0x1E08 CALLDATASIZE PUSH2 0x26BF JUMP JUMPDEST SWAP1 PUSH1 0x1 DUP1 PUSH1 0xA0 SHL SUB PUSH1 0x1 SLOAD PUSH1 0x8 SHR AND CALLER EQ DUP1 ISZERO PUSH2 0x1FA0 JUMPI JUMPDEST PUSH2 0x1E29 SWAP1 PUSH2 0x26E2 JUMP JUMPDEST PUSH3 0x15180 DUP2 LT PUSH2 0x1F62 JUMPI PUSH4 0x1E13380 DUP3 GT PUSH2 0x1F25 JUMPI DUP2 DUP2 LT ISZERO PUSH2 0x1EE0 JUMPI PUSH1 0x0 DUP1 MLOAD PUSH1 0x20 PUSH2 0x2BAA DUP4 CODECOPY DUP2 MLOAD SWAP2 MSTORE PUSH1 0xA0 PUSH1 0x8 SLOAD PUSH1 0x40 MLOAD SWAP1 PUSH1 0x60 DUP3 MSTORE PUSH1 0x11 PUSH1 0x60 DUP4 ADD MSTORE PUSH17 0x26A4A72FA627A0A72FA22AA920AA24A7A7 PUSH1 0x79 SHL PUSH1 0x80 DUP4 ADD MSTORE PUSH1 0x20 DUP3 ADD MSTORE DUP4 PUSH1 0x40 DUP3 ADD MSTORE LOG1 PUSH1 0x0 DUP1 MLOAD PUSH1 0x20 PUSH2 0x2BAA DUP4 CODECOPY DUP2 MLOAD SWAP2 MSTORE PUSH1 0xA0 PUSH1 0x9 SLOAD PUSH1 0x40 MLOAD SWAP1 PUSH1 0x60 DUP3 MSTORE PUSH1 0x11 PUSH1 0x60 DUP4 ADD MSTORE PUSH17 0x26A0AC2FA627A0A72FA22AA920AA24A7A7 PUSH1 0x79 SHL PUSH1 0x80 DUP4 ADD MSTORE PUSH1 0x20 DUP3 ADD MSTORE DUP5 PUSH1 0x40 DUP3 ADD MSTORE LOG1 PUSH1 0x8 SSTORE PUSH1 0x9 SSTORE STOP JUMPDEST PUSH1 0x40 MLOAD PUSH3 0x461BCD PUSH1 0xE5 SHL DUP2 MSTORE PUSH1 0x20 PUSH1 0x4 DUP3 ADD MSTORE PUSH1 0x19 PUSH1 0x24 DUP3 ADD MSTORE PUSH32 0x4D696E206D757374206265206C657373207468616E206D617800000000000000 PUSH1 0x44 DUP3 ADD MSTORE PUSH1 0x64 SWAP1 REVERT JUMPDEST PUSH1 0x40 MLOAD PUSH3 0x461BCD PUSH1 0xE5 SHL DUP2 MSTORE PUSH1 0x20 PUSH1 0x4 DUP3 ADD MSTORE PUSH1 0x15 PUSH1 0x24 DUP3 ADD MSTORE PUSH21 0x4D6178206475726174696F6E20746F6F206C6F6E67 PUSH1 0x58 SHL PUSH1 0x44 DUP3 ADD MSTORE PUSH1 0x64 SWAP1 REVERT JUMPDEST PUSH1 0x40 MLOAD PUSH3 0x461BCD PUSH1 0xE5 SHL DUP2 MSTORE PUSH1 0x20 PUSH1 0x4 DUP3 ADD MSTORE PUSH1 0x16 PUSH1 0x24 DUP3 ADD MSTORE PUSH22 0x135A5B88191D5C985D1A5BDB881D1BDBC81CDA1BDC9D PUSH1 0x52 SHL PUSH1 0x44 DUP3 ADD MSTORE PUSH1 0x64 SWAP1 REVERT JUMPDEST POP PUSH2 0x1E29 PUSH1 0x11 SLOAD PUSH1 0xFF DUP2 PUSH1 0xA0 SHR AND SWAP1 DUP2 PUSH2 0x1FBD JUMPI JUMPDEST POP SWAP1 POP PUSH2 0x1E20 JUMP JUMPDEST PUSH1 0x1 PUSH1 0x1 PUSH1 0xA0 SHL SUB AND CALLER EQ SWAP1 POP DUP5 PUSH2 0x1FB5 JUMP JUMPDEST CALLVALUE PUSH2 0x555 JUMPI PUSH1 0x0 CALLDATASIZE PUSH1 0x3 NOT ADD SLT PUSH2 0x555 JUMPI PUSH1 0x20 PUSH1 0x6 SLOAD PUSH1 0x40 MLOAD SWAP1 DUP2 MSTORE RETURN JUMPDEST CALLVALUE PUSH2 0x555 JUMPI PUSH1 0x20 CALLDATASIZE PUSH1 0x3 NOT ADD SLT PUSH2 0x555 JUMPI PUSH1 0x1 PUSH1 0x1 PUSH1 0xA0 SHL SUB PUSH2 0x200F PUSH2 0x26A9 JUMP JUMPDEST AND PUSH1 0x0 MSTORE PUSH1 0x12 PUSH1 0x20 MSTORE PUSH1 0x40 PUSH1 0x0 KECCAK256 DUP1 SLOAD PUSH2 0x11D9 PUSH1 0x1 DUP4 ADD SLOAD SWAP3 PUSH1 0x2 DUP2 ADD SLOAD SWAP1 PUSH1 0x3 DUP2 ADD SLOAD PUSH1 0xFF PUSH1 0x4 DUP4 ADD SLOAD AND PUSH1 0x5 DUP4 ADD SLOAD SWAP2 PUSH1 0x7 PUSH1 0x6 DUP6 ADD SLOAD SWAP5 ADD SLOAD SWAP5 PUSH1 0x40 MLOAD SWAP9 DUP10 SWAP9 DUP10 SWAP5 SWAP2 SWAP3 PUSH1 0xE0 SWAP7 SWAP4 SWAP10 SWAP9 SWAP8 SWAP5 SWAP2 SWAP10 PUSH2 0x100 DUP8 ADD SWAP11 DUP8 MSTORE PUSH1 0x20 DUP8 ADD MSTORE PUSH1 0x40 DUP7 ADD MSTORE PUSH1 0x60 DUP6 ADD MSTORE ISZERO ISZERO PUSH1 0x80 DUP5 ADD MSTORE PUSH1 0xA0 DUP4 ADD MSTORE PUSH1 0xC0 DUP3 ADD MSTORE ADD MSTORE JUMP JUMPDEST CALLVALUE PUSH2 0x555 JUMPI PUSH1 0x20 CALLDATASIZE PUSH1 0x3 NOT ADD SLT PUSH2 0x555 JUMPI PUSH1 0x4 CALLDATALOAD PUSH2 0x20A8 PUSH2 0x2AB9 JUMP JUMPDEST PUSH2 0x20B0 PUSH2 0x2ADB JUMP JUMPDEST CALLER PUSH1 0x0 MSTORE PUSH1 0x12 PUSH1 0x20 MSTORE PUSH1 0x7 PUSH1 0x40 PUSH1 0x0 KECCAK256 PUSH1 0x6 DUP2 ADD DUP1 SLOAD ISZERO PUSH2 0x21F5 JUMPI JUMPDEST POP ADD PUSH2 0x20D8 DUP2 SLOAD PUSH2 0x271F JUMP JUMPDEST SWAP1 SSTORE CALLER PUSH1 0x0 MSTORE PUSH1 0x14 PUSH1 0x20 MSTORE PUSH1 0x40 PUSH1 0x0 KECCAK256 PUSH2 0x20F3 DUP3 ISZERO ISZERO PUSH2 0x272E JUMP JUMPDEST DUP1 SLOAD DUP3 DUP2 LT PUSH2 0x21B9 JUMPI DUP3 PUSH2 0x2119 SWAP2 PUSH2 0x2114 DUP3 PUSH2 0xBB5 PUSH1 0xE SLOAD PUSH1 0xF SLOAD SWAP1 PUSH2 0x276F JUMP JUMPDEST PUSH2 0x276F JUMP JUMPDEST SWAP1 SSTORE PUSH2 0x2127 DUP2 PUSH1 0xE SLOAD PUSH2 0x276F JUMP JUMPDEST PUSH1 0xE SSTORE PUSH2 0x2136 DUP2 PUSH1 0x17 SLOAD PUSH2 0x276F JUMP JUMPDEST PUSH1 0x17 SSTORE PUSH1 0x2 SLOAD PUSH1 0x40 MLOAD PUSH4 0xA9059CBB PUSH1 0xE0 SHL DUP2 MSTORE CALLER PUSH1 0x4 DUP3 ADD MSTORE PUSH1 0x24 DUP2 ADD DUP4 SWAP1 MSTORE SWAP1 PUSH1 0x20 SWAP1 DUP3 SWAP1 PUSH1 0x44 SWAP1 DUP3 SWAP1 PUSH1 0x0 SWAP1 PUSH1 0x1 PUSH1 0x1 PUSH1 0xA0 SHL SUB AND GAS CALL DUP1 ISZERO PUSH2 0x52A JUMPI PUSH2 0x2186 SWAP2 PUSH1 0x0 SWAP2 PUSH2 0x160D JUMPI POP PUSH2 0x2851 JUMP JUMPDEST PUSH1 0x40 MLOAD SWAP1 DUP2 MSTORE PUSH32 0x5EB46CC574EF1ABDBD52310CE761ACBB5CBD48AF34B53E4F32083F205C8A977E PUSH1 0x20 CALLER SWAP3 LOG2 PUSH1 0x1 PUSH1 0x0 SSTORE STOP JUMPDEST PUSH1 0x40 MLOAD PUSH3 0x461BCD PUSH1 0xE5 SHL DUP2 MSTORE PUSH1 0x20 PUSH1 0x4 DUP3 ADD MSTORE PUSH1 0x14 PUSH1 0x24 DUP3 ADD MSTORE PUSH20 0x496E73756666696369656E742062616C616E6365 PUSH1 0x60 SHL PUSH1 0x44 DUP3 ADD MSTORE PUSH1 0x64 SWAP1 REVERT JUMPDEST TIMESTAMP SWAP1 SSTORE DUP4 PUSH2 0x20CC JUMP JUMPDEST CALLVALUE PUSH2 0x555 JUMPI PUSH1 0x20 CALLDATASIZE PUSH1 0x3 NOT ADD SLT PUSH2 0x555 JUMPI PUSH2 0x2217 PUSH2 0x26A9 JUMP JUMPDEST PUSH2 0x221F PUSH2 0x2A8D JUMP JUMPDEST PUSH1 0x11 SLOAD SWAP1 PUSH1 0xFF DUP3 PUSH1 0xA0 SHR AND PUSH2 0x22B5 JUMPI PUSH1 0x1 PUSH1 0x1 PUSH1 0xA0 SHL SUB AND SWAP1 DUP2 ISZERO PUSH2 0x227A JUMPI PUSH1 0x1 PUSH1 0x1 PUSH1 0xA8 SHL SUB NOT AND DUP2 OR PUSH1 0x1 PUSH1 0xA0 SHL OR PUSH1 0x11 SSTORE PUSH32 0xEBFDEC959BB9C54042F15AAC46777DE16490BB402BC0A654D878C4965F1165C2 PUSH1 0x0 DUP1 LOG2 STOP JUMPDEST PUSH1 0x40 MLOAD PUSH3 0x461BCD PUSH1 0xE5 SHL DUP2 MSTORE PUSH1 0x20 PUSH1 0x4 DUP3 ADD MSTORE PUSH1 0x13 PUSH1 0x24 DUP3 ADD MSTORE PUSH19 0x496E76616C69642044414F2061646472657373 PUSH1 0x68 SHL PUSH1 0x44 DUP3 ADD MSTORE PUSH1 0x64 SWAP1 REVERT JUMPDEST PUSH1 0x40 MLOAD PUSH3 0x461BCD PUSH1 0xE5 SHL DUP2 MSTORE PUSH1 0x20 PUSH1 0x4 DUP3 ADD MSTORE PUSH1 0x13 PUSH1 0x24 DUP3 ADD MSTORE PUSH19 0x111053C8185B1C9958591E48195B98589B1959 PUSH1 0x6A SHL PUSH1 0x44 DUP3 ADD MSTORE PUSH1 0x64 SWAP1 REVERT JUMPDEST CALLVALUE PUSH2 0x555 JUMPI PUSH1 0x20 CALLDATASIZE PUSH1 0x3 NOT ADD SLT PUSH2 0x555 JUMPI PUSH1 0x1 PUSH1 0x1 PUSH1 0xA0 SHL SUB PUSH2 0x2311 PUSH2 0x26A9 JUMP JUMPDEST AND PUSH1 0x0 SWAP1 DUP2 MSTORE PUSH1 0x14 PUSH1 0x20 SWAP1 DUP2 MSTORE PUSH1 0x40 SWAP2 DUP3 SWAP1 KECCAK256 DUP1 SLOAD PUSH1 0x1 DUP3 ADD SLOAD PUSH1 0x2 DUP4 ADD SLOAD PUSH1 0x3 SWAP1 SWAP4 ADD SLOAD DUP6 MLOAD SWAP3 DUP4 MSTORE SWAP4 DUP3 ADD MSTORE SWAP3 DUP4 ADD MSTORE PUSH1 0x60 DUP3 ADD MSTORE PUSH1 0x80 SWAP1 RETURN JUMPDEST CALLVALUE PUSH2 0x555 JUMPI PUSH2 0x235B CALLDATASIZE PUSH2 0x26BF JUMP JUMPDEST SWAP1 PUSH1 0x1 DUP1 PUSH1 0xA0 SHL SUB PUSH1 0x1 SLOAD PUSH1 0x8 SHR AND CALLER EQ DUP1 ISZERO PUSH2 0x24A6 JUMPI JUMPDEST PUSH2 0x237C SWAP1 PUSH2 0x26E2 JUMP JUMPDEST DUP2 DUP2 LT ISZERO PUSH2 0x2461 JUMPI PUSH2 0x1388 DUP3 GT PUSH2 0x2428 JUMPI PUSH1 0x0 DUP1 MLOAD PUSH1 0x20 PUSH2 0x2BAA DUP4 CODECOPY DUP2 MLOAD SWAP2 MSTORE PUSH1 0xA0 PUSH1 0x5 SLOAD PUSH1 0x40 MLOAD SWAP1 PUSH1 0x60 DUP3 MSTORE PUSH1 0x12 PUSH1 0x60 DUP4 ADD MSTORE PUSH18 0x424153455F494E5445524553545F52415445 PUSH1 0x70 SHL PUSH1 0x80 DUP4 ADD MSTORE PUSH1 0x20 DUP3 ADD MSTORE DUP4 PUSH1 0x40 DUP3 ADD MSTORE LOG1 PUSH1 0x0 DUP1 MLOAD PUSH1 0x20 PUSH2 0x2BAA DUP4 CODECOPY DUP2 MLOAD SWAP2 MSTORE PUSH1 0xA0 PUSH1 0x6 SLOAD PUSH1 0x40 MLOAD SWAP1 PUSH1 0x60 DUP3 MSTORE PUSH1 0x11 PUSH1 0x60 DUP4 ADD MSTORE PUSH17 0x4D41585F494E5445524553545F52415445 PUSH1 0x78 SHL PUSH1 0x80 DUP4 ADD MSTORE PUSH1 0x20 DUP3 ADD MSTORE DUP5 PUSH1 0x40 DUP3 ADD MSTORE LOG1 PUSH1 0x5 SSTORE PUSH1 0x6 SSTORE STOP JUMPDEST PUSH1 0x40 MLOAD PUSH3 0x461BCD PUSH1 0xE5 SHL DUP2 MSTORE PUSH1 0x20 PUSH1 0x4 DUP3 ADD MSTORE PUSH1 0x11 PUSH1 0x24 DUP3 ADD MSTORE PUSH17 0x9AC2F040E4C2E8CA40E8DEDE40D0D2CED PUSH1 0x7B SHL PUSH1 0x44 DUP3 ADD MSTORE PUSH1 0x64 SWAP1 REVERT JUMPDEST PUSH1 0x40 MLOAD PUSH3 0x461BCD PUSH1 0xE5 SHL DUP2 MSTORE PUSH1 0x20 PUSH1 0x4 DUP3 ADD MSTORE PUSH1 0x1A PUSH1 0x24 DUP3 ADD MSTORE PUSH32 0x42617365206D757374206265206C657373207468616E206D6178000000000000 PUSH1 0x44 DUP3 ADD MSTORE PUSH1 0x64 SWAP1 REVERT JUMPDEST POP PUSH2 0x237C PUSH1 0x11 SLOAD PUSH1 0xFF DUP2 PUSH1 0xA0 SHR AND SWAP1 DUP2 PUSH2 0x24C3 JUMPI JUMPDEST POP SWAP1 POP PUSH2 0x2373 JUMP JUMPDEST PUSH1 0x1 PUSH1 0x1 PUSH1 0xA0 SHL SUB AND CALLER EQ SWAP1 POP DUP5 PUSH2 0x24BB JUMP JUMPDEST CALLVALUE PUSH2 0x555 JUMPI PUSH1 0x0 CALLDATASIZE PUSH1 0x3 NOT ADD SLT PUSH2 0x555 JUMPI PUSH1 0x11 SLOAD PUSH1 0x40 MLOAD PUSH1 0x1 PUSH1 0x1 PUSH1 0xA0 SHL SUB SWAP1 SWAP2 AND DUP2 MSTORE PUSH1 0x20 SWAP1 RETURN JUMPDEST CALLVALUE PUSH2 0x555 JUMPI PUSH1 0x20 CALLDATASIZE PUSH1 0x3 NOT ADD SLT PUSH2 0x555 JUMPI PUSH1 0x4 CALLDATALOAD PUSH1 0x1 DUP1 PUSH1 0xA0 SHL SUB PUSH1 0x1 SLOAD PUSH1 0x8 SHR AND CALLER EQ DUP1 ISZERO PUSH2 0x25D7 JUMPI JUMPDEST PUSH2 0x2533 SWAP1 PUSH2 0x26E2 JUMP JUMPDEST PUSH3 0x93A80 DUP2 LT ISZERO DUP1 PUSH2 0x25CA JUMPI JUMPDEST ISZERO PUSH2 0x2592 JUMPI PUSH1 0x0 DUP1 MLOAD PUSH1 0x20 PUSH2 0x2BAA DUP4 CODECOPY DUP2 MLOAD SWAP2 MSTORE PUSH1 0xA0 PUSH1 0xA SLOAD PUSH1 0x40 MLOAD SWAP1 PUSH1 0x60 DUP3 MSTORE PUSH1 0x10 PUSH1 0x60 DUP4 ADD MSTORE PUSH16 0x2222A320AAA62A2FA1A7A7A62227ABA7 PUSH1 0x81 SHL PUSH1 0x80 DUP4 ADD MSTORE PUSH1 0x20 DUP3 ADD MSTORE DUP4 PUSH1 0x40 DUP3 ADD MSTORE LOG1 PUSH1 0xA SSTORE STOP JUMPDEST PUSH1 0x40 MLOAD PUSH3 0x461BCD PUSH1 0xE5 SHL DUP2 MSTORE PUSH1 0x20 PUSH1 0x4 DUP3 ADD MSTORE PUSH1 0x10 PUSH1 0x24 DUP3 ADD MSTORE PUSH16 0x24B73B30B634B21031B7B7B63237BBB7 PUSH1 0x81 SHL PUSH1 0x44 DUP3 ADD MSTORE PUSH1 0x64 SWAP1 REVERT JUMPDEST POP PUSH3 0xED4E00 DUP2 GT ISZERO PUSH2 0x2540 JUMP JUMPDEST POP PUSH2 0x2533 PUSH1 0x11 SLOAD PUSH1 0xFF DUP2 PUSH1 0xA0 SHR AND SWAP1 DUP2 PUSH2 0x25F4 JUMPI JUMPDEST POP SWAP1 POP PUSH2 0x252A JUMP JUMPDEST PUSH1 0x1 PUSH1 0x1 PUSH1 0xA0 SHL SUB AND CALLER EQ SWAP1 POP DUP4 PUSH2 0x25EC JUMP JUMPDEST CALLVALUE PUSH2 0x555 JUMPI PUSH1 0x0 CALLDATASIZE PUSH1 0x3 NOT ADD SLT PUSH2 0x555 JUMPI PUSH1 0x20 PUSH1 0x5 SLOAD PUSH1 0x40 MLOAD SWAP1 DUP2 MSTORE RETURN JUMPDEST CALLVALUE PUSH2 0x555 JUMPI PUSH1 0x0 CALLDATASIZE PUSH1 0x3 NOT ADD SLT PUSH2 0x555 JUMPI PUSH1 0x20 PUSH1 0x9 SLOAD PUSH1 0x40 MLOAD SWAP1 DUP2 MSTORE RETURN JUMPDEST CALLVALUE PUSH2 0x555 JUMPI PUSH1 0x40 CALLDATASIZE PUSH1 0x3 NOT ADD SLT PUSH2 0x555 JUMPI PUSH2 0x265C PUSH2 0x26A9 JUMP JUMPDEST PUSH1 0x24 CALLDATALOAD SWAP1 PUSH1 0x1 PUSH1 0x1 PUSH1 0xA0 SHL SUB DUP3 AND DUP3 SUB PUSH2 0x555 JUMPI PUSH1 0x1 DUP1 PUSH1 0xA0 SHL SUB AND PUSH1 0x0 MSTORE PUSH1 0x15 PUSH1 0x20 MSTORE PUSH1 0x40 PUSH1 0x0 KECCAK256 SWAP1 PUSH1 0x1 DUP1 PUSH1 0xA0 SHL SUB AND PUSH1 0x0 MSTORE PUSH1 0x20 MSTORE PUSH1 0x20 PUSH1 0xFF PUSH1 0x40 PUSH1 0x0 KECCAK256 SLOAD AND PUSH1 0x40 MLOAD SWAP1 ISZERO ISZERO DUP2 MSTORE RETURN JUMPDEST PUSH1 0x4 CALLDATALOAD SWAP1 PUSH1 0x1 PUSH1 0x1 PUSH1 0xA0 SHL SUB DUP3 AND DUP3 SUB PUSH2 0x555 JUMPI JUMP JUMPDEST PUSH1 0x40 SWAP1 PUSH1 0x3 NOT ADD SLT PUSH2 0x555 JUMPI PUSH1 0x4 CALLDATALOAD SWAP1 PUSH1 0x24 CALLDATALOAD SWAP1 JUMP JUMPDEST SWAP1 PUSH1 0x3 DUP3 LT ISZERO PUSH2 0x536 JUMPI MSTORE JUMP JUMPDEST ISZERO PUSH2 0x26E9 JUMPI JUMP JUMPDEST PUSH1 0x40 MLOAD PUSH3 0x461BCD PUSH1 0xE5 SHL DUP2 MSTORE PUSH1 0x20 PUSH1 0x4 DUP3 ADD MSTORE PUSH1 0xE PUSH1 0x24 DUP3 ADD MSTORE PUSH14 0x139BDD08185D5D1A1BDC9A5E9959 PUSH1 0x92 SHL PUSH1 0x44 DUP3 ADD MSTORE PUSH1 0x64 SWAP1 REVERT JUMPDEST PUSH1 0x0 NOT DUP2 EQ PUSH2 0x4D3 JUMPI PUSH1 0x1 ADD SWAP1 JUMP JUMPDEST ISZERO PUSH2 0x2735 JUMPI JUMP JUMPDEST PUSH1 0x40 MLOAD PUSH3 0x461BCD PUSH1 0xE5 SHL DUP2 MSTORE PUSH1 0x20 PUSH1 0x4 DUP3 ADD MSTORE PUSH1 0x12 PUSH1 0x24 DUP3 ADD MSTORE PUSH18 0x416D6F756E74206D757374206265203E203 PUSH1 0x74 SHL PUSH1 0x44 DUP3 ADD MSTORE PUSH1 0x64 SWAP1 REVERT JUMPDEST SWAP2 SWAP1 DUP3 SUB SWAP2 DUP3 GT PUSH2 0x4D3 JUMPI JUMP JUMPDEST ISZERO PUSH2 0x2783 JUMPI JUMP JUMPDEST PUSH1 0x40 MLOAD PUSH3 0x461BCD PUSH1 0xE5 SHL DUP2 MSTORE PUSH1 0x20 PUSH1 0x4 DUP3 ADD MSTORE PUSH1 0x1B PUSH1 0x24 DUP3 ADD MSTORE PUSH32 0x496E73756666696369656E7420706F6F6C206C69717569646974790000000000 PUSH1 0x44 DUP3 ADD MSTORE PUSH1 0x64 SWAP1 REVERT JUMPDEST PUSH2 0x100 DUP2 ADD SWAP1 DUP2 LT PUSH8 0xFFFFFFFFFFFFFFFF DUP3 GT OR PUSH2 0x27E5 JUMPI PUSH1 0x40 MSTORE JUMP JUMPDEST PUSH4 0x4E487B71 PUSH1 0xE0 SHL PUSH1 0x0 MSTORE PUSH1 0x41 PUSH1 0x4 MSTORE PUSH1 0x24 PUSH1 0x0 REVERT JUMPDEST PUSH1 0x80 DUP2 ADD SWAP1 DUP2 LT PUSH8 0xFFFFFFFFFFFFFFFF DUP3 GT OR PUSH2 0x27E5 JUMPI PUSH1 0x40 MSTORE JUMP JUMPDEST SWAP1 PUSH1 0x1F DUP1 NOT SWAP2 ADD AND DUP2 ADD SWAP1 DUP2 LT PUSH8 0xFFFFFFFFFFFFFFFF DUP3 GT OR PUSH2 0x27E5 JUMPI PUSH1 0x40 MSTORE JUMP JUMPDEST SWAP1 DUP2 PUSH1 0x20 SWAP2 SUB SLT PUSH2 0x555 JUMPI MLOAD DUP1 ISZERO ISZERO DUP2 SUB PUSH2 0x555 JUMPI SWAP1 JUMP JUMPDEST ISZERO PUSH2 0x2858 JUMPI JUMP JUMPDEST PUSH1 0x40 MLOAD PUSH3 0x461BCD PUSH1 0xE5 SHL DUP2 MSTORE PUSH1 0x20 PUSH1 0x4 DUP3 ADD MSTORE PUSH1 0xF PUSH1 0x24 DUP3 ADD MSTORE PUSH15 0x151C985B9CD9995C8819985A5B1959 PUSH1 0x8A SHL PUSH1 0x44 DUP3 ADD MSTORE PUSH1 0x64 SWAP1 REVERT JUMPDEST SWAP2 SWAP1 DUP3 ADD DUP1 SWAP3 GT PUSH2 0x4D3 JUMPI JUMP JUMPDEST PUSH1 0x40 MLOAD SWAP1 PUSH1 0x60 DUP3 ADD DUP3 DUP2 LT PUSH8 0xFFFFFFFFFFFFFFFF DUP3 GT OR PUSH2 0x27E5 JUMPI PUSH1 0x40 MSTORE PUSH1 0x0 PUSH1 0x40 DUP4 DUP3 DUP2 MSTORE DUP3 PUSH1 0x20 DUP3 ADD MSTORE ADD MSTORE JUMP JUMPDEST PUSH2 0x28D4 PUSH2 0x289C JUMP JUMPDEST POP PUSH1 0x1 DUP1 PUSH1 0xA0 SHL SUB AND PUSH1 0x0 MSTORE PUSH1 0x12 PUSH1 0x20 MSTORE PUSH1 0x40 PUSH1 0x0 KECCAK256 PUSH1 0x40 MLOAD PUSH2 0x28F6 DUP2 PUSH2 0x27C8 JUMP JUMPDEST DUP2 SLOAD DUP2 MSTORE PUSH1 0x1 DUP3 ADD SLOAD PUSH1 0x20 DUP3 ADD MSTORE PUSH1 0x2 DUP3 ADD SLOAD PUSH1 0x40 DUP3 ADD MSTORE PUSH1 0x3 DUP3 ADD SLOAD PUSH1 0x60 DUP3 ADD MSTORE PUSH1 0xFF PUSH1 0x4 DUP4 ADD SLOAD AND ISZERO ISZERO PUSH1 0x80 DUP3 ADD MSTORE PUSH1 0x5 DUP3 ADD SLOAD PUSH1 0xA0 DUP3 ADD MSTORE PUSH1 0xE0 PUSH1 0x7 PUSH1 0x6 DUP5 ADD SLOAD SWAP4 PUSH1 0xC0 DUP5 ADD SWAP5 DUP6 MSTORE ADD SLOAD SWAP2 ADD MSTORE PUSH2 0x294F PUSH2 0x289C JUMP JUMPDEST SWAP1 DUP1 MLOAD ISZERO PUSH2 0x29C9 JUMPI PUSH2 0x2962 SWAP1 MLOAD TIMESTAMP PUSH2 0x276F JUMP JUMPDEST DUP1 DUP3 MSTORE PUSH3 0x76A700 DUP2 LT PUSH2 0x2982 JUMPI POP PUSH1 0x3 PUSH1 0x20 DUP3 ADD MSTORE PUSH1 0x96 PUSH1 0x40 DUP3 ADD MSTORE JUMPDEST SWAP1 JUMP JUMPDEST PUSH3 0x278D00 DUP2 LT PUSH2 0x299E JUMPI POP PUSH1 0x2 PUSH1 0x20 DUP3 ADD MSTORE PUSH1 0x64 PUSH1 0x40 DUP3 ADD MSTORE SWAP1 JUMP JUMPDEST PUSH3 0x93A80 GT PUSH2 0x29B8 JUMPI PUSH1 0x1 PUSH1 0x20 DUP3 ADD MSTORE PUSH1 0x32 PUSH1 0x40 DUP3 ADD MSTORE SWAP1 JUMP JUMPDEST PUSH1 0x0 PUSH1 0x20 DUP3 ADD MSTORE PUSH1 0x14 PUSH1 0x40 DUP3 ADD MSTORE SWAP1 JUMP JUMPDEST POP PUSH1 0x0 DUP2 MSTORE PUSH1 0x0 PUSH1 0x20 DUP3 ADD MSTORE PUSH1 0x14 PUSH1 0x40 DUP3 ADD MSTORE SWAP1 JUMP JUMPDEST DUP2 DUP2 MUL SWAP3 SWAP2 DUP2 ISZERO SWAP2 DUP5 DIV EQ OR ISZERO PUSH2 0x4D3 JUMPI JUMP JUMPDEST DUP2 ISZERO PUSH2 0x29FC JUMPI DIV SWAP1 JUMP JUMPDEST PUSH4 0x4E487B71 PUSH1 0xE0 SHL PUSH1 0x0 MSTORE PUSH1 0x12 PUSH1 0x4 MSTORE PUSH1 0x24 PUSH1 0x0 REVERT JUMPDEST ISZERO PUSH2 0x2A19 JUMPI JUMP JUMPDEST PUSH1 0x40 MLOAD PUSH3 0x461BCD PUSH1 0xE5 SHL DUP2 MSTORE PUSH1 0x20 PUSH1 0x4 DUP3 ADD MSTORE PUSH1 0xE PUSH1 0x24 DUP3 ADD MSTORE PUSH14 0x27379030B1BA34BB32903637B0B7 PUSH1 0x91 SHL PUSH1 0x44 DUP3 ADD MSTORE PUSH1 0x64 SWAP1 REVERT JUMPDEST ISZERO PUSH2 0x2A56 JUMPI JUMP JUMPDEST PUSH1 0x40 MLOAD PUSH3 0x461BCD PUSH1 0xE5 SHL DUP2 MSTORE PUSH1 0x20 PUSH1 0x4 DUP3 ADD MSTORE PUSH1 0xF PUSH1 0x24 DUP3 ADD MSTORE PUSH15 0x4C6F616E206E6F7420616374697665 PUSH1 0x88 SHL PUSH1 0x44 DUP3 ADD MSTORE PUSH1 0x64 SWAP1 REVERT JUMPDEST PUSH1 0x1 SLOAD PUSH1 0x8 SHR PUSH1 0x1 PUSH1 0x1 PUSH1 0xA0 SHL SUB AND CALLER SUB PUSH2 0x2AA4 JUMPI JUMP JUMPDEST PUSH4 0x118CDAA7 PUSH1 0xE0 SHL PUSH1 0x0 MSTORE CALLER PUSH1 0x4 MSTORE PUSH1 0x24 PUSH1 0x0 REVERT JUMPDEST PUSH1 0x2 PUSH1 0x0 SLOAD EQ PUSH2 0x2ACA JUMPI PUSH1 0x2 PUSH1 0x0 SSTORE JUMP JUMPDEST PUSH4 0x3EE5AEB5 PUSH1 0xE0 SHL PUSH1 0x0 MSTORE PUSH1 0x4 PUSH1 0x0 REVERT JUMPDEST PUSH1 0xFF PUSH1 0x1 SLOAD AND PUSH2 0x2AE7 JUMPI JUMP JUMPDEST PUSH4 0xD93C0665 PUSH1 0xE0 SHL PUSH1 0x0 MSTORE PUSH1 0x4 PUSH1 0x0 REVERT JUMPDEST PUSH1 0x1 DUP1 PUSH1 0xA0 SHL SUB AND PUSH1 0x0 MSTORE PUSH1 0x14 PUSH1 0x20 MSTORE PUSH1 0x40 PUSH1 0x0 KECCAK256 PUSH1 0x40 MLOAD PUSH2 0x2B19 DUP2 PUSH2 0x27FB JUMP JUMPDEST PUSH1 0x60 PUSH1 0x3 DUP4 SLOAD SWAP4 DUP5 DUP5 MSTORE PUSH1 0x1 DUP2 ADD SLOAD PUSH1 0x20 DUP6 ADD MSTORE PUSH1 0x2 DUP2 ADD SLOAD PUSH1 0x40 DUP6 ADD MSTORE ADD SLOAD SWAP2 ADD MSTORE PUSH1 0x17 SLOAD DUP1 ISZERO DUP1 ISZERO PUSH2 0x2B68 JUMPI JUMPDEST PUSH2 0x2B61 JUMPI PUSH2 0x2B5C PUSH2 0x297F SWAP3 PUSH1 0x16 SLOAD SWAP1 PUSH2 0x29DF JUMP JUMPDEST PUSH2 0x29F2 JUMP JUMPDEST POP POP PUSH1 0x0 SWAP1 JUMP JUMPDEST POP PUSH1 0x16 SLOAD ISZERO PUSH2 0x2B48 JUMP JUMPDEST PUSH1 0x64 SWAP2 PUSH2 0x2B8C SWAP2 PUSH2 0x12C DUP2 LT ISZERO PUSH2 0x2B90 JUMPI POP PUSH1 0xB SLOAD PUSH2 0x29DF JUMP JUMPDEST DIV SWAP1 JUMP JUMPDEST PUSH2 0x258 GT ISZERO PUSH2 0x2BA1 JUMPI PUSH1 0xC SLOAD PUSH2 0x29DF JUMP JUMPDEST PUSH1 0xD SLOAD PUSH2 0x29DF JUMP INVALID XOR TSTORE 0xAF PUSH2 0x7C46 TSTORE 0xE5 0xE0 DIV 0x2F PUSH27 0xAE1503B1A216EA8927CACF296E58B516E82AFEA8A2646970667358 0x22 SLT KECCAK256 SWAP1 0xE2 DUP7 0xDC PUSH28 0xCD457CA90B3ACB5A94CB5202CCABFF0A2E68C14905DAB04848DA3E64 PUSH20 0x6F6C634300081C00330000000000000000000000 "},"methodIdentifiers":{"BASE_INTEREST_RATE()":"0d8cb2ff","DEFAULT_COOLDOWN_PERIOD()":"f20b2be0","HIGH_TRUST_LIMIT()":"a9a58578","INITIAL_TRUST_SCORE()":"a91a36e9","LOW_TRUST_LIMIT()":"9a70327d","MATURITY_LEVEL_1()":"e1493c23","MATURITY_LEVEL_2()":"3a28d680","MATURITY_LEVEL_3()":"6f474ab0","MAX_INTEREST_RATE()":"34855d14","MAX_LOAN_DURATION()":"0d0b2ca6","MAX_TRUST_SCORE()":"74c8d377","MED_TRUST_LIMIT()":"b3402bed","MIN_LOAN_AMOUNT()":"96fa212f","MIN_LOAN_DURATION()":"89d99a05","TRUST_DECREASE_ON_DEFAULT()":"9c847f74","TRUST_INCREASE_PER_REPAYMENT()":"ac03411d","activeLoans(address)":"ba649839","claimInterest()":"35981fd8","daoAddress()":"2131c68c","daoEnabled()":"39f64c6c","depositToPool(uint256)":"68b0e070","enableDAO(address)":"2a998690","getActiveLoan(address)":"6010ba64","getDAOInfo()":"42e3e4f7","getLenderInfo(address)":"ab19f095","getLoanDurationLimits()":"efc887e6","getPoolStats()":"bbb85188","getUserProfile(address)":"987ee156","getWalletMaturity(address)":"9af81969","lenders(address)":"28fd10d7","lendingToken()":"aaaca558","markDefault(address)":"be81c4d4","owner()":"8da5cb5b","pause()":"8456cb59","paused()":"5c975abb","renounceOwnership()":"715018a6","repayLoan()":"f966ade7","requestLoan(uint256,uint256)":"aa452fa6","totalActiveLoans()":"dc63af41","totalDefaultedAmount()":"474f23e8","totalInterestPool()":"3a701a36","totalLenderDeposits()":"e673a15c","totalPoolLiquidity()":"e8f00331","transferOwnership(address)":"f2fde38b","unpause()":"3f4ba83a","updateBorrowingLimits(uint256,uint256,uint256)":"9549e682","updateDefaultCooldown(uint256)":"16d5ed65","updateInterestRates(uint256,uint256)":"241109b1","updateLoanDurationLimits(uint256,uint256)":"350fa3ec","updateTrustParameters(uint256,uint256)":"3716963d","userProfiles(address)":"332d56d7","vouchForUser(address)":"508903bf","vouches(address,address)":"0b337be6","withdrawFromPool(uint256)":"30fc43ed"}}}}}