{
  "_format": "hh-sol-artifact-1",
  "contractName": "TFXToken",
  "sourceName": "contracts/tfxtoken.sol",
  "abi": [
    {
      "inputs": [],
      "stateMutability": "nonpayable",
      "type": "constructor"
    },
    {
      "inputs": [
        {
          "internalType": "address",
          "name": "spender",
          "type": "address"
        },
        {
          "internalType": "uint256",
          "name": "allowance",
          "type": "uint256"
        },
        {
          "internalType": "uint256",
          "name": "needed",
          "type": "uint256"
        }
      ],
      "name": "ERC20InsufficientAllowance",
      "type": "error"
    },
    {
      "inputs": [
        {
          "internalType": "address",
          "name": "sender",
          "type": "address"
        },
        {
          "internalType": "uint256",
          "name": "balance",
          "type": "uint256"
        },
        {
          "internalType": "uint256",
          "name": "needed",
          "type": "uint256"
        }
      ],
      "name": "ERC20InsufficientBalance",
      "type": "error"
    },
    {
      "inputs": [
        {
          "internalType": "address",
          "name": "approver",
          "type": "address"
        }
      ],
      "name": "ERC20InvalidApprover",
      "type": "error"
    },
    {
      "inputs": [
        {
          "internalType": "address",
          "name": "receiver",
          "type": "address"
        }
      ],
      "name": "ERC20InvalidReceiver",
      "type": "error"
    },
    {
      "inputs": [
        {
          "internalType": "address",
          "name": "sender",
          "type": "address"
        }
      ],
      "name": "ERC20InvalidSender",
      "type": "error"
    },
    {
      "inputs": [
        {
          "internalType": "address",
          "name": "spender",
          "type": "address"
        }
      ],
      "name": "ERC20InvalidSpender",
      "type": "error"
    },
    {
      "inputs": [
        {
          "internalType": "address",
          "name": "owner",
          "type": "address"
        }
      ],
      "name": "OwnableInvalidOwner",
      "type": "error"
    },
    {
      "inputs": [
        {
          "internalType": "address",
          "name": "account",
          "type": "address"
        }
      ],
      "name": "OwnableUnauthorizedAccount",
      "type": "error"
    },
    {
      "anonymous": false,
      "inputs": [
        {
          "indexed": true,
          "internalType": "address",
          "name": "owner",
          "type": "address"
        },
        {
          "indexed": true,
          "internalType": "address",
          "name": "spender",
          "type": "address"
        },
        {
          "indexed": false,
          "internalType": "uint256",
          "name": "value",
          "type": "uint256"
        }
      ],
      "name": "Approval",
      "type": "event"
    },
    {
      "anonymous": false,
      "inputs": [
        {
          "indexed": true,
          "internalType": "address",
          "name": "previousOwner",
          "type": "address"
        },
        {
          "indexed": true,
          "internalType": "address",
          "name": "newOwner",
          "type": "address"
        }
      ],
      "name": "OwnershipTransferred",
      "type": "event"
    },
    {
      "anonymous": false,
      "inputs": [
        {
          "indexed": true,
          "internalType": "address",
          "name": "from",
          "type": "address"
        },
        {
          "indexed": true,
          "internalType": "address",
          "name": "to",
          "type": "address"
        },
        {
          "indexed": false,
          "internalType": "uint256",
          "name": "value",
          "type": "uint256"
        }
      ],
      "name": "Transfer",
      "type": "event"
    },
    {
      "inputs": [],
      "name": "FAUCET_AMOUNT",
      "outputs": [
        {
          "internalType": "uint256",
          "name": "",
          "type": "uint256"
        }
      ],
      "stateMutability": "view",
      "type": "function"
    },
    {
      "inputs": [],
      "name": "FAUCET_COOLDOWN",
      "outputs": [
        {
          "internalType": "uint256",
          "name": "",
          "type": "uint256"
        }
      ],
      "stateMutability": "view",
      "type": "function"
    },
    {
      "inputs": [
        {
          "internalType": "address",
          "name": "owner",
          "type": "address"
        },
        {
          "internalType": "address",
          "name": "spender",
          "type": "address"
        }
      ],
      "name": "allowance",
      "outputs": [
        {
          "internalType": "uint256",
          "name": "",
          "type": "uint256"
        }
      ],
      "stateMutability": "view",
      "type": "function"
    },
    {
      "inputs": [
        {
          "internalType": "address",
          "name": "spender",
          "type": "address"
        },
        {
          "internalType": "uint256",
          "name": "value",
          "type": "uint256"
        }
      ],
      "name": "approve",
      "outputs": [
        {
          "internalType": "bool",
          "name": "",
          "type": "bool"
        }
      ],
      "stateMutability": "nonpayable",
      "type": "function"
    },
    {
      "inputs": [
        {
          "internalType": "address",
          "name": "account",
          "type": "address"
        }
      ],
      "name": "balanceOf",
      "outputs": [
        {
          "internalType": "uint256",
          "name": "",
          "type": "uint256"
        }
      ],
      "stateMutability": "view",
      "type": "function"
    },
    {
      "inputs": [
        {
          "internalType": "uint256",
          "name": "amount",
          "type": "uint256"
        }
      ],
      "name": "burn",
      "outputs": [],
      "stateMutability": "nonpayable",
      "type": "function"
    },
    {
      "inputs": [],
      "name": "claimTFX",
      "outputs": [],
      "stateMutability": "nonpayable",
      "type": "function"
    },
    {
      "inputs": [],
      "name": "decimals",
      "outputs": [
        {
          "internalType": "uint8",
          "name": "",
          "type": "uint8"
        }
      ],
      "stateMutability": "view",
      "type": "function"
    },
    {
      "inputs": [
        {
          "internalType": "address",
          "name": "",
          "type": "address"
        }
      ],
      "name": "lastClaimTime",
      "outputs": [
        {
          "internalType": "uint256",
          "name": "",
          "type": "uint256"
        }
      ],
      "stateMutability": "view",
      "type": "function"
    },
    {
      "inputs": [
        {
          "internalType": "address",
          "name": "to",
          "type": "address"
        },
        {
          "internalType": "uint256",
          "name": "amount",
          "type": "uint256"
        }
      ],
      "name": "mint",
      "outputs": [],
      "stateMutability": "nonpayable",
      "type": "function"
    },
    {
      "inputs": [],
      "name": "name",
      "outputs": [
        {
          "internalType": "string",
          "name": "",
          "type": "string"
        }
      ],
      "stateMutability": "view",
      "type": "function"
    },
    {
      "inputs": [],
      "name": "owner",
      "outputs": [
        {
          "internalType": "address",
          "name": "",
          "type": "address"
        }
      ],
      "stateMutability": "view",
      "type": "function"
    },
    {
      "inputs": [],
      "name": "renounceOwnership",
      "outputs": [],
      "stateMutability": "nonpayable",
      "type": "function"
    },
    {
      "inputs": [],
      "name": "symbol",
      "outputs": [
        {
          "internalType": "string",
          "name": "",
          "type": "string"
        }
      ],
      "stateMutability": "view",
      "type": "function"
    },
    {
      "inputs": [],
      "name": "totalSupply",
      "outputs": [
        {
          "internalType": "uint256",
          "name": "",
          "type": "uint256"
        }
      ],
      "stateMutability": "view",
      "type": "function"
    },
    {
      "inputs": [
        {
          "internalType": "address",
          "name": "to",
          "type": "address"
        },
        {
          "internalType": "uint256",
          "name": "value",
          "type": "uint256"
        }
      ],
      "name": "transfer",
      "outputs": [
        {
          "internalType": "bool",
          "name": "",
          "type": "bool"
        }
      ],
      "stateMutability": "nonpayable",
      "type": "function"
    },
    {
      "inputs": [
        {
          "internalType": "address",
          "name": "from",
          "type": "address"
        },
        {
          "internalType": "address",
          "name": "to",
          "type": "address"
        },
        {
          "internalType": "uint256",
          "name": "value",
          "type": "uint256"
        }
      ],
      "name": "transferFrom",
      "outputs": [
        {
          "internalType": "bool",
          "name": "",
          "type": "bool"
        }
      ],
      "stateMutability": "nonpayable",
      "type": "function"
    },
    {
      "inputs": [
        {
          "internalType": "address",
          "name": "newOwner",
          "type": "address"
        }
      ],
      "name": "transferOwnership",
      "outputs": [],
      "stateMutability": "nonpayable",
      "type": "function"
    }
  ],
  "bytecode": "0x60806040523461041357604080519081016001600160401b0381118282101761031e576040908152601082526f2a393ab9ba2337b933b2902a37b5b2b760811b602083015280519081016001600160401b0381118282101761031e5760405260038152620a88cb60eb1b602082015281516001600160401b03811161031e57600354600181811c91168015610409575b60208210146102fe57601f81116103a4575b50602092601f821160011461033f5792819293600092610334575b50508160011b916000199060031b1c1916176003555b80516001600160401b03811161031e57600454600181811c91168015610314575b60208210146102fe57601f8111610299575b50602091601f82116001146102355791819260009261022a575b50508160011b916000199060031b1c1916176004555b33156102145760058054336001600160a01b0319821681179092556001600160a01b03167f8be0079c531659141344cd1fd0a4f28419497f9722a3daafe3b4186f6b6457e0600080a3600060025469d3c21bcecceda100000081018091116102005760025550336000526000602052604060002069d3c21bcecceda1000000815401905560405169d3c21bcecceda1000000815260007fddf252ad1be2c89b69c2b068fc378daa952ba7f163c4a11628f55a4df523b3ef60203393a3604051610b1690816104198239f35b634e487b7160e01b82526011600452602482fd5b631e4fbdf760e01b600052600060045260246000fd5b01519050388061011f565b601f198216926004600052806000209160005b85811061028157508360019510610268575b505050811b01600455610135565b015160001960f88460031b161c1916905538808061025a565b91926020600181928685015181550194019201610248565b60046000527f8a35acfbc15ff81a39ae7d344fd709f28e8600b4aa8c65c6b64bfe7fe36bd19b601f830160051c810191602084106102f4575b601f0160051c01905b8181106102e85750610105565b600081556001016102db565b90915081906102d2565b634e487b7160e01b600052602260045260246000fd5b90607f16906100f3565b634e487b7160e01b600052604160045260246000fd5b0151905038806100bc565b601f198216936003600052806000209160005b86811061038c5750836001959610610373575b505050811b016003556100d2565b015160001960f88460031b161c19169055388080610365565b91926020600181928685015181550194019201610352565b60036000527fc2575a0e9e593c00f959f8c92f12db2869c3395a3b0502d05e2516446f71f85b601f830160051c810191602084106103ff575b601f0160051c01905b8181106103f357506100a1565b600081556001016103e6565b90915081906103dd565b90607f169061008f565b600080fdfe608080604052600436101561001357600080fd5b60003560e01c90816306fdde031461085d57508063095ea7b3146107d757806318160ddd146107b957806323b872dd146106cc578063313ce567146106b057806340c10f191461063a57806342966c68146105bc57806344ac09681461045a57806370a0823114610419578063715018a6146103bc57806376697640146103985780637d1d5d191461037a5780638da5cb5b1461035157806395d89b4114610230578063a9059cbb146101ff578063b77cf9c6146101c5578063dd62ed3e146101745763f2fde38b146100e557600080fd5b3461016f57602036600319011261016f576100fe610979565b6101066109d0565b6001600160a01b0316801561015957600580546001600160a01b0319811683179091556001600160a01b03167f8be0079c531659141344cd1fd0a4f28419497f9722a3daafe3b4186f6b6457e0600080a3005b631e4fbdf760e01b600052600060045260246000fd5b600080fd5b3461016f57604036600319011261016f5761018d610979565b61019561098f565b6001600160a01b039182166000908152600160209081526040808320949093168252928352819020549051908152f35b3461016f57602036600319011261016f576001600160a01b036101e6610979565b1660005260066020526020604060002054604051908152f35b3461016f57604036600319011261016f5761022561021b610979565b60243590336109a5565b602060405160018152f35b3461016f57600036600319011261016f5760405160006004548060011c90600181168015610347575b6020831081146103335782855290811561031757506001146102c0575b50819003601f01601f191681019067ffffffffffffffff8211818310176102aa576102a682918260405282610930565b0390f35b634e487b7160e01b600052604160045260246000fd5b905060046000527f8a35acfbc15ff81a39ae7d344fd709f28e8600b4aa8c65c6b64bfe7fe36bd19b6000905b82821061030157506020915082010182610276565b60018160209254838588010152019101906102ec565b90506020925060ff191682840152151560051b82010182610276565b634e487b7160e01b84526022600452602484fd5b91607f1691610259565b3461016f57600036600319011261016f576005546040516001600160a01b039091168152602090f35b3461016f57600036600319011261016f576020604051620151808152f35b3461016f57600036600319011261016f57602060405168056bc75e2d631000008152f35b3461016f57600036600319011261016f576103d56109d0565b600580546001600160a01b031981169091556000906001600160a01b03167f8be0079c531659141344cd1fd0a4f28419497f9722a3daafe3b4186f6b6457e08280a3005b3461016f57602036600319011261016f576020610452610437610979565b6001600160a01b031660009081526020819052604090205490565b604051908152f35b3461016f57600036600319011261016f5733600052600660205260406000205442034281116105a6576201518011610568576005546001600160a01b031660009081526020819052604090205468056bc75e2d6310000011610523573360009081526006602052604090204290556005546001600160a01b0316801561050d5733156104f75768056bc75e2d631000006104f59133906109f9565b005b63ec442f0560e01b600052600060045260246000fd5b634b637e8f60e11b600052600060045260246000fd5b60405162461bcd60e51b815260206004820152601a60248201527f4f776e65722068617320696e73756666696369656e74205446580000000000006044820152606490fd5b60405162461bcd60e51b815260206004820152601660248201527546617563657420636f6f6c646f776e2061637469766560501b6044820152606490fd5b634e487b7160e01b600052601160045260246000fd5b3461016f57602036600319011261016f57600435331561050d5760003381528060205260408120549180831061062157808293338452836020520360408320558060025403600255604051908152600080516020610ac183398151915260203392a380f35b60649263391434e360e21b835233600452602452604452fd5b3461016f57604036600319011261016f57610653610979565b6024359061065f6109d0565b6001600160a01b031680156104f757600254918083018093116105a657602092600255600080516020610ac1833981519152600093849284845283825260408420818154019055604051908152a380f35b3461016f57600036600319011261016f57602060405160128152f35b3461016f57606036600319011261016f576106e5610979565b6106ed61098f565b6001600160a01b038216600081815260016020908152604080832033845290915290205490926044359291600019811061072d575b5061022593506109a5565b83811061079c57841561078657331561077057610225946000526001602052604060002060018060a01b0333166000526020528360406000209103905584610722565b634a1406b160e11b600052600060045260246000fd5b63e602df0560e01b600052600060045260246000fd5b8390637dc7a0d960e11b6000523360045260245260445260646000fd5b3461016f57600036600319011261016f576020600254604051908152f35b3461016f57604036600319011261016f576107f0610979565b602435903315610786576001600160a01b031690811561077057336000526001602052604060002082600052602052806040600020556040519081527f8c5be1e5ebec7d5bd14f71427d1e84f3dd0314c0f7b2291e5b200ac8c7c3b92560203392a3602060405160018152f35b3461016f57600036600319011261016f5760006003548060011c90600181168015610926575b6020831081146103335782855290811561031757506001146108cf5750819003601f01601f191681019067ffffffffffffffff8211818310176102aa576102a682918260405282610930565b905060036000527fc2575a0e9e593c00f959f8c92f12db2869c3395a3b0502d05e2516446f71f85b6000905b82821061091057506020915082010182610276565b60018160209254838588010152019101906108fb565b91607f1691610883565b91909160208152825180602083015260005b818110610963575060409293506000838284010152601f8019910116010190565b8060208092870101516040828601015201610942565b600435906001600160a01b038216820361016f57565b602435906001600160a01b038216820361016f57565b91906001600160a01b0383161561050d576001600160a01b038116156104f7576109ce926109f9565b565b6005546001600160a01b031633036109e457565b63118cdaa760e01b6000523360045260246000fd5b6001600160a01b03169081610a65576002548381018091116105a657600080516020610ac1833981519152916020916002555b6001600160a01b03169384610a4d5780600254036002555b604051908152a3565b84600052600082526040600020818154019055610a44565b816000526000602052604060002054838110610aa357600080516020610ac18339815191529184602092856000526000845203604060002055610a2c565b91905063391434e360e21b60005260045260245260445260646000fdfeddf252ad1be2c89b69c2b068fc378daa952ba7f163c4a11628f55a4df523b3efa264697066735822122097bfcb1e24e3f70b67238cfa6ea603381892a6259e8d0d827925fcb825ddfedb64736f6c634300081c0033",
  "linkReferences": {},
  "deployedLinkReferences": {}
}