{
  "_format": "hh-sol-artifact-1",
  "contractName": "TrustForge",
  "sourceName": "contracts/trustforge.sol",
  "abi": [
    {
      "inputs": [
        {
          "internalType": "address",
          "name": "_lendingToken",
          "type": "address"
        }
      ],
      "stateMutability": "nonpayable",
      "type": "constructor"
    },
    {
      "inputs": [],
      "name": "EnforcedPause",
      "type": "error"
    },
    {
      "inputs": [],
      "name": "ExpectedPause",
      "type": "error"
    },
    {
      "inputs": [
        {
          "internalType": "address",
          "name": "owner",
          "type": "address"
        }
      ],
      "name": "OwnableInvalidOwner",
      "type": "error"
    },
    {
      "inputs": [
        {
          "internalType": "address",
          "name": "account",
          "type": "address"
        }
      ],
      "name": "OwnableUnauthorizedAccount",
      "type": "error"
    },
    {
      "inputs": [],
      "name": "ReentrancyGuardReentrantCall",
      "type": "error"
    },
    {
      "anonymous": false,
      "inputs": [
        {
          "indexed": true,
          "internalType": "address",
          "name": "daoAddress",
          "type": "address"
        }
      ],
      "name": "DAOEnabled",
      "type": "event"
    },
    {
      "anonymous": false,
      "inputs": [
        {
          "indexed": true,
          "internalType": "address",
          "name": "lender",
          "type": "address"
        },
        {
          "indexed": false,
          "internalType": "uint256",
          "name": "amount",
          "type": "uint256"
        }
      ],
      "name": "InterestClaimed",
      "type": "event"
    },
    {
      "anonymous": false,
      "inputs": [
        {
          "indexed": false,
          "internalType": "uint256",
          "name": "totalAmount",
          "type": "uint256"
        }
      ],
      "name": "InterestDistributed",
      "type": "event"
    },
    {
      "anonymous": false,
      "inputs": [
        {
          "indexed": true,
          "internalType": "address",
          "name": "lender",
          "type": "address"
        },
        {
          "indexed": false,
          "internalType": "uint256",
          "name": "amount",
          "type": "uint256"
        }
      ],
      "name": "LenderDeposited",
      "type": "event"
    },
    {
      "anonymous": false,
      "inputs": [
        {
          "indexed": true,
          "internalType": "address",
          "name": "lender",
          "type": "address"
        },
        {
          "indexed": false,
          "internalType": "uint256",
          "name": "amount",
          "type": "uint256"
        }
      ],
      "name": "LenderWithdrew",
      "type": "event"
    },
    {
      "anonymous": false,
      "inputs": [
        {
          "indexed": true,
          "internalType": "address",
          "name": "borrower",
          "type": "address"
        },
        {
          "indexed": false,
          "internalType": "uint256",
          "name": "lostAmount",
          "type": "uint256"
        }
      ],
      "name": "LoanDefaulted",
      "type": "event"
    },
    {
      "anonymous": false,
      "inputs": [
        {
          "indexed": true,
          "internalType": "address",
          "name": "borrower",
          "type": "address"
        },
        {
          "indexed": false,
          "internalType": "uint256",
          "name": "principal",
          "type": "uint256"
        },
        {
          "indexed": false,
          "internalType": "uint256",
          "name": "interest",
          "type": "uint256"
        },
        {
          "indexed": false,
          "internalType": "uint256",
          "name": "dueDate",
          "type": "uint256"
        },
        {
          "indexed": false,
          "internalType": "uint256",
          "name": "duration",
          "type": "uint256"
        }
      ],
      "name": "LoanIssued",
      "type": "event"
    },
    {
      "anonymous": false,
      "inputs": [
        {
          "indexed": true,
          "internalType": "address",
          "name": "borrower",
          "type": "address"
        },
        {
          "indexed": false,
          "internalType": "uint256",
          "name": "principal",
          "type": "uint256"
        },
        {
          "indexed": false,
          "internalType": "uint256",
          "name": "interest",
          "type": "uint256"
        }
      ],
      "name": "LoanRepaid",
      "type": "event"
    },
    {
      "anonymous": false,
      "inputs": [
        {
          "indexed": true,
          "internalType": "address",
          "name": "borrower",
          "type": "address"
        },
        {
          "indexed": false,
          "internalType": "uint256",
          "name": "amount",
          "type": "uint256"
        },
        {
          "indexed": false,
          "internalType": "uint256",
          "name": "duration",
          "type": "uint256"
        }
      ],
      "name": "LoanRequested",
      "type": "event"
    },
    {
      "anonymous": false,
      "inputs": [
        {
          "indexed": true,
          "internalType": "address",
          "name": "previousOwner",
          "type": "address"
        },
        {
          "indexed": true,
          "internalType": "address",
          "name": "newOwner",
          "type": "address"
        }
      ],
      "name": "OwnershipTransferred",
      "type": "event"
    },
    {
      "anonymous": false,
      "inputs": [
        {
          "indexed": false,
          "internalType": "string",
          "name": "parameter",
          "type": "string"
        },
        {
          "indexed": false,
          "internalType": "uint256",
          "name": "oldValue",
          "type": "uint256"
        },
        {
          "indexed": false,
          "internalType": "uint256",
          "name": "newValue",
          "type": "uint256"
        }
      ],
      "name": "ParameterUpdated",
      "type": "event"
    },
    {
      "anonymous": false,
      "inputs": [
        {
          "indexed": false,
          "internalType": "address",
          "name": "account",
          "type": "address"
        }
      ],
      "name": "Paused",
      "type": "event"
    },
    {
      "anonymous": false,
      "inputs": [
        {
          "indexed": true,
          "internalType": "address",
          "name": "user",
          "type": "address"
        },
        {
          "indexed": false,
          "internalType": "uint256",
          "name": "oldScore",
          "type": "uint256"
        },
        {
          "indexed": false,
          "internalType": "uint256",
          "name": "newScore",
          "type": "uint256"
        },
        {
          "indexed": false,
          "internalType": "string",
          "name": "reason",
          "type": "string"
        }
      ],
      "name": "TrustUpdated",
      "type": "event"
    },
    {
      "anonymous": false,
      "inputs": [
        {
          "indexed": false,
          "internalType": "address",
          "name": "account",
          "type": "address"
        }
      ],
      "name": "Unpaused",
      "type": "event"
    },
    {
      "anonymous": false,
      "inputs": [
        {
          "indexed": true,
          "internalType": "address",
          "name": "voucher",
          "type": "address"
        },
        {
          "indexed": true,
          "internalType": "address",
          "name": "vouchee",
          "type": "address"
        }
      ],
      "name": "VouchCreated",
      "type": "event"
    },
    {
      "anonymous": false,
      "inputs": [
        {
          "indexed": true,
          "internalType": "address",
          "name": "user",
          "type": "address"
        },
        {
          "indexed": false,
          "internalType": "uint256",
          "name": "maturityLevel",
          "type": "uint256"
        },
        {
          "indexed": false,
          "internalType": "uint256",
          "name": "walletAge",
          "type": "uint256"
        }
      ],
      "name": "WalletMaturityEvaluated",
      "type": "event"
    },
    {
      "inputs": [],
      "name": "BASE_INTEREST_RATE",
      "outputs": [
        {
          "internalType": "uint256",
          "name": "",
          "type": "uint256"
        }
      ],
      "stateMutability": "view",
      "type": "function"
    },
    {
      "inputs": [],
      "name": "DEFAULT_COOLDOWN_PERIOD",
      "outputs": [
        {
          "internalType": "uint256",
          "name": "",
          "type": "uint256"
        }
      ],
      "stateMutability": "view",
      "type": "function"
    },
    {
      "inputs": [],
      "name": "HIGH_TRUST_LIMIT",
      "outputs": [
        {
          "internalType": "uint256",
          "name": "",
          "type": "uint256"
        }
      ],
      "stateMutability": "view",
      "type": "function"
    },
    {
      "inputs": [],
      "name": "INITIAL_TRUST_SCORE",
      "outputs": [
        {
          "internalType": "uint256",
          "name": "",
          "type": "uint256"
        }
      ],
      "stateMutability": "view",
      "type": "function"
    },
    {
      "inputs": [],
      "name": "LOW_TRUST_LIMIT",
      "outputs": [
        {
          "internalType": "uint256",
          "name": "",
          "type": "uint256"
        }
      ],
      "stateMutability": "view",
      "type": "function"
    },
    {
      "inputs": [],
      "name": "MATURITY_LEVEL_1",
      "outputs": [
        {
          "internalType": "uint256",
          "name": "",
          "type": "uint256"
        }
      ],
      "stateMutability": "view",
      "type": "function"
    },
    {
      "inputs": [],
      "name": "MATURITY_LEVEL_2",
      "outputs": [
        {
          "internalType": "uint256",
          "name": "",
          "type": "uint256"
        }
      ],
      "stateMutability": "view",
      "type": "function"
    },
    {
      "inputs": [],
      "name": "MATURITY_LEVEL_3",
      "outputs": [
        {
          "internalType": "uint256",
          "name": "",
          "type": "uint256"
        }
      ],
      "stateMutability": "view",
      "type": "function"
    },
    {
      "inputs": [],
      "name": "MAX_INTEREST_RATE",
      "outputs": [
        {
          "internalType": "uint256",
          "name": "",
          "type": "uint256"
        }
      ],
      "stateMutability": "view",
      "type": "function"
    },
    {
      "inputs": [],
      "name": "MAX_LOAN_DURATION",
      "outputs": [
        {
          "internalType": "uint256",
          "name": "",
          "type": "uint256"
        }
      ],
      "stateMutability": "view",
      "type": "function"
    },
    {
      "inputs": [],
      "name": "MAX_TRUST_SCORE",
      "outputs": [
        {
          "internalType": "uint256",
          "name": "",
          "type": "uint256"
        }
      ],
      "stateMutability": "view",
      "type": "function"
    },
    {
      "inputs": [],
      "name": "MED_TRUST_LIMIT",
      "outputs": [
        {
          "internalType": "uint256",
          "name": "",
          "type": "uint256"
        }
      ],
      "stateMutability": "view",
      "type": "function"
    },
    {
      "inputs": [],
      "name": "MIN_LOAN_AMOUNT",
      "outputs": [
        {
          "internalType": "uint256",
          "name": "",
          "type": "uint256"
        }
      ],
      "stateMutability": "view",
      "type": "function"
    },
    {
      "inputs": [],
      "name": "MIN_LOAN_DURATION",
      "outputs": [
        {
          "internalType": "uint256",
          "name": "",
          "type": "uint256"
        }
      ],
      "stateMutability": "view",
      "type": "function"
    },
    {
      "inputs": [],
      "name": "TRUST_DECREASE_ON_DEFAULT",
      "outputs": [
        {
          "internalType": "uint256",
          "name": "",
          "type": "uint256"
        }
      ],
      "stateMutability": "view",
      "type": "function"
    },
    {
      "inputs": [],
      "name": "TRUST_INCREASE_PER_REPAYMENT",
      "outputs": [
        {
          "internalType": "uint256",
          "name": "",
          "type": "uint256"
        }
      ],
      "stateMutability": "view",
      "type": "function"
    },
    {
      "inputs": [
        {
          "internalType": "address",
          "name": "",
          "type": "address"
        }
      ],
      "name": "activeLoans",
      "outputs": [
        {
          "internalType": "address",
          "name": "borrower",
          "type": "address"
        },
        {
          "internalType": "uint256",
          "name": "principal",
          "type": "uint256"
        },
        {
          "internalType": "uint256",
          "name": "interestAmount",
          "type": "uint256"
        },
        {
          "internalType": "uint256",
          "name": "totalRepayment",
          "type": "uint256"
        },
        {
          "internalType": "uint256",
          "name": "startTime",
          "type": "uint256"
        },
        {
          "internalType": "uint256",
          "name": "dueDate",
          "type": "uint256"
        },
        {
          "internalType": "uint256",
          "name": "duration",
          "type": "uint256"
        },
        {
          "internalType": "enum TrustForge.LoanStatus",
          "name": "status",
          "type": "uint8"
        }
      ],
      "stateMutability": "view",
      "type": "function"
    },
    {
      "inputs": [],
      "name": "claimInterest",
      "outputs": [],
      "stateMutability": "nonpayable",
      "type": "function"
    },
    {
      "inputs": [],
      "name": "daoAddress",
      "outputs": [
        {
          "internalType": "address",
          "name": "",
          "type": "address"
        }
      ],
      "stateMutability": "view",
      "type": "function"
    },
    {
      "inputs": [],
      "name": "daoEnabled",
      "outputs": [
        {
          "internalType": "bool",
          "name": "",
          "type": "bool"
        }
      ],
      "stateMutability": "view",
      "type": "function"
    },
    {
      "inputs": [
        {
          "internalType": "uint256",
          "name": "amount",
          "type": "uint256"
        }
      ],
      "name": "depositToPool",
      "outputs": [],
      "stateMutability": "nonpayable",
      "type": "function"
    },
    {
      "inputs": [
        {
          "internalType": "address",
          "name": "_daoAddress",
          "type": "address"
        }
      ],
      "name": "enableDAO",
      "outputs": [],
      "stateMutability": "nonpayable",
      "type": "function"
    },
    {
      "inputs": [
        {
          "internalType": "address",
          "name": "borrower",
          "type": "address"
        }
      ],
      "name": "getActiveLoan",
      "outputs": [
        {
          "internalType": "uint256",
          "name": "principal",
          "type": "uint256"
        },
        {
          "internalType": "uint256",
          "name": "interestAmount",
          "type": "uint256"
        },
        {
          "internalType": "uint256",
          "name": "totalRepayment",
          "type": "uint256"
        },
        {
          "internalType": "uint256",
          "name": "dueDate",
          "type": "uint256"
        },
        {
          "internalType": "uint256",
          "name": "duration",
          "type": "uint256"
        },
        {
          "internalType": "enum TrustForge.LoanStatus",
          "name": "status",
          "type": "uint8"
        },
        {
          "internalType": "bool",
          "name": "isOverdue",
          "type": "bool"
        }
      ],
      "stateMutability": "view",
      "type": "function"
    },
    {
      "inputs": [],
      "name": "getDAOInfo",
      "outputs": [
        {
          "internalType": "bool",
          "name": "enabled",
          "type": "bool"
        },
        {
          "internalType": "address",
          "name": "dao",
          "type": "address"
        },
        {
          "internalType": "uint256",
          "name": "trustIncrease",
          "type": "uint256"
        },
        {
          "internalType": "uint256",
          "name": "trustDecrease",
          "type": "uint256"
        },
        {
          "internalType": "uint256",
          "name": "baseRate",
          "type": "uint256"
        },
        {
          "internalType": "uint256",
          "name": "maxRate",
          "type": "uint256"
        },
        {
          "internalType": "uint256",
          "name": "minDuration",
          "type": "uint256"
        },
        {
          "internalType": "uint256",
          "name": "maxDuration",
          "type": "uint256"
        }
      ],
      "stateMutability": "view",
      "type": "function"
    },
    {
      "inputs": [
        {
          "internalType": "address",
          "name": "lender",
          "type": "address"
        }
      ],
      "name": "getLenderInfo",
      "outputs": [
        {
          "internalType": "uint256",
          "name": "depositedAmount",
          "type": "uint256"
        },
        {
          "internalType": "uint256",
          "name": "totalInterestEarned",
          "type": "uint256"
        },
        {
          "internalType": "uint256",
          "name": "pendingInterest",
          "type": "uint256"
        }
      ],
      "stateMutability": "view",
      "type": "function"
    },
    {
      "inputs": [],
      "name": "getLoanDurationLimits",
      "outputs": [
        {
          "internalType": "uint256",
          "name": "minDuration",
          "type": "uint256"
        },
        {
          "internalType": "uint256",
          "name": "maxDuration",
          "type": "uint256"
        }
      ],
      "stateMutability": "view",
      "type": "function"
    },
    {
      "inputs": [],
      "name": "getPoolStats",
      "outputs": [
        {
          "internalType": "uint256",
          "name": "totalLiquidity",
          "type": "uint256"
        },
        {
          "internalType": "uint256",
          "name": "totalActiveLoanAmount",
          "type": "uint256"
        },
        {
          "internalType": "uint256",
          "name": "availableLiquidity",
          "type": "uint256"
        },
        {
          "internalType": "uint256",
          "name": "utilizationRate",
          "type": "uint256"
        },
        {
          "internalType": "uint256",
          "name": "interestPool",
          "type": "uint256"
        },
        {
          "internalType": "uint256",
          "name": "totalDefaulted",
          "type": "uint256"
        }
      ],
      "stateMutability": "view",
      "type": "function"
    },
    {
      "inputs": [
        {
          "internalType": "address",
          "name": "user",
          "type": "address"
        }
      ],
      "name": "getUserProfile",
      "outputs": [
        {
          "internalType": "uint256",
          "name": "trustScore",
          "type": "uint256"
        },
        {
          "internalType": "uint256",
          "name": "totalLoansTaken",
          "type": "uint256"
        },
        {
          "internalType": "uint256",
          "name": "successfulRepayments",
          "type": "uint256"
        },
        {
          "internalType": "uint256",
          "name": "defaults",
          "type": "uint256"
        },
        {
          "internalType": "bool",
          "name": "hasActiveLoan",
          "type": "bool"
        },
        {
          "internalType": "uint256",
          "name": "walletAge",
          "type": "uint256"
        },
        {
          "internalType": "uint256",
          "name": "maturityLevel",
          "type": "uint256"
        },
        {
          "internalType": "uint256",
          "name": "maxBorrowingLimit",
          "type": "uint256"
        }
      ],
      "stateMutability": "view",
      "type": "function"
    },
    {
      "inputs": [
        {
          "internalType": "address",
          "name": "wallet",
          "type": "address"
        }
      ],
      "name": "getWalletMaturity",
      "outputs": [
        {
          "components": [
            {
              "internalType": "uint256",
              "name": "age",
              "type": "uint256"
            },
            {
              "internalType": "uint256",
              "name": "maturityLevel",
              "type": "uint256"
            },
            {
              "internalType": "uint256",
              "name": "maturityMultiplier",
              "type": "uint256"
            }
          ],
          "internalType": "struct TrustForge.WalletMaturity",
          "name": "",
          "type": "tuple"
        }
      ],
      "stateMutability": "view",
      "type": "function"
    },
    {
      "inputs": [
        {
          "internalType": "address",
          "name": "",
          "type": "address"
        }
      ],
      "name": "lenders",
      "outputs": [
        {
          "internalType": "uint256",
          "name": "depositedAmount",
          "type": "uint256"
        },
        {
          "internalType": "uint256",
          "name": "depositTime",
          "type": "uint256"
        },
        {
          "internalType": "uint256",
          "name": "totalInterestEarned",
          "type": "uint256"
        },
        {
          "internalType": "uint256",
          "name": "lastClaimTime",
          "type": "uint256"
        }
      ],
      "stateMutability": "view",
      "type": "function"
    },
    {
      "inputs": [],
      "name": "lendingToken",
      "outputs": [
        {
          "internalType": "contract IERC20",
          "name": "",
          "type": "address"
        }
      ],
      "stateMutability": "view",
      "type": "function"
    },
    {
      "inputs": [
        {
          "internalType": "address",
          "name": "borrower",
          "type": "address"
        }
      ],
      "name": "markDefault",
      "outputs": [],
      "stateMutability": "nonpayable",
      "type": "function"
    },
    {
      "inputs": [],
      "name": "owner",
      "outputs": [
        {
          "internalType": "address",
          "name": "",
          "type": "address"
        }
      ],
      "stateMutability": "view",
      "type": "function"
    },
    {
      "inputs": [],
      "name": "pause",
      "outputs": [],
      "stateMutability": "nonpayable",
      "type": "function"
    },
    {
      "inputs": [],
      "name": "paused",
      "outputs": [
        {
          "internalType": "bool",
          "name": "",
          "type": "bool"
        }
      ],
      "stateMutability": "view",
      "type": "function"
    },
    {
      "inputs": [],
      "name": "renounceOwnership",
      "outputs": [],
      "stateMutability": "nonpayable",
      "type": "function"
    },
    {
      "inputs": [],
      "name": "repayLoan",
      "outputs": [],
      "stateMutability": "nonpayable",
      "type": "function"
    },
    {
      "inputs": [
        {
          "internalType": "uint256",
          "name": "amount",
          "type": "uint256"
        },
        {
          "internalType": "uint256",
          "name": "duration",
          "type": "uint256"
        }
      ],
      "name": "requestLoan",
      "outputs": [],
      "stateMutability": "nonpayable",
      "type": "function"
    },
    {
      "inputs": [],
      "name": "totalActiveLoans",
      "outputs": [
        {
          "internalType": "uint256",
          "name": "",
          "type": "uint256"
        }
      ],
      "stateMutability": "view",
      "type": "function"
    },
    {
      "inputs": [],
      "name": "totalDefaultedAmount",
      "outputs": [
        {
          "internalType": "uint256",
          "name": "",
          "type": "uint256"
        }
      ],
      "stateMutability": "view",
      "type": "function"
    },
    {
      "inputs": [],
      "name": "totalInterestPool",
      "outputs": [
        {
          "internalType": "uint256",
          "name": "",
          "type": "uint256"
        }
      ],
      "stateMutability": "view",
      "type": "function"
    },
    {
      "inputs": [],
      "name": "totalLenderDeposits",
      "outputs": [
        {
          "internalType": "uint256",
          "name": "",
          "type": "uint256"
        }
      ],
      "stateMutability": "view",
      "type": "function"
    },
    {
      "inputs": [],
      "name": "totalPoolLiquidity",
      "outputs": [
        {
          "internalType": "uint256",
          "name": "",
          "type": "uint256"
        }
      ],
      "stateMutability": "view",
      "type": "function"
    },
    {
      "inputs": [
        {
          "internalType": "address",
          "name": "newOwner",
          "type": "address"
        }
      ],
      "name": "transferOwnership",
      "outputs": [],
      "stateMutability": "nonpayable",
      "type": "function"
    },
    {
      "inputs": [],
      "name": "unpause",
      "outputs": [],
      "stateMutability": "nonpayable",
      "type": "function"
    },
    {
      "inputs": [
        {
          "internalType": "uint256",
          "name": "_lowTrust",
          "type": "uint256"
        },
        {
          "internalType": "uint256",
          "name": "_medTrust",
          "type": "uint256"
        },
        {
          "internalType": "uint256",
          "name": "_highTrust",
          "type": "uint256"
        }
      ],
      "name": "updateBorrowingLimits",
      "outputs": [],
      "stateMutability": "nonpayable",
      "type": "function"
    },
    {
      "inputs": [
        {
          "internalType": "uint256",
          "name": "_newPeriod",
          "type": "uint256"
        }
      ],
      "name": "updateDefaultCooldown",
      "outputs": [],
      "stateMutability": "nonpayable",
      "type": "function"
    },
    {
      "inputs": [
        {
          "internalType": "uint256",
          "name": "_baseRate",
          "type": "uint256"
        },
        {
          "internalType": "uint256",
          "name": "_maxRate",
          "type": "uint256"
        }
      ],
      "name": "updateInterestRates",
      "outputs": [],
      "stateMutability": "nonpayable",
      "type": "function"
    },
    {
      "inputs": [
        {
          "internalType": "uint256",
          "name": "_minDuration",
          "type": "uint256"
        },
        {
          "internalType": "uint256",
          "name": "_maxDuration",
          "type": "uint256"
        }
      ],
      "name": "updateLoanDurationLimits",
      "outputs": [],
      "stateMutability": "nonpayable",
      "type": "function"
    },
    {
      "inputs": [
        {
          "internalType": "uint256",
          "name": "_increasePerRepayment",
          "type": "uint256"
        },
        {
          "internalType": "uint256",
          "name": "_decreaseOnDefault",
          "type": "uint256"
        }
      ],
      "name": "updateTrustParameters",
      "outputs": [],
      "stateMutability": "nonpayable",
      "type": "function"
    },
    {
      "inputs": [
        {
          "internalType": "address",
          "name": "",
          "type": "address"
        }
      ],
      "name": "userProfiles",
      "outputs": [
        {
          "internalType": "uint256",
          "name": "trustScore",
          "type": "uint256"
        },
        {
          "internalType": "uint256",
          "name": "totalLoansTaken",
          "type": "uint256"
        },
        {
          "internalType": "uint256",
          "name": "successfulRepayments",
          "type": "uint256"
        },
        {
          "internalType": "uint256",
          "name": "defaults",
          "type": "uint256"
        },
        {
          "internalType": "bool",
          "name": "hasActiveLoan",
          "type": "bool"
        },
        {
          "internalType": "uint256",
          "name": "lastDefaultTime",
          "type": "uint256"
        },
        {
          "internalType": "uint256",
          "name": "walletFirstSeen",
          "type": "uint256"
        },
        {
          "internalType": "uint256",
          "name": "totalTransactions",
          "type": "uint256"
        }
      ],
      "stateMutability": "view",
      "type": "function"
    },
    {
      "inputs": [
        {
          "internalType": "address",
          "name": "vouchee",
          "type": "address"
        }
      ],
      "name": "vouchForUser",
      "outputs": [],
      "stateMutability": "nonpayable",
      "type": "function"
    },
    {
      "inputs": [
        {
          "internalType": "address",
          "name": "",
          "type": "address"
        },
        {
          "internalType": "address",
          "name": "",
          "type": "address"
        }
      ],
      "name": "vouches",
      "outputs": [
        {
          "internalType": "bool",
          "name": "",
          "type": "bool"
        }
      ],
      "stateMutability": "view",
      "type": "function"
    },
    {
      "inputs": [
        {
          "internalType": "uint256",
          "name": "amount",
          "type": "uint256"
        }
      ],
      "name": "withdrawFromPool",
      "outputs": [],
      "stateMutability": "nonpayable",
      "type": "function"
    }
  ],
  "bytecode": "0x60803461015657601f612d7138819003918201601f19168301916001600160401b0383118484101761015b5780849260209460405283398101031261015657516001600160a01b0381169081900361015657600160005533156101405760018054610100600160a81b0319811633600881811b610100600160a81b031692909217909355604051939291901c6001600160a01b03167f8be0079c531659141344cd1fd0a4f28419497f9722a3daafe3b4186f6b6457e0600080a3603260035560c86004556101f46005556107d0600655662386f26fc100006007556201518060085562ed4e0060095562278d00600a5567016345785d8a0000600b556706f05b59d3b20000600c55671bc16d674ec80000600d55600280546001600160a01b0319169190911790556011805460ff60a01b19169055612bff90816101728239f35b631e4fbdf760e01b600052600060045260246000fd5b600080fd5b634e487b7160e01b600052604160045260246000fdfe6080604052600436101561001257600080fd5b60003560e01c80630b337be6146126435780630d0b2ca6146126255780630d8cb2ff1461260757806316d5ed65146124ff5780632131c68c146124d6578063241109b11461234d57806328fd10d7146122f05780632a998690146121fe57806330fc43ed1461208c578063332d56d714611fee57806334855d1414611fd0578063350fa3ec14611dfa57806335981fd814611c6c5780633716963d14611ad657806339f64c6c14611ab05780633a28d68014611a925780633a701a3614611a745780633f4ba83a14611a0b57806342e3e4f7146119a3578063474f23e814611985578063508903bf1461176c5780635c975abb146117495780636010ba641461163557806368b0e070146114e95780636f474ab0146114cb578063715018a61461146a57806374c8d3771461144d5780638456cb59146113f457806389d99a05146113d65780638da5cb5b146113a95780639549e6821461120157806396fa212f146111e3578063987ee156146110cb5780639a70327d146110ad5780639af819691461106e5780639c847f7414611050578063a91a36e914611034578063a9a5857814611016578063aa452fa614610aba578063aaaca55814610a91578063ab19f09514610a14578063ac03411d146109f6578063b3402bed146109d8578063ba6498391461093e578063bbb85188146108b0578063be81c4d4146106b2578063dc63af4114610694578063e1493c2314610676578063e673a15c14610658578063e8f003311461063a578063efc887e614610615578063f20b2be0146105f7578063f2fde38b1461055a5763f966ade71461026e57600080fd5b3461055557600036600319011261055557610287612ab9565b61028f612adb565b336000526012602052600760406000206006810180541561054c575b50016102b7815461271f565b9055336000526013602052604060002033600052601260205260406000209060048201916102e860ff845416612a12565b600782019260ff8454166003811015610536576103059015612a4f565b600183015460028085015460039095015490546040516323b872dd60e01b81523360048201523060248201526044810192909252919591602090829060649082906000906001600160a01b03165af1801561052a5761036c916000916104fb575b50612851565b600160ff1982541617905560ff1981541690556002810161038d815461271f565b905561039b83600f5461276f565b600f556103aa8260165461288f565b6016557f16e86f0348c2880f6112ec2396e38fef8719fec83b2969fb4718793642c39b2a6020604051848152a18054903360005260126020526040600020600354600282015460058110156104e9575b600a11156104c6575b81546103e8610412838361288f565b11156104b55750506103e890555b54604051918252602082015260606040820152601460608201527314dd58d8d95cdcd99d5b081c995c185e5b595b9d60621b60808201527f61e207e3bae74a62e24453d64a564d920b61f71211e255d085d78b5eb2daf13660a03392a260405191825260208201527fc7ce0a35f17b490de2a317e7fecb2cae86b1abffb03800b2f49282352138269860403392a26001600055005b906104bf9161288f565b9055610420565b600a810180911115610403575b634e487b7160e01b600052601160045260246000fd5b90601481018091116104d357906103fa565b61051d915060203d602011610523575b6105158183612817565b810190612839565b38610366565b503d61050b565b6040513d6000823e3d90fd5b634e487b7160e01b600052602160045260246000fd5b429055386102ab565b600080fd5b34610555576020366003190112610555576105736126a9565b61057b612a8d565b6001600160a01b0381169081156105e15760018054610100600160a81b03198116600893841b610100600160a81b031617909155901c6001600160a01b03167f8be0079c531659141344cd1fd0a4f28419497f9722a3daafe3b4186f6b6457e0600080a3005b631e4fbdf760e01b600052600060045260246000fd5b34610555576000366003190112610555576020600a54604051908152f35b3461055557600036600319011261055557604060085460095482519182526020820152f35b34610555576000366003190112610555576020600e54604051908152f35b34610555576000366003190112610555576020601754604051908152f35b3461055557600036600319011261055557602060405162093a808152f35b34610555576000366003190112610555576020600f54604051908152f35b34610555576020366003190112610555576106cb6126a9565b6106d3612ab9565b60018060a01b03168060005260136020526040600020816000526012602052604060002090600482019161070a60ff845416612a12565b600782019260ff8454166003811015610536576107279015612a4f565b60058301544211156108795760018593015493600260ff1982541617905560ff1981541690556003810161075b815461271f565b905542600582015561076f83600f5461276f565b600f5561077e83600e5461276f565b600e5561078d8360105461288f565b6010558054908260005260126020526040600020600454600160038301541161085f575b7f0be253503c49f8fb02046da3ef57bc2f5f881eb14ba5c2c26b54bf2fb4e7db07959360209593838360a0947f61e207e3bae74a62e24453d64a564d920b61f71211e255d085d78b5eb2daf1369654116000146108555761081390825461276f565b90555b546040519182528682015260606040820152600e60608201526d131bd85b88191959985d5b1d195960921b6080820152a2604051908152a26001600055005b5060329055610816565b94929350606485018095116104d3579193859392906107b1565b60405162461bcd60e51b815260206004820152600f60248201526e139bdd081bdd995c991d59481e595d608a1b6044820152606490fd5b3461055557600036600319011261055557600e54600f549081811115610936576108da828261276f565b915b811561092c5761271081029281840461271014821517156104d3576109038360c0956129f2565b6016549160105493604051958652602086015260408501526060840152608083015260a0820152f35b60c0926000610903565b6000916108dc565b34610555576020366003190112610555576001600160a01b0361095f6126a9565b16600052601360205261010060406000206109d660018060a01b03825416916001810154906002810154600382015460048301549060058401549260ff600760068701549601541695604051988952602089015260408801526060870152608086015260a085015260c084015260e08301906126d5565bf35b34610555576000366003190112610555576020600c54604051908152f35b34610555576000366003190112610555576020600354604051908152f35b34610555576020366003190112610555576060610a2f6126a9565b60018060a01b03811660005260146020526040600020610a7e60405192610a55846127fb565b825493848152600184015460208201528560036002860154958660408501520154910152612af8565b9060405192835260208301526040820152f35b34610555576000366003190112610555576002546040516001600160a01b039091168152602090f35b3461055557610ac8366126bf565b610ad0612ab9565b610ad8612adb565b336000526012602052600760406000206006810180541561100d575b5001610b00815461271f565b9055336000526012602052604060002090815415611004575b60ff600483015416610fbf576007548310610f83576008548110610f49576009548111610f10576003820154610eb4575b610b9a610b56336128cc565b6040602082019485518351835191825260208201527f8ea4f9aee84985ea9687e32c710743b7fdb33bccd7c22f11e49355baea378d3d833392a25491015190612b72565b8311610e6357600e54600f5492610bbc85610bb5868561276f565b101561277c565b6040518581528360208201527f7468760830aff5679376e50470c0493d21c88c599388e89b08c9512b3f3fbc7d60403392a2513360005260126020526040600020938454846005549161012c8110600014610e3e5750506102bc81018091116104d3578490925b80610e1c5750506101f482018092116104d3578391925b80610dc9575b5050610c6790610c6264496cebb80093600654808211610dc1575b50876129df565b6129df565b046001610c74828661288f565b93336000526013602052604060002094336bffffffffffffffffffffffff60a01b875416178655868387015583600287015560038601554260048601556007610cbd854261288f565b95600581019687558560068201550160ff198154169055600481018260ff1982541617905501610ced815461271f565b9055610cfb84600f5461288f565b600f5560025460405163a9059cbb60e01b8152336004820152602481018690529390602090859060449082906000906001600160a01b03165af190811561052a57610d71610d98927e95ff07c1a18f96017ae51e259ce136f0e9a29935f5f76a9a14d027196d0f1c96600091610da25750612851565b54926040519384933397859094939260609260808301968352602083015260408201520152565b0390a26001600055005b610dbb915060203d602011610523576105158183612817565b88610366565b905088610c5b565b9091506064820291808304606414901517156104d357610de8916129f2565b8060011b90808204600214901517156104d35782610c62610e12610c679364496cebb8009561288f565b9350819250610c40565b9293909260001901610c3a5792915060c882018092116104d357839192610c3a565b61025890949192941015610c235792905061012c81018091116104d357849092610c23565b60405162461bcd60e51b815260206004820152602360248201527f416d6f756e7420657863656564732074727573742f6d61747572697479206c696044820152621b5a5d60ea1b6064820152608490fd5b610ec56005830154600a549061288f565b4211610b4a5760405162461bcd60e51b815260206004820152601d60248201527f426c6f636b65642064756520746f20726563656e742064656661756c740000006044820152606490fd5b60405162461bcd60e51b81526020600482015260116024820152704475726174696f6e20746f6f206c6f6e6760781b6044820152606490fd5b60405162461bcd60e51b8152602060048201526012602482015271111d5c985d1a5bdb881d1bdbc81cda1bdc9d60721b6044820152606490fd5b60405162461bcd60e51b8152602060048201526014602482015273416d6f756e742062656c6f77206d696e696d756d60601b6044820152606490fd5b60405162461bcd60e51b815260206004820152601760248201527f416c72656164792068617320616374697665206c6f616e0000000000000000006044820152606490fd5b60648255610b19565b42905584610af4565b34610555576000366003190112610555576020600d54604051908152f35b3461055557600036600319011261055557602060405160648152f35b34610555576000366003190112610555576020600454604051908152f35b3461055557602036600319011261055557606061109161108c6126a9565b6128cc565b6040805191805183526020810151602084015201516040820152f35b34610555576000366003190112610555576020600b54604051908152f35b34610555576020366003190112610555576110e46126a9565b60018060a01b03811660005260126020526040600020906111d96040519161110b836127c8565b83548352600184015492602081019384526002850154946040820195865261116d60038201549360608401948552600760ff60048501541693608086019415158552600581015460a0870152600681015460c0870152015460e08501526128cc565b9151806111dd57506064945b5195519251905115158251916111986040602086015195015188612b72565b946040519889988994919260e0969399989794919961010087019a87526020870152604086015260608501521515608084015260a083015260c08201520152565b0390f35b94611179565b34610555576000366003190112610555576020600754604051908152f35b34610555576060366003190112610555576004356024356044359160018060a01b0360015460081c1633148015611379575b61123c906126e2565b81811080611370575b1561132b57600080516020612baa83398151915260a0600b546040519060608252600f60608301526e1313d5d7d5149554d517d312535255608a1b60808301526020820152836040820152a1600080516020612baa83398151915260a0600c546040519060608252600f60608301526e13515117d5149554d517d312535255608a1b60808301526020820152846040820152a1600080516020612baa83398151915260a0600d546040519060608252601060608301526f121251d217d5149554d517d31253525560821b60808301526020820152856040820152a1600b55600c55600d55005b60405162461bcd60e51b815260206004820152601960248201527f496e76616c6964206c696d69742070726f6772657373696f6e000000000000006044820152606490fd5b50828210611245565b5061123c60115460ff8160a01c169081611396575b509050611233565b6001600160a01b0316331490508561138e565b346105555760003660031901126105555760015460405160089190911c6001600160a01b03168152602090f35b34610555576000366003190112610555576020600854604051908152f35b346105555760003660031901126105555761140d612a8d565b611415612adb565b600160ff19815416176001557f62e78cea01bee320cd4e420270b5ea74000d11b0c9f74754ebdbfc544b05a2586020604051338152a1005b346105555760003660031901126105555760206040516103e88152f35b3461055557600036600319011261055557611483612a8d565b60018054610100600160a81b0319811690915560009060081c6001600160a01b03167f8be0079c531659141344cd1fd0a4f28419497f9722a3daafe3b4186f6b6457e08280a3005b346105555760003660031901126105555760206040516276a7008152f35b3461055557602036600319011261055557600435611505612ab9565b61150d612adb565b336000526012602052600760406000206006810180541561162c575b5001611535815461271f565b905561154281151561272e565b6002546040516323b872dd60e01b81523360048201523060248201526044810183905290602090829060649082906000906001600160a01b03165af1801561052a576115959160009161160d5750612851565b33600052601460205260406000206115ae82825461288f565b81554260018201556003429101556115c881600e5461288f565b600e556115d78160175461288f565b6017556040519081527f83dca925183a756559c22bf3be2283fd2a73318f79c569b4c695660cbfdbe25060203392a26001600055005b611626915060203d602011610523576105158183612817565b83610366565b42905583611529565b34610555576020366003190112610555576001600160a01b036116566126a9565b1660005260136020526040600020604051611670816127c8565b60018060a01b03825416815260018201546020820190815260028301549160408101928352600384015493606082019485526004810154608083015260058101549060a0830191825260e060ff600760068401549360c087019485520154169301936003841015610536578385525194519551958251915192514211948561172b575b509060e096611722949392604051978852602088015260408701526060860152608085015260a08401906126d5565b151560c0820152f35b519094509291906003841015610536579215939192909160e06116f3565b3461055557600036600319011261055557602060ff600154166040519015158152f35b34610555576020366003190112610555576117856126a9565b336000526012602052600760406000206006810180541561197c575b50016117ad815461271f565b9055336000908152601260205260408082206001600160a01b0390931680835291208254919290916101f41161194257600280910154106119085733600052601560205260406000208260005260205260ff604060002054166118d157338214611894573360005260156020526040600020826000526020526040600020600160ff1982541617905580549081156000146118705760969150555b337f4b2c9a3db1e8916a20d447c88fedca2325dffd42f7e881a889cb8d00cd032d78600080a3005b61012c8210611881575b5050611848565b601e82018092116104d35755818061187a565b60405162461bcd60e51b815260206004820152601560248201527421b0b73737ba103b37bab1b4103cb7bab939b2b63360591b6044820152606490fd5b60405162461bcd60e51b815260206004820152600f60248201526e105b1c9958591e481d9bdd58da1959608a1b6044820152606490fd5b60405162461bcd60e51b81526020600482015260126024820152714e65656420322b2072657061796d656e747360701b6044820152606490fd5b60405162461bcd60e51b8152602060048201526012602482015271125b9cdd59999a58da595b9d081d1c9d5cdd60721b6044820152606490fd5b429055836117a1565b34610555576000366003190112610555576020601054604051908152f35b34610555576000366003190112610555576101006011546003546004546005546006549060085492600954946040519660ff8160a01c161515885260018060a01b0316602088015260408701526060860152608085015260a084015260c083015260e0820152f35b3461055557600036600319011261055557611a24612a8d565b60015460ff811615611a635760ff19166001557f5db9ee0a495bf2e6ff9c91a7834c1ba4fdd244a5e8aa4e537bd38aeae4b073aa6020604051338152a1005b638dfc202b60e01b60005260046000fd5b34610555576000366003190112610555576020601654604051908152f35b3461055557600036600319011261055557602060405162278d008152f35b3461055557600036600319011261055557602060ff60115460a01c166040519015158152f35b3461055557611ae4366126bf565b9060018060a01b0360015460081c1633148015611c3c575b611b05906126e2565b80151580611c31575b15611bf95781151580611bed575b15611bb557600080516020612baa83398151915260a06003546040519060608252600e60608301526d54525553545f494e43524541534560901b60808301526020820152836040820152a1600080516020612baa83398151915260a06004546040519060608252600e60608301526d54525553545f444543524541534560901b60808301526020820152846040820152a1600355600455005b60405162461bcd60e51b815260206004820152601060248201526f496e76616c696420646563726561736560801b6044820152606490fd5b506101f4821115611b1c565b60405162461bcd60e51b815260206004820152601060248201526f496e76616c696420696e63726561736560801b6044820152606490fd5b506064811115611b0e565b50611b0560115460ff8160a01c169081611c59575b509050611afc565b6001600160a01b03163314905084611c51565b3461055557600036600319011261055557611c85612ab9565b611c8d612adb565b3360005260126020526007604060002060068101805415611df1575b5001611cb5815461271f565b90553360005260146020526040600020805415611dbe57611cd533612af8565b908115611d825760028101611ceb83825461288f565b9055600342910155611cff8160165461276f565b60165560025460405163a9059cbb60e01b81523360048201526024810183905290602090829060449082906000906001600160a01b03165af1801561052a57611d4f9160009161160d5750612851565b6040519081527ff9984c8173c4b4ff9cc454f76ed19c053f4490ccb224fd9ddffeb4ef4bea353060203392a26001600055005b60405162461bcd60e51b81526020600482015260146024820152734e6f20696e74657265737420746f20636c61696d60601b6044820152606490fd5b60405162461bcd60e51b815260206004820152600b60248201526a4e6f206465706f7369747360a81b6044820152606490fd5b42905582611ca9565b3461055557611e08366126bf565b9060018060a01b0360015460081c1633148015611fa0575b611e29906126e2565b620151808110611f62576301e133808211611f255781811015611ee057600080516020612baa83398151915260a06008546040519060608252601160608301527026a4a72fa627a0a72fa22aa920aa24a7a760791b60808301526020820152836040820152a1600080516020612baa83398151915260a06009546040519060608252601160608301527026a0ac2fa627a0a72fa22aa920aa24a7a760791b60808301526020820152846040820152a1600855600955005b60405162461bcd60e51b815260206004820152601960248201527f4d696e206d757374206265206c657373207468616e206d6178000000000000006044820152606490fd5b60405162461bcd60e51b81526020600482015260156024820152744d6178206475726174696f6e20746f6f206c6f6e6760581b6044820152606490fd5b60405162461bcd60e51b8152602060048201526016602482015275135a5b88191d5c985d1a5bdb881d1bdbc81cda1bdc9d60521b6044820152606490fd5b50611e2960115460ff8160a01c169081611fbd575b509050611e20565b6001600160a01b03163314905084611fb5565b34610555576000366003190112610555576020600654604051908152f35b34610555576020366003190112610555576001600160a01b0361200f6126a9565b166000526012602052604060002080546111d9600183015492600281015490600381015460ff60048301541660058301549160076006850154940154946040519889988994919260e0969399989794919961010087019a87526020870152604086015260608501521515608084015260a083015260c08201520152565b34610555576020366003190112610555576004356120a8612ab9565b6120b0612adb565b33600052601260205260076040600020600681018054156121f5575b50016120d8815461271f565b905533600052601460205260406000206120f382151561272e565b80548281106121b957826121199161211482610bb5600e54600f549061276f565b61276f565b905561212781600e5461276f565b600e556121368160175461276f565b60175560025460405163a9059cbb60e01b81523360048201526024810183905290602090829060449082906000906001600160a01b03165af1801561052a576121869160009161160d5750612851565b6040519081527f5eb46cc574ef1abdbd52310ce761acbb5cbd48af34b53e4f32083f205c8a977e60203392a26001600055005b60405162461bcd60e51b8152602060048201526014602482015273496e73756666696369656e742062616c616e636560601b6044820152606490fd5b429055836120cc565b34610555576020366003190112610555576122176126a9565b61221f612a8d565b6011549060ff8260a01c166122b5576001600160a01b031690811561227a576001600160a81b0319168117600160a01b176011557febfdec959bb9c54042f15aac46777de16490bb402bc0a654d878c4965f1165c2600080a2005b60405162461bcd60e51b8152602060048201526013602482015272496e76616c69642044414f206164647265737360681b6044820152606490fd5b60405162461bcd60e51b8152602060048201526013602482015272111053c8185b1c9958591e48195b98589b1959606a1b6044820152606490fd5b34610555576020366003190112610555576001600160a01b036123116126a9565b16600090815260146020908152604091829020805460018201546002830154600390930154855192835293820152928301526060820152608090f35b346105555761235b366126bf565b9060018060a01b0360015460081c16331480156124a6575b61237c906126e2565b8181101561246157611388821161242857600080516020612baa83398151915260a060055460405190606082526012606083015271424153455f494e5445524553545f5241544560701b60808301526020820152836040820152a1600080516020612baa83398151915260a0600654604051906060825260116060830152704d41585f494e5445524553545f5241544560781b60808301526020820152846040820152a1600555600655005b60405162461bcd60e51b815260206004820152601160248201527009ac2f040e4c2e8ca40e8dede40d0d2ced607b1b6044820152606490fd5b60405162461bcd60e51b815260206004820152601a60248201527f42617365206d757374206265206c657373207468616e206d61780000000000006044820152606490fd5b5061237c60115460ff8160a01c1690816124c3575b509050612373565b6001600160a01b031633149050846124bb565b34610555576000366003190112610555576011546040516001600160a01b039091168152602090f35b346105555760203660031901126105555760043560018060a01b0360015460081c16331480156125d7575b612533906126e2565b62093a80811015806125ca575b1561259257600080516020612baa83398151915260a0600a546040519060608252601060608301526f2222a320aaa62a2fa1a7a7a62227aba760811b60808301526020820152836040820152a1600a55005b60405162461bcd60e51b815260206004820152601060248201526f24b73b30b634b21031b7b7b63237bbb760811b6044820152606490fd5b5062ed4e00811115612540565b5061253360115460ff8160a01c1690816125f4575b50905061252a565b6001600160a01b031633149050836125ec565b34610555576000366003190112610555576020600554604051908152f35b34610555576000366003190112610555576020600954604051908152f35b346105555760403660031901126105555761265c6126a9565b602435906001600160a01b03821682036105555760018060a01b0316600052601560205260406000209060018060a01b0316600052602052602060ff604060002054166040519015158152f35b600435906001600160a01b038216820361055557565b6040906003190112610555576004359060243590565b9060038210156105365752565b156126e957565b60405162461bcd60e51b815260206004820152600e60248201526d139bdd08185d5d1a1bdc9a5e995960921b6044820152606490fd5b60001981146104d35760010190565b1561273557565b60405162461bcd60e51b81526020600482015260126024820152710416d6f756e74206d757374206265203e20360741b6044820152606490fd5b919082039182116104d357565b1561278357565b60405162461bcd60e51b815260206004820152601b60248201527f496e73756666696369656e7420706f6f6c206c697175696469747900000000006044820152606490fd5b610100810190811067ffffffffffffffff8211176127e557604052565b634e487b7160e01b600052604160045260246000fd5b6080810190811067ffffffffffffffff8211176127e557604052565b90601f8019910116810190811067ffffffffffffffff8211176127e557604052565b90816020910312610555575180151581036105555790565b1561285857565b60405162461bcd60e51b815260206004820152600f60248201526e151c985b9cd9995c8819985a5b1959608a1b6044820152606490fd5b919082018092116104d357565b604051906060820182811067ffffffffffffffff8211176127e55760405260006040838281528260208201520152565b6128d461289c565b5060018060a01b0316600052601260205260406000206040516128f6816127c8565b8154815260018201546020820152600282015460408201526003820154606082015260ff60048301541615156080820152600582015460a082015260e0600760068401549360c08401948552015491015261294f61289c565b908051156129c95761296290514261276f565b8082526276a7008110612982575060036020820152609660408201525b90565b62278d00811061299e5750600260208201526064604082015290565b62093a80116129b857600160208201526032604082015290565b600060208201526014604082015290565b5060008152600060208201526014604082015290565b818102929181159184041417156104d357565b81156129fc570490565b634e487b7160e01b600052601260045260246000fd5b15612a1957565b60405162461bcd60e51b815260206004820152600e60248201526d27379030b1ba34bb32903637b0b760911b6044820152606490fd5b15612a5657565b60405162461bcd60e51b815260206004820152600f60248201526e4c6f616e206e6f742061637469766560881b6044820152606490fd5b60015460081c6001600160a01b03163303612aa457565b63118cdaa760e01b6000523360045260246000fd5b600260005414612aca576002600055565b633ee5aeb560e01b60005260046000fd5b60ff60015416612ae757565b63d93c066560e01b60005260046000fd5b60018060a01b031660005260146020526040600020604051612b19816127fb565b606060038354938484526001810154602085015260028101546040850152015491015260175480158015612b68575b612b6157612b5c61297f92601654906129df565b6129f2565b5050600090565b5060165415612b48565b606491612b8c9161012c811015612b905750600b546129df565b0490565b6102581115612ba157600c546129df565b600d546129df56fe185daf617c465de5e0042f7aae1503b1a216ea8927cacf296e58b516e82afea8a264697066735822122090e286dc7bcd457ca90b3acb5a94cb5202ccabff0a2e68c14905dab04848da3e64736f6c634300081c0033",
  "linkReferences": {},
  "deployedLinkReferences": {}
}